:020000040800F2
:1000000000040020B9020008BB020008BB0200087F
:10001000BB020008BB020008BB020008BB020008CC
:10002000BB020008BB020008BB0200084137000801
:10003000BB020008BB020008BB020008BB020008AC
:10004000BB020008BB020008BB020008BB0200089C
:10005000BB020008BB020008BB020008BB0200088C
:10006000BB020008BB020008BB020008E12A00082E
:10007000512B0008C12B0008312C0008A12C0008CE
:10008000112D0008812D0008BB020008BB020008EA
:10009000BB020008BB020008BB020008BB0200084C
:1000A000BB020008BB020008BB020008BB0200083C
:1000B000A1290008BB020008BB020008E1310008CA
:1000C00091330008BB020008BB020008BB02000815
:1000D000BB020008E128000841290008BB02000813
:1000E000BB020008BB020008BB020008BB020008FC
:1000F000BB020008BB020008BB020008F12D00088B
:10010000BB020008BB020008BB020008BB020008DB
:10011000BB020008BB020008BB020008BB020008CB
:10012000612E0008D12E0008412F0008B12F0008D1
:1001300021300008BB020008BB020008BB02000817
:10014000BB020008BB020008BB020008BB0200089B
:10015000913000080131000871310008BB0200082D
:10016000BB020008BB020008BB020008BB0200087B
:10017000BB020008BB020008BB020008BB0200086B
:10018000BB020008BB020008BB020008BB0200085B
:10019000BB020008BB020008BB020008BB0200084B
:1001A000BB020008BB020008BB020008BB0200083B
:1001B000BB020008BB020008BB020008BB0200082B
:1001C000BB020008BB020008BB020008BB0200081B
:1001D000BB020008BB020008BB020008BB0200080B
:1001E00072B6264880F30888254880F30988254898
:1001F00025490860022080F31488BFF36F8F02F056
:100200001FFB03F055F94FF0553020491B4A91422E
:100210003CBF41F8040BFAE71D49194A91423CBF23
:1002200041F8040BFAE71B491B4A1C4B9A423EBF9C
:1002300051F8040B42F8040BF8E700201849194A5A
:1002400091423CBF41F8040BFAE702F011FB02F0C7
:10025000FFFA154C154DAC4203DA54F8041B8847DD
:10026000F9E703F07DFA124C124DAC4203DA54F870
:10027000041B8847F9E702F0F3BA000000040020ED
:10028000000800200000000808ED00E00000002049
:1002900000040020184A000800080020040800207C
:1002A00020080020E0140020E0010008E001000820
:1002B000E0010008E001000892E700F000F8FEE726
:1002C0002DE9F04FC1F80CD0C3689D46BDE8F08F12
:1002D000002383F311882846A047002003F000FA8A
:1002E000FEE703F0DDF900DFFEE7000053B94AB98D
:1002F000002908BF00281CBF4FF0FF314FF0FF302E
:1003000000F074B9ADF1080C6DE904CE00F006F808
:10031000DDF804E0DDE9022304B070472DE9F04781
:10032000089E0D4604468846002B4DD18A429446CD
:1003300068D9B2FA82F252B101FA02F3C2F1200195
:1003400020FA01F10CFA02FC41EA030894404FEA5A
:100350001C45210CB8FBF5FE1FFA8CF705FB1E832C
:1003600041EA03430EFB07F199420BD91CEB03034F
:100370000EF1FF3080F01E81994240F21B81AEF1F8
:10038000020E63445B1AA4B2B3FBF5F005FB103315
:1003900044EA034400FB07F7A7420AD91CEB040414
:1003A00000F1FF3380F00881A74240F205816444E8
:1003B0000238E41B40EA0E4000211EB1D440002365
:1003C000C6E90043BDE8F0878B4208D9002E00F053
:1003D000EE800021C6E900050846BDE8F087B3FAC3
:1003E00083F100294AD1AB4202D3824200F2F98064
:1003F000841A65EB030301209846002EE2D0C6E97B
:100400000048DFE702B9FFDEB2FA82F2002A40F0CC
:100410009180A1EB0C054FEA1C471FFA8CFE0121CD
:10042000B5FBF7F307FB1350250C45EA00450EFB1F
:1004300003F0A84208D91CEB050503F1FF3802D2EE
:10044000A84200F2CB8043462D1AA4B2B5FBF7F0C8
:1004500007FB105544EA05440EFB00FEA64508D9EB
:100460001CEB040400F1FF3502D2A64500F2BB806C
:100470002846A4EB0E0440EA03409EE7C1F12007A2
:100480008B4022FA07FC4CEA030C20FA07F405FA29
:1004900001F31C43FD404FEA1C4900FA01F3B5FB90
:1004A000F9F8200C1FFA8CFE09FB185540EA0545A7
:1004B00008FB0EF0A84202FA01F20BD91CEB05056D
:1004C00008F1FF3A80F08880A84240F28580A8F1C8
:1004D000020865442D1AA4B2B5FBF9F009FB1055CA
:1004E00044EA054500FB0EFEAE4508D91CEB0505A8
:1004F00000F1FF346CD2AE456AD90238654440EA57
:100500000840A0FB0294A5EB0E05A542C846A646EE
:1005100056D353D05EB1B3EB080265EB0E0505FA76
:1005200007F722FA01F3CD401F43C6E90075002109
:10053000BDE8F087C2F1200320FA03F10CFA02FCB7
:1005400025FA03F395400D434FEA1C471FFA8CFE32
:10055000B3FBF7F107FB11302B0C43EA004301FB1F
:100560000EF0984204FA02F408D91CEB030301F1DF
:10057000FF382FD298422DD9023963441B1AADB2ED
:10058000B3FBF7F007FB103345EA034500FB0EF31E
:10059000AB4208D91CEB050500F1FF3816D2AB427F
:1005A00014D902386544ED1A40EA014138E7314672
:1005B000304607E78646E5E61846FAE64B45A9D2F7
:1005C000B9EB020864EB0C0E0138A3E74046EAE7FA
:1005D000204694E74146D1E7D0467BE7023B65449D
:1005E00032E7084609E76444023842E7704700BF33
:1005F000844641EA000313F003036DD1403A41D32E
:1006000051F8043B40F8043B51F8043B40F8043BEC
:1006100051F8043B40F8043B51F8043B40F8043BDC
:1006200051F8043B40F8043B51F8043B40F8043BCC
:1006300051F8043B40F8043B51F8043B40F8043BBC
:1006400051F8043B40F8043B51F8043B40F8043BAC
:1006500051F8043B40F8043B51F8043B40F8043B9C
:1006600051F8043B40F8043B51F8043B40F8043B8C
:1006700051F8043B40F8043B51F8043B40F8043B7C
:10068000403ABDD2303211D351F8043B40F8043B1C
:1006900051F8043B40F8043B51F8043B40F8043B5C
:1006A00051F8043B40F8043B103AEDD20C3205D32C
:1006B00051F8043B40F8043B043AF9D2043208D024
:1006C000D2071CBF11F8013B00F8013B01D30B8896
:1006D00003806046704700BF082A13D38B078DD074
:1006E00010F003038AD0C3F10403D21ADB071CBF46
:1006F00011F8013B00F8013B80D331F8023B20F8B0
:10070000023B7BE7043AD9D3013A11F8013B00F8E8
:10071000013BF9D20B7803704B7843708B78837070
:1007200060467047830730B548D0541E002A3FD03A
:10073000CAB2034601E0013C3AD303F8012B9D07FE
:10074000F9D1032C2DD9CDB245EA05250F2C45EA68
:10075000054536D9A4F1100222F00F0C03F1200E4A
:10076000E6444FEA121C03F1100242E9045542E943
:10077000025510327245F8D10CF1010214F00C0F41
:1007800003EB021204F00F0C13D0ACF1040323F0BE
:1007900003030433134442F8045B9342FBD10CF08F
:1007A00003042CB1CAB21C4403F8012B9C42FBD1B8
:1007B00030BD64461346002CF4D1F9E703461446D5
:1007C000BFE71A46A446E0E7000000000000000072
:1007D000012914BF6FF013000020704700000000D3
:1007E0002DE9F04F02F00308C2F34114C2F3800573
:1007F000D609C64600224FF00F0B4FF0010AA14662
:1008000015E0D0F800C003EA0C0343EA0E03072A00
:10081000036041D8036A23EA07073C43046249089E
:1008200038D06D004FEA89094FEA8E0E0132CB07AE
:10083000F5D543680AFA02F423EA04032B43436024
:1008400084684FF0030C53000CFA03F324EA03040A
:100850008460C46802F0070724EA030CBF004CEA76
:100860000904B8F1020FC4606FEA030306FA07F443
:100870000BFA07F7C5D1072A14D8D0F820C02CEA04
:1008800007073C4304620468234043EA0E03490817
:100890000360C6D1BDE8F08F436A23EA07073C43F3
:1008A0004462BCE7D0F824C02CEA07073C4344620A
:1008B000E9E700BF000000000000000000000000A9
:1008C000024AD36843F0C003D36070470010014070
:1008D000024AD36843F0C003D3607047004400402D
:1008E00072B60349034BC1F8EC0003221A70FEE70D
:1008F000700A0020B00C0020000000000000000082
:1009000011F00C0F10B5446B12D1016B0A6813681B
:1009100023F01F0313601368DB07FCD4487A4A688E
:100920003D2383401360636843F40073636010BD2C
:100930000148FFF7D5FF00BF344500080000000064
:10094000FEE700BF00000000000000000000000003
:10095000014B5B6883607047001000E000000000FE
:100960000E4A0F4B81685B6810B4946802691B1BC8
:100970005B1AD218416902614268C46841F1000102
:100980009342026888BF436001349342C0E9023455
:10099000416110BC38BF0360704700BFB00C00203D
:1009A000001000E000000000000000000000000057
:1009B0000A4B10B4D3E90042A2EB040C604509D8FD
:1009C000101A49420840844204D8824202D310BC23
:1009D00058607047002010BC704700BFA80C002072
:1009E0002DE9F04FCDB082680392C268049202698B
:1009F00005924269069282690792C269436A089227
:100A00000E46026A0B9009920A930FCE0CAF3C4639
:100A10000FC70FCE0FC70FCE0FC796E80F0087E89E
:100A20000F003CAD2346A06B5A6A1B6854F8041FA4
:100A30001A444FEAF04383EA704383EA9023134455
:100A40004FEAB14282EAF11282EAD1021344A5428E
:100A5000E363E7D14BAB0293304B0193DDE90962CD
:100A6000DDE907C8DDE9054ADDE903E52C4B0BAFFD
:100A700009E0019951F8043F019146462C46E046B1
:100A80007546CC4686464FEAFC2126EA0C090CEA5C
:100A9000080081EABC1181EA7C6189EA000057F80C
:100AA000049F084481444FEA7E3185EA040081EACC
:100AB000BE0100EA0E0005EA040B4A4481EABE5179
:100AC00080EA0B001344084403EB0A091844029B14
:100AD0009F423246A246CCD10599089F039B049AB7
:100AE00029440D4606996744DDF828C02144034493
:100AF0000C4607980999B4446646DDF82CC0724448
:100B000048444144CCE90232CCE90454CCE906071C
:100B1000CCE908164DB0BDE8F08F00BF584800087A
:100B2000982F8A4200000000000000000000000032
:100B300070B5264C0346012220689A40024218BF35
:100B4000002000D070BD024322602148214A04EBFE
:100B5000C304A260026B616042F400120263026D82
:100B60001D4C42F400120265026D0C2203FB02F2DE
:100B7000A018A1580A6822F01F020A600A6812F041
:100B80000102FBD10C2505FB03433D25DC7A93F8DC
:100B900009E05E6805FA0EF56309356004F1604C02
:100BA0000A609B00012204F01F0402FA04F40CF511
:100BB000614C212203F160434A6103F561435022F5
:100BC0008CF80023C3F880411C6070BDE40C002049
:100BD000003802402008002078470008000000008C
:100BE0000346144A10B443F8042B00F10C0400F13E
:100BF0005402C16400214161C0E90344C0E90822F4
:100C000010244FF0010C4360816200F1640300F195
:100C10003001826100F174028463C0E90B01C0E914
:100C2000113310BC80F808C0C3614163C363026420
:100C300000657047D849000800000000000000006F
:100C400008B5037F93B10F2B10D000220369027700
:100C50001A6851688B420CD18168D2F808C08C4563
:100C60000AD8C0E900231860506008BD0348FFF7A8
:100C700037FE0348FFF734FE1346E9E74446000811
:100C8000984500080000000000000000000000007F
:100C900008B5037F93B10F2B10D0002203690277B0
:100CA0001A6851688B420CD18168D2F808C08C4513
:100CB0000AD2C0E900231860506008BD0348FFF75E
:100CC0000FFE0348FFF70CFE1346E9E758470008FC
:100CD000284700080000000000000000000000009D
:100CE00011F00C0F38B52CD1C46A416B226813681F
:100CF00023F01F031360136813F00103FBD1656831
:100D0000647A3D22A2402A604A6822F480524A60F6
:100D10000A6822F480620A600A6842F40072302491
:100D20000A6084F31188C2693AB1117F03290BD19B
:100D3000C36110465363FFF7ABFF002383F31188B1
:100D400038BD0348FFF7CCFD0248FFF7C9FD00BFDF
:100D500034450008184700080000000000000000AB
:100D600008B50846302383F311880B7F0C2B10D86D
:100D7000DFE803F0140F0F180B070F0B0F0F0F0F07
:100D80000B004A6B936801339360D0E90032136023
:100D90005A604FF0FF334363FFF77AFF002383F37A
:100DA000118808BD4B6B00221A60F2E700000000BA
:100DB000F8B50468A04220D007460D46002604E09E
:100DC0000B2A1BD02468A74217D0E3682B43E360AB
:100DD00015B123691D42F5D0D4E90103816C027F6E
:100DE0000B430A2A8364EBD1426B1342EAD0466379
:100DF000FFF74EFF2468A742E7D1F8BD426B32EA05
:100E00000303DFD1F3E700BF000000000000000093
:100E10000368ABB110B51A7F032A14D100241A69F4
:100E2000046059631C771168486882420ED18C684F
:100E30009868844205D2C3E9001213604B6010BD6C
:100E400070470A46EFE70348FFF74AFD0248FFF7FD
:100E500047FD00BF184700082847000800000000B1
:100E600038B5302383F31188124BD3E90054A4EB37
:100E7000050C604510D8201A49420840821A954254
:100E80000AD8944208D35A600B4B1A689A4209D187
:100E9000002383F3118838BD074B1A689A424FF03C
:100EA0000000F5D0D96893688A689A42F0D2034866
:100EB000FFF716FDA80C0020700A0020D845000896
:100EC0001D4B70B503F11004D96144601C69826048
:100ED0000460606018614FF080401D6AC468AA42D7
:100EE00038BF2A4614F0020401EB02061ED1466305
:100EF00004610224C460446A661AB24298BF2E4656
:100F000002D970BD21461446C268013692073144A9
:100F10000FD54163426A111BB142F3D2B542F0D200
:100F2000DA6B1E6242F00102DA6370BD0348FFF71C
:100F3000D7FC0348FFF7D4FC700A0020A84600083D
:100F4000E445000800000000000000000000000070
:100F5000154A4FF0804370B5146ADD68A14238BF6E
:100F60002146AD0701EB000619D55E635D6A281ABC
:100F7000814200D970BD2146D8680131800701EB5C
:100F800005060CD55E63586A451B8D420AD28C4219
:100F9000F0D2D36B116243F00103D36370BD0348F9
:100FA000FFF79EFC0546E7E7700A0020E4450008CD
:100FB00008B50346006883420BD002681A6053608C
:100FC000037F042B06D100234363BDE80840FFF7ED
:100FD0005FBE08BD0148FFF783FC00BF584600080C
:100FE0002DE9F843466F3368DF0505469CB275D49A
:100FF000302383F3118814F02F0F44D005F1040837
:1010000005F10C0907E0A40677681ED4336813F0D5
:101010002F0F9CB237D02007F5D014F0080F0CBF6B
:1010200000214FF48071E20748BF41F02001A3077F
:1010300048BF41F04001670748BF41F0800140468A
:10104000FFF7B6FEA4067768E0D56B6995F87C409B
:10105000002B32D0D5E90832934236D06A69591C48
:1010600001323C4029626A611C70D5E907329A421C
:1010700001D3AB692B624846FFF79AFF336813F040
:101080002F0F9CB2C7D1002383F31188F368180691
:101090009FB201D5210630D47A060BD5630609D557
:1010A000302383F31188D5E911239A4242D00023DB
:1010B00083F31188F760BDE8F88304214046FFF709
:1010C00077FED5E908329342C8D16A69002AC5D0B3
:1010D0004FF400614046FFF76BFE97E7302383F340
:1010E00011884FF480610430FFF762FE6FF4807363
:1010F0003360002383F311887AE7302383F3118868
:10110000D5E911239A4220D0AA6B0132AA635A1C56
:10111000AA6493F800802B6C9A4201D3EB6BAB640A
:1011200005F13000FFF744FFC6F80480002383F385
:101130001188B1E7AB6B002BB9D01021281D27F027
:101140004007FFF735FEBFB2B1E7AA6B002ADBD03C
:101150000821281D27F08007FFF72AFEBFB2E5E728
:10116000134A5368D16810B59C68012C1CD1994270
:1011700017D00B69934214D11A6808771068186069
:1011800043601477DA60EFF309834869243B98429F
:1011900004D8BDE810401046FFF792B80548FFF7A5
:1011A0009FFB0548FFF79CFB0448FFF799FB00BF36
:1011B000700A002040450008EC46000884450008FD
:1011C0002DE9F0433C4E4B1CD6F80C9087B027D04D
:1011D0000023B04605934FF080430746586A58F8FD
:1011E000103F364CCDF8109043450A46039459D031
:1011F000F5699A68451B4D1934BF2C460C46A2422E
:1012000035D89A6894426D4605D810E01B68A41A38
:101210009A6894420BD9AB42F8D12948FFF760FB9A
:10122000FFF79EFFD9F8340007B0BDE8F0830294C1
:101230009A6859680093121B01910D60C3E901522D
:101240004FF0FF33B3613846FFF78AFF009B002B56
:10125000E8D03269AA420ED0DDE901109A680B602D
:101260000244C3E901124FF0FF33B361DAE7FFF73D
:101270006FFE3369C5E70022434533610092C3F82E
:10128000048015D09A680298F16902444FF08040BA
:101290009A60406A431A9A42C4D9091A1144FFF766
:1012A00057FEBFE76D4601462846FFF709FECAE72D
:1012B0004FF08043DA60B5E7700A0020610D000846
:1012C00008470008000000000000000000000000C7
:1012D0002DE9F04F85B0CDE90232D0F81C904FF0E7
:1012E000300B8BF31188002A78D0DFF8F880DDF816
:1012F0000CA004460F46A368D4E90460534534BFEC
:10130000A5685546361AAE4250D834D232463946D0
:10131000FFF76EF9AA1BE0680192B919FFF768F9A7
:10132000E368019A13446361A3685B1BA3606DB318
:10133000B9F1000F01D02046C847D8F80030434526
:101340003CD1002383F31188AAEB050A2F448BF3C9
:101350001188BAF1000FCED14FF0000AD8F8002062
:10136000424534D1002282F31188039BA3EB0A008B
:1013700005B0BDE8F08F2A463946FFF739F9E36832
:101380006361A3685B1BA360002DD1D10299D8F8DB
:101390000C300029E2D062680420C3E900421360E7
:1013A0006360FFF70DFF0028A5D0D7E72A4639462E
:1013B000FFF71EF963692B446361B5E7D8F80C2089
:1013C0009B6892689A42BCD20748FFF789FAD8F81E
:1013D0000C10926889689142C4D2F5E7DFF8048066
:1013E000BAE700BF700A00206C450008000000004A
:1013F0004FF0FF333030FFF76BBF00BF000000003D
:101400003030FFF765BF00BF0000000000000000A3
:101410002DE9F04190F802E0C478BEF1FE0F0546D8
:1014200068D0012C00F10C0162D904F10C036FF0BB
:101430000B020344121A03E05FFA8CF4012C57D01C
:10144000D61813F8010D04F1FF3C0028F4D06B7A94
:10145000AA7A344F43EA0223EA7A87F800E043EAA3
:1014600002432A79BA706A79FA70AA793A71EA79EC
:101470007A712A7ABA711A12FB713A721B143246C7
:1014800007F10A007B727C70FFF7B2F82A790A36FE
:10149000D20707EB060314D409222988197029887A
:1014A000090A00205970204B1E4902440332186873
:1014B00022444FF0FF33BDE8F04192B23030FFF7E5
:1014C00007BF2A88BA552A88120A5A70D5F81A21F5
:1014D000D5F81E01D5F81611C3F80210C3F80A009A
:1014E000C3F8062095F822219A730D200922DAE725
:1014F0002646ACE70B4EC379F370037A3371437A17
:1015000073718379C278B37000F10C0186F800E042
:101510007470B01DFFF76CF8EB7806330522334486
:10152000BBE700BF58090020680D00200000000044
:1015300070B5302304460D4683F31188204E0AE02F
:1015400062682946C3E90042042013606360FFF724
:1015500037FE002806DBA3685BB9F368002DEFD1E6
:101560004FF0FF303368B34222D1002383F3118858
:1015700070BDA368A169013BA36023694A1C9A421C
:1015800028BFE368A2610D7828BFA361E3690BB1AE
:10159000204698473368B34204D1002383F311886F
:1015A000284670BDF2689B6892689A42F5D204E0C2
:1015B000F2689B6892689A42D7D20248FFF790F986
:1015C000700A00206C4500080000000000000000C8
:1015D0004FF0FF310C30FFF7ABBF00BF0000000041
:1015E0000C30FFF7A5BF00BF0000000000000000A6
:1015F0002DE9F04F85B0CDE90232D0F81C804FF0D4
:10160000300B8BF31188002A78D03D4FDDF80CA009
:1016100004460E46A268A1695245226934BFA568F6
:101620005546A2EB0109A94552D836D2A5EB0903CC
:101630004A4630460193FEF7DBFF06EB0900DDF872
:101640000490E1684A46FEF7D3FFE2684A44A2618B
:10165000A268521BA2605DB3B8F1000F01D0204612
:10166000C0473A68BA423BD1002383F31188AAEB02
:10167000050A2E448BF31188BAF1000FCAD14FF03E
:10168000000A3A68BA4233D1002282F31188039BE0
:10169000A3EB0A0005B0BDE8F08F2A463046FEF7FE
:1016A000A7FFE268A261A268521BA260002DD3D1FD
:1016B000029BFA68002BE4D061680420C2E9004173
:1016C0000A6019466260FFF77BFD0028A2D0D8E7C8
:1016D0002A463046FEF78CFFA2692A44A261B7E78A
:1016E000F968926889689142BED20648FFF7F8F817
:1016F000F968926889689142C6D2F6E7004FBEE762
:10170000700A00206C450008000000000000000086
:101710004FF0FF330C30FFF76BBF00BF000000003D
:101720000C30FFF765BF00BF0000000000000000A4
:10173000F8B504460E461546302383F31188204F32
:101740000AE060682946C3E9004003600420636042
:10175000FFF736FD002806DBA3685BB9FB68002DA8
:10176000EFD14FF0FF303B68BB4221D1002383F320
:101770001188F8BDA3686269013BA360531C6361D3
:101780001670D4E904329A4224BFE3686361E369C6
:101790000BB1204698473B68BB4203D1002080F341
:1017A0001188F8BDFA689B6892689A42F6D204E004
:1017B000FA689B6892689A42D8D20248FFF790F87C
:1017C000700A00206C4500080000000000000000C6
:1017D0004FF0FF323030FFF7ABBF00BF000000001A
:1017E0003030FFF7A5BF00BF000000000000000080
:1017F000DFF85CA1574C584E2DE988489AF8003024
:10180000DFF858B1B3BB4FF400580325C146302769
:10181000A6F81A9087F311884FF416710820FFF785
:10182000CFFC2368A34275D1002383F31188A6F867
:10183000188087F311884FF416710820FFF7C0FC59
:101840002368A3426CD1002383F31188013DDFD1CB
:10185000302383F3118841F270710820FFF7B0FC48
:101860002368A34262D1002383F311889AF80030E1
:10187000002BC8D0BBF800309BB2B3F57A7F40D8BC
:10188000B3F5967F4FF4005373834FF0300322D9A2
:1018900083F3118840F6B8310820FFF791FC2368E4
:1018A000A34249D1002383F311884FF400533383BB
:1018B000302383F3118840F6B8310820FFF780FC0D
:1018C0002368A342CFD0E2689B6892689A42CAD24A
:1018D0002348FFF705F883F311884FF44871082077
:1018E000FFF76EFC2368A3422CD1002383F31188F9
:1018F0004FF400533383302383F311884FF448713E
:10190000DBE74FF400533383302383F311884FF424
:101910007A71D2E7E2689B6892689A4284D2D7E7EC
:10192000E2689B6892689A428DD2D1E7E2689B6830
:1019300092689A4297D2CBE7E2689B6892689A4293
:10194000B0D2C5E7E2689B6892689A42CDD2BFE701
:10195000840D0020700A00200008024000080020CA
:101960009C4600080000000000000000000000008D
:10197000F8B506464D4C456B0020B06020685227F4
:10198000A0429C46378440F08680002080F3118876
:10199000336BF76A1B683F68D6F828E0C3F800E0AD
:1019A000D9605A60736A3B604FF08042069BC7F86B
:1019B0000CC07B60576A302101E080F3118881F30D
:1019C0001188AB699B0702D42B689B052FD5536AFE
:1019D000DB1BB3F5FA7F0BD22368A342EDD0D3F81B
:1019E00008C0E3689B686345E7D23148FEF778FF9B
:1019F000306B0268136823F01F0313601368DC0761
:101A0000FCD4447AF16A40680A683D23A34003602D
:101A1000136823F01F0313601368D807FCD4487AB7
:101A20004A683D23834013604FF0FF30F8BD6B6878
:101A3000F169E26843F400736B602B6843F48073D0
:101A40002B6006F11C0300292CD1F2614FF4FA71CE
:101A500053630320FFF7B4FB0028E7D0346B226800
:101A6000136823F01F0313601368D907FCD4627A4C
:101A7000F16A64683D2393400A682360136823F089
:101A80001F0313601368DB07FCD44C7A4A683D23BC
:101A9000A3401360F8BD8368E06880689842BFF493
:101AA00074AFA2E70348FEF71BFF00BF700A0020D7
:101AB00078450008404700080000000000000000D2
:101AC00070B50578022D82B01AD10446302686F30F
:101AD0001188069E00964FF0030C0026866080F861
:101AE00000C0FFF745FF01300B4B08BF05252570EF
:101AF0001A689A4207D1002383F3118802B070BD9F
:101B00000648FEF7EDFED96893688A689A42F2D2D9
:101B10000348FEF7E5FE00BF700A0020F04500080C
:101B2000E046000800000000000000000000000087
:101B300030B51A4B87B01C688DF80F0000238DF864
:101B400017302578022D1DD1302282F31188012211
:101B50000321A36021700DF1170300920DF10F0115
:101B60002046FFF705FF01300D4B08BF0525257006
:101B70001A689A4209D1002383F311889DF817004F
:101B800007B030BD0748FEF7ABFED96893688A6896
:101B90009A42F0D20448FEF7A3FE00BFE00C0020FA
:101BA000700A0020F0450008E04600080000000030
:101BB00030B5174B85B01C688DF80C008DF80D10F2
:101BC0002578022D19D1302383F3118800230322B5
:101BD000A360227003A92A4600932046FFF7C8FE9F
:101BE00001300C4B08BF052525701A689A4207D1B1
:101BF000002383F3118805B030BD0748FEF770FE5F
:101C0000D96893688A689A42F2D20448FEF768FE5F
:101C1000E00C0020700A0020F0450008E0460008B3
:101C20002DE9F04340F0010185B00020FFF7C0FF2F
:101C30004FF08043234FD3F82480234D13260024F4
:101C400001E084F311884FF001090DF10F033868AA
:101C5000CDF800904A460DF10E018DF80E608DF81A
:101C60000F40FFF72DFF9DF80F3013F007031AD137
:101C70004FF0804241F28831526AA2EB08028A4258
:101C80001DD8302383F311880A210820FFF798FA22
:101C90002B68AB42D5D0EA689B6892689A42D0D252
:101CA0000A48FEF71DFE49460B20FFF781FF002181
:101CB0000846FFF77DFF484605B0BDE8F0831846AB
:101CC000FAE700BFE00C0020700A00209C460008E4
:101CD0002DE9F84F81460D469346302383F3118852
:101CE0007B4C206B10F8063C013300F8063C23685F
:101CF000A342A0F1240040F0CC80002787F3118894
:101D00004369DFF8D0A199454FF030082DD088F312
:101D10001188436A534500F09F8013F8062CFF2A70
:101D2000A3F1240600F0A680013203F8062C2368F4
:101D3000A34240F0938087F3118888F31188837F52
:101D4000002B00F09480013B8377C36903F0FF13FD
:101D50000F2B0DD02368A34240F08F8087F31188AA
:101D6000B6B1304643699945D1D15B48FEF7B8FD1D
:101D7000D0E9093213605A602368A34240F0908092
:101D800087F31188C36A002BEAD09847002EE8D168
:101D90004D44022305F8443CA5F1280380224F4915
:101DA00045F8283CA5F1240345E9056245E90933D6
:101DB00045F8582CA5F18403494A45F8401C0121F7
:101DC00045E90D6605F8436C45F8186C45F8806CDC
:101DD00045F8543C45F84C9C45F884BC45F8485CB3
:101DE00045F8504C05F8421C45F8642C3023A5F109
:101DF000600683F3118855F8503C2768596B45F805
:101E0000381CA5F13C0203F13000A74245F83C0C18
:101E10000A60E0685A634AD1836855F8582C00215B
:101E20009A4245F82C1C49D9FEF70AFF012305F810
:101E3000443C0146E660EFF309834269243B9A4241
:101E400024D83046FEF73CFA2368A3423AD1002357
:101E500083F31188BDE8F88F002668E79A68E36885
:101E60009B689342BFF467AF1E48FEF739FD1E48DA
:101E7000FEF736FD1D48FEF733FD9A68E3689B6860
:101E80009342BFF46BAF1A48FEF72AFD1948FEF7DC
:101E900027FDE2689B6892689A42BFF42EAFE3E7A1
:101EA0009A68E3689B689342BFF46AAFEBE7BA684D
:101EB00083689342B1D21048FEF712FD3046FEF718
:101EC000E7FEC1E7E2689B6892689A42BFD2DAE710
:101ED000700A0020A00A002088460008504500082B
:101EE000D10200086C46000878460008C845000882
:101EF0009C46000840450008D0460008000000004D
:101F00002DE9F04FC1B015469DF82C21DDF8289140
:101F1000DDF83081019218B10278D407844602D4EA
:101F200041B0BDE8F08F1C460B46427803F8012B08
:101F3000C26803928268C1F801200292BDF80C20A9
:101F40009A80DCF808600069DCF81C30DCF81820A6
:101F500001360F46DCF81410CCF8086030AE0FC61E
:101F6000DCF80C30D04AD149D14843F10003CCF819
:101F70000C30D04BCDE92823CF4BCDE92A13CF4BE2
:101F8000DCF82410CDE92C03CD4B2E9303F17453D0
:101F9000A3F52303A3F692432F930023DCF820003C
:101FA0002793DCF82820DCF82C300FC64FF4807320
:101FB00003EBC40326934FF0200A14AE0DF1900BEF
:101FC000CAF14002A24228BF224630AB294603EBA9
:101FD0000A009244A41A1544FEF70AFBBAF1400F16
:101FE00000F0CD80002CEBD1269A019B1C4602EB21
:101FF000C3039A42269300F26981C2F3C50B019A8A
:10200000AAB124ADCBF14002A24228BF224630AB98
:10201000494603EB0B009344A41A9144FEF7E8FAF7
:10202000BBF1400F00F0C880002CEBD1269B13F1D0
:102030001002269280F04681C3F3C5044FF00209D6
:102040000DF1900AC4F140054D4528BF4D4630AB17
:10205000414618192A462C44FEF7CAFA402CA9EB2F
:102060000509A84400F0C580B9F1000FEAD1269B0C
:1020700013F13802269280F01381C3F3C50AB846E3
:1020800007250DF19009CAF14004AC4228BF2C4647
:1020900030AB414603EB0A002246A244FEF7A8FA01
:1020A000BAF1400FA5EB0405A04400F0BF80002D5D
:1020B000E9D1269C29468023E5088DF85030C5F1EA
:1020C000770303F03F09472209F109080DF1510098
:1020D000FEF728FB09F580734FEAC8016B446118CD
:1020E000279A26914FEA142103F8A91C4FEA1441BC
:1020F00003F8AA1C4FEA122103F8AD1C4FEA124163
:1021000003F8A84C03F8AC2C4FEA146403F8AE1C97
:102110004FEA126128BF013203F8AB4C03F8AF1C41
:1021200028BF279205F03F05B146C5F1400444455C
:1021300028BF444630AB4946581922462544FEF78D
:1021400057FA402DA8EB0408A14400F08C80B8F1A8
:10215000000FEAD19DF8A3209DF8A2309DF8A100C0
:102160009DF8A010FA713B729DF8A7209DF8A6304B
:102170007872B972FA723B7341B0BDE8F08F26AA4B
:10218000334692F82B10197092F82A10597092F871
:102190002910997092F82810D97004339B4502F1E8
:1021A0000402EED1314626A8FEF71AFC4FF0000AD1
:1021B000002C7FF405AF17E726AA334692F82B00D0
:1021C00092F82A101870597092F8290092F8281085
:1021D0009870D97004339D4202F10402EED1314669
:1021E00026A8FEF7FDFB4FF0000B002C7FF40AAF92
:1021F0001CE726AA334692F82A10597092F82B4011
:1022000092F8290092F828101C709870D970043345
:102210009A4502F10402EED1314626A8FEF7E0FB12
:102220000024B9F1000F7FF40DAF20E726AA334652
:1022300092F82A10597092F82B4092F8290092F8DF
:1022400028101C709870D9700433994502F104026B
:10225000EED1314626A8FEF7C3FB4FF0000A002D51
:102260007FF411AF25E726AA04AB92F82A10597023
:1022700092F82B4092F8290092F828101C70987060
:10228000D97004339E4202F10402EED104A926A8BB
:10229000FEF7A6FB0025B8F1000F7FF446AF59E723
:1022A000279A01322792E8E667E6096A72F36E3CE4
:1022B0007F520E5185AE67BB3AF54FA58C68059BE2
:1022C000ABD9831F279A01322792B5E627990131AE
:1022D000279192E6000000000000000000000000CE
:1022E00040F2B9432DE9F043984298BF9E4C4FF01D
:1022F00080424FF00007526A9CBFA4FB0030C40824
:102300004FF47A7342F20F703946DBB0E2FB0301FF
:1023100042F210724FF0000388BF7824FDF7E6FF09
:10232000FF238DF82930DFF844C207900323ADF86E
:1023300020307823ADF82230BCE80F00ADF82440FF
:102340008DF826708DF827708DF82870CDF82A70DA
:10235000CDF82E708DF84270CDF83200CDF83610E1
:10236000CDF83A20CDF83E3007AD0FCD14AE0FC6F4
:102370000FCD0FC695E803007D4C46F8040B237B78
:1023800026F8021B6FF07B0E090C13F002008DF88B
:102390004DE08DF84E708DF84F70317048D1236943
:1023A000002B00F0D8801D7805F00105FD238DF885
:1023B00046304FF0270E0DF1770313F8016D5FFAE9
:1023C0008EFC002E40F0C2800EF1FF3EBEF1010FE8
:1023D000F3D1B046F44664238DF84B30BF238DF81B
:1023E00047C08DF84C30002D00F0B780A1798DF8F2
:1023F0004A1001238DF8483000238DF849304B1CDA
:10240000A371FD2304AA4FF00809137082F801C0DC
:102410000A2311710021D170117251729DF8481078
:10242000917064215171BF2191718421D1712BE090
:10243000FE238DF846301D4664234FF00E0E8DF8B6
:102440004B30BF238DF84C308DF847E04FF0040936
:102450004FF00D08F4460623A1798DF810504E1C5C
:10246000002504AA8DF84A108DF848508DF849507F
:10247000A67182F801C0002874D091706421D170D7
:10248000BF211171842151710DF11106B1444FF634
:10249000FF7701E016F801CF8CEA070C8CEA0C1CE0
:1024A0005FFA8CFC4FEA1C1080EA172040EA0C20EF
:1024B000B14580EACC07EDD108F10D0611A911FA5A
:1024C00086F60DF1500C1CF8011B794081EA0111D0
:1024D000C9B2080980EA172080EA012080EAC10118
:1024E000B44508B28FB2EED180F0550686EA0616E2
:1024F000F6B2300980EA172080EA062014A980EAA3
:10250000C60601F80E600DF151009DF84710C6F3A4
:1025100007274754ADF844602DB911A8FEF778FF9E
:102520005BB0BDE8F08314A9206900919DF84710C5
:10253000019114AC214402910DF5AD71FFF7E0FC5F
:1025400011A8FEF765FF5BB0BDE8F0830CF1FF3822
:102550001FFA88F83FE7054628E74FF00809FD25F0
:102560000A2379E7054654E7CDCCCCCC004A0008D5
:102570006C0D0020000000000000000000000000C2
:102580002DE98048314D324FDFF8C8B085B04FF0AB
:1025900080484FF0130AD8F824900024012601E067
:1025A00084F3118803AB3868009601220DF10A010B
:1025B0008DF80AA08DF80C40FFF782FA9DF80C30D8
:1025C0005B0719D1D8F8243041F28832A3EB090314
:1025D000934237D8302383F311880A210820FEF76D
:1025E000EFFD2B68AB42DBD0EA689B6892689A42A9
:1025F000D6D21948FEF774F94FF002091E22386846
:102600008DF80B2003AB01220DF10B01CDF80090EA
:10261000ADF80C40FFF754FABDF80C1000940B20F5
:1026200049BA8CB28DF80C00002338688DF80D6023
:102630004A4603A9FFF744FA2046ABF80040FFF7EB
:102640004FFEA8E741F6FE74F6E700BF700A0020CF
:10265000E00C0020000800209C460008000000005C
:1026600070B57249724CD4B00025CDE908510322EF
:1026700008AB8DF8282093E807000EAE03C694F847
:102680000CC08DF835501CF0020C32708DF83650AD
:102690008DF8375033D12369002B00F0AA801B78C6
:1026A0006422FD2009218DF83320DB074FF0BF02A3
:1026B0008DF82E008DF82F108DF8342040F1A58074
:1026C000A3798DF815100125591905AA8DF831C087
:1026D0008DF832308DF83050A171107013710023D5
:1026E000D370D371137253729DF83030937064239A
:1026F0005371BF2393714FF0080E0A2321E0A37991
:102700008DF832308DF816300133A37109238DF81E
:102710002F308DF815306423FE218DF833308DF87D
:102720001730BF2305AA8DF8343013718DF82E10A1
:102730008DF830508DF831504FF0040E0623117093
:1027400055710DF11506B64409214FF6FF7C01E0E5
:1027500016F8011F81EA0C0181EA0111C9B20809CA
:1027600080EA1C2040EA0120B64580EAC10CEFD186
:102770000EAE0DF1410E16F8011B81EA0C0181EA43
:102780000111C9B2080980EA1C2080EA012080EA10
:10279000C101764508B21FFA81FCECD180F0320EFF
:1027A0008EEA0E1E5FFA8EFE4FEA1E1080EA1C2093
:1027B00080EA0E2080EACE0E8DF841E0ADF82CE0E4
:1027C000CEF3072E8DF842E025B90BA8FEF720FEC8
:1027D00054B070BD0EA900910296206909240DF530
:1027E000A1710194FFF78CFB0BA8FEF711FE54B00A
:1027F00070BDFD2209238DF82E208DF82F30642224
:10280000BF238DF833208DF83430A3798DF8323022
:1028100005AA591CA171FD210025117009218DF80F
:1028200030508DF83150517058E700BF1208000445
:102830006C0D0020000000000000000000000000FF
:10284000704700BF00000000000000000000000012
:10285000704700BF00000000000000000000000002
:10286000FEE700BF000000000000000000000000C4
:10287000F8B5154D154F16491648174A05F170045D
:1028800081420DD9043A034652F8046F43F8046BB1
:102890009942F9D84B1E1B1A23F003030433184442
:1028A000874207D97A1E121A22F00302043200214D
:1028B000FDF738FFA54205D0D5E90420D5E9061774
:1028C0001035DDE7F8BD00BF58490008E0140020CE
:1028D000E0140020E01400201C4A00080000000062
:1028E00008B51048FEF77CFB302383F311880E4BAC
:1028F0005B6813F4006302D183F3118808BDEFF322
:102900000983203B4FF08072DA6183F30988074A1C
:102910001168D2688968926891428CBF044A054A5E
:102920009A6108BD5808002000ED00E0700A002000
:10293000E3020008E60200080000000000000000BA
:1029400008B51048FEF74CFB302383F311880E4B7B
:102950005B6813F4006302D183F3118808BDEFF3C1
:102960000983203B4FF08072DA6183F30988074ABC
:102970001168D2688968926891428CBF044A054AFE
:102980009A6108BDD808002000ED00E0700A002020
:10299000E3020008E602000800000000000000005A
:1029A0002DE9F0474FF08049D9F81030D9F80C20C4
:1029B0001340DAB2D2439B07C9F810200BD430235E
:1029C00083F31188404B5B6813F4006352D183F3A7
:1029D0001188BDE8F087302383F311883B4E4FF018
:1029E000000A06F110074FF030083469D9F82400C6
:1029F000F369A568C21AAA4250D3D4E900211D4444
:102A0000F5610A605160C4F800A03369BB4208BF99
:102A1000C9F80CA08AF31188D4E9033120469847FD
:102A200088F311886369002BDFD0D9F824104A1B82
:102A300093421CD33269BA423FD091688B4209D984
:102A4000A24202D136E0944234D012685B1A9168F7
:102A50008B42F8D8A36091682260CB1A51686160FC
:102A60000C60C2E901434FF0FF33B361BBE7184884
:102A7000FDF736FFEFF30983203B4FF08072DA61F8
:102A800083F30988114A1168D26889689268914273
:102A90008CBF104A104A9A61BDE8F087BC4205D04D
:102AA0002B44191AF061A160FEF752FA002383F358
:102AB000118884E70948FDF713FF2B445A1A204672
:102AC000FEF7FEF9F2E700BF00ED00E0700A00201B
:102AD00038460008E3020008E6020008084700083C
:102AE00008B5144B14481968426801F03D0199601B
:102AF0000AB180689047302383F311880F4B5B68DD
:102B000013F4006302D183F3118808BDEFF3098346
:102B1000203B4FF08072DA6183F30988084A11681C
:102B2000D2688968926891428CBF064A064A9A61C7
:102B300008BD00BF00600240E40C002000ED00E092
:102B4000700A0020E3020008E6020008000000000E
:102B5000154B16481968C268890901F03D0110B586
:102B60008C019C600AB100699047302383F311887F
:102B70000F4B5B6813F4006302D183F3118810BD1F
:102B8000EFF30983203B4FF08072DA6183F3098809
:102B9000084A1168D2688968926891428CBF064AD7
:102BA000064A9A6110BD00BF00600240E40C00209C
:102BB00000ED00E0700A0020E3020008E6020008D1
:102BC000154B164819684269090C01F03D0110B512
:102BD0000C049C600AB180699047302383F311880C
:102BE0000F4B5B6813F4006302D183F3118810BDAF
:102BF000EFF30983203B4FF08072DA6183F3098899
:102C0000084A1168D2688968926891428CBF064A66
:102C1000064A9A6110BD00BF00600240E40C00202B
:102C200000ED00E0700A0020E3020008E602000860
:102C3000154B16481968C269890D01F03D0110B5A0
:102C40008C059C600AB1006A9047302383F3118899
:102C50000F4B5B6813F4006302D183F3118810BD3E
:102C6000EFF30983203B4FF08072DA6183F3098828
:102C7000084A1168D2688968926891428CBF064AF6
:102C8000064A9A6110BD00BF00600240E40C0020BB
:102C900000ED00E0700A0020E3020008E6020008F0
:102CA00008B5144B14485968426A01F03D01D960D7
:102CB0000AB1806A9047302383F311880F4B5B6819
:102CC00013F4006302D183F3118808BDEFF3098385
:102CD000203B4FF08072DA6183F30988084A11685B
:102CE000D2688968926891428CBF064A064A9A6106
:102CF00008BD00BF00600240E40C002000ED00E0D1
:102D0000700A0020E3020008E6020008000000004C
:102D1000154B16485968C26A890901F03D0110B582
:102D20008C01DC600AB1006B9047302383F311887B
:102D30000F4B5B6813F4006302D183F3118810BD5D
:102D4000EFF30983203B4FF08072DA6183F3098847
:102D5000084A1168D2688968926891428CBF064A15
:102D6000064A9A6110BD00BF00600240E40C0020DA
:102D700000ED00E0700A0020E3020008E60200080F
:102D8000154B16485968426B090C01F03D0110B50E
:102D90000C04DC600AB1806B9047302383F3118808
:102DA0000F4B5B6813F4006302D183F3118810BDED
:102DB000EFF30983203B4FF08072DA6183F30988D7
:102DC000084A1168D2688968926891428CBF064AA5
:102DD000064A9A6110BD00BF00600240E40C00206A
:102DE00000ED00E0700A0020E3020008E60200089F
:102DF000154B16485968C26B890D01F03D0110B59D
:102E00008C05DC600AB1006C9047302383F3118895
:102E10000F4B5B6813F4006302D183F3118810BD7C
:102E2000EFF30983203B4FF08072DA6183F3098866
:102E3000084A1168D2688968926891428CBF064A34
:102E4000064A9A6110BD00BF00600240E40C0020F9
:102E500000ED00E0700A0020E3020008E60200082E
:102E600008B5144B14481968426C01F03D01996093
:102E70000AB1806C9047302383F311880F4B5B6855
:102E800013F4006302D183F3118808BDEFF30983C3
:102E9000203B4FF08072DA6183F30988084A116899
:102EA000D2688968926891428CBF064A064A9A6144
:102EB00008BD00BF00640240E40C002000ED00E00B
:102EC000700A0020E3020008E6020008000000008B
:102ED000154B16481968C26C890901F03D0110B5FF
:102EE0008C019C600AB1006D9047302383F31188F8
:102EF0000F4B5B6813F4006302D183F3118810BD9C
:102F0000EFF30983203B4FF08072DA6183F3098885
:102F1000084A1168D2688968926891428CBF064A53
:102F2000064A9A6110BD00BF00640240E40C002014
:102F300000ED00E0700A0020E3020008E60200084D
:102F4000154B16481968426D090C01F03D0110B58A
:102F50000C049C600AB1806D9047302383F3118884
:102F60000F4B5B6813F4006302D183F3118810BD2B
:102F7000EFF30983203B4FF08072DA6183F3098815
:102F8000084A1168D2688968926891428CBF064AE3
:102F9000064A9A6110BD00BF00640240E40C0020A4
:102FA00000ED00E0700A0020E3020008E6020008DD
:102FB000154B16481968C26D890D01F03D0110B519
:102FC0008C059C600AB1006E9047302383F3118812
:102FD0000F4B5B6813F4006302D183F3118810BDBB
:102FE000EFF30983203B4FF08072DA6183F30988A5
:102FF000084A1168D2688968926891428CBF064A73
:10300000064A9A6110BD00BF00640240E40C002033
:1030100000ED00E0700A0020E3020008E60200086C
:1030200008B5144B14485968426E01F03D01D9604F
:103030000AB1806E9047302383F311880F4B5B6891
:1030400013F4006302D183F3118808BDEFF3098301
:10305000203B4FF08072DA6183F30988084A1168D7
:10306000D2688968926891428CBF064A064A9A6182
:1030700008BD00BF00640240E40C002000ED00E049
:10308000700A0020E3020008E602000800000000C9
:10309000154B16485968C26E890901F03D0110B5FB
:1030A0008C01DC600AB1006F9047302383F31188F4
:1030B0000F4B5B6813F4006302D183F3118810BDDA
:1030C000EFF30983203B4FF08072DA6183F30988C4
:1030D000084A1168D2688968926891428CBF064A92
:1030E000064A9A6110BD00BF00640240E40C002053
:1030F00000ED00E0700A0020E3020008E60200088C
:10310000154B16485968426F090C01F03D0110B586
:103110000C04DC600AB1806F9047302383F3118880
:103120000F4B5B6813F4006302D183F3118810BD69
:10313000EFF30983203B4FF08072DA6183F3098853
:10314000084A1168D2688968926891428CBF064A21
:10315000064A9A6110BD00BF00640240E40C0020E2
:1031600000ED00E0700A0020E3020008E60200081B
:10317000154B16485968C26F890D01F03D0110B515
:103180008C05DC6012B1D0F880009047302383F3C7
:1031900011880F4B5B6813F4006302D183F311882D
:1031A00010BDEFF30983203B4FF08072DA6183F3A7
:1031B0000988084A1168D2688968926891428CBF70
:1031C000054A064A9A6110BD00640240E40C0020E2
:1031D00000ED00E0700A0020E3020008E6020008AB
:1031E0006148624A70B5446BA369656945EA034367
:1031F00003F0FF13934234D8B3F5403F22D9A3F52F
:103200004033013B102B0ED8DFE803F01F7B0D0D80
:103210000D0D0D090D0D0D0D0D0D0D0D5300038C34
:10322000C3F34703236115F00A0F18BFA3693023C6
:1032300083F311884E4B5B6813F4006326D183F34C
:10324000118870BDB3F1011FEDD1038C1A0AE9D0CA
:1032500002F0060203F00103134343F0F00323617D
:10326000E1E7444A934274D002329342DBD1C36A0D
:1032700022691B685E68002E59D0028C236842F0D8
:10328000010243F4A06302842360D0E7EFF30983D3
:10329000203B4FF08072DA6183F30988364A116867
:1032A000D2688968926891428CBF344A344A9A61E4
:1032B00070BD066B4FF40042226000233268236029
:1032C00063606361136823F01F0313601368D907F9
:1032D000FCD4C16A707A72683D23834013600A6827
:1032E000136823F01F0313601368DB07FCD4487ACC
:1032F0004A683D2383401360636823F4007363606E
:1033000091E76268C16A22F400720B6862601A6811
:1033100042F001021A60626842F4805262605B68A7
:10332000012B80D8236823F4806323607BE76368E4
:1033300023F400736360236843F400732360302335
:1033400083F3118831461C30FDF762FD86F3118846
:1033500069E76368026B23F40073126863601368A3
:1033600043F0010313605EE7200800201100030012
:1033700000ED00E082000700700A0020E302000870
:10338000E60200080000000000000000000000004D
:10339000404970B54C6B0E6B6569326805F45F434C
:1033A000DB436361136823F01F03A8B21360136843
:1033B000DB07FCD496F809C07268CE6A3D2303FA95
:1033C0000CF313603268136823F01F031360136853
:1033D00013F00103FBD196F809C076683D2202FA8A
:1033E0000CF23260C60548BF012382058B6044BFE2
:1033F00043F002038B6046050AD5626822F400722E
:103400006260226843F0040342F4007222608B6021
:10341000020544BF43F008038B60460444BF43F0F9
:1034200020038B60C40413D543F0100328048B6081
:1034300002D543F040038B60302383F31188164894
:103440006FF00101FDF7E4FC002383F3118803E032
:103450002A04EED4002BEFD1302383F311880F4BD5
:103460005B6813F4006302D183F3118870BDEFF33E
:103470000983203B4FF08072DA6183F30988084AA0
:103480001168D2688968926891428CBF054A064AE1
:103490009A6170BD200800203C08002000ED00E08B
:1034A000700A0020E3020008E602000800000000A5
:1034B000674B68491A6942F01F022DE9F04F1A6103
:1034C0001869654E654DDFF89881DFF898A1DFF83F
:1034D000989120F01F0018611869186B40F01F00C8
:1034E0001863186D40F01F00186500226FF48A60A1
:1034F0001C6D4A6088605D48C8604FF6DF704861A7
:103500004FF4EE4008624FF42A20486258480860A1
:10351000584C5948726001F5E0514FF0FF3C4FF6AE
:10352000FF774FF0553E4FF0800BC6F808C0C6F845
:103530000CE0776132627262C6F800B06A60C5F86A
:1035400008C0C5F80CA06F612A626A622A606260D6
:10355000C4F808C0C4F80CE06761226262622260AD
:103560004260C0F808C0C0F80CE0476102624262E5
:1035700002604A604FF08050C1F808C0C1F80C905A
:103580004F610A624A620A604FF400421864C8F848
:1035900000201A6842F001021A601A689407FCD5EC
:1035A00099682B4A21F003019960936813F00C038A
:1035B000FBD11068264900F0F90010609360536F4A
:1035C00043F0010353674B6F9807FCD52B4B4B60BF
:1035D0000B68234A43F080730B6053685904FCD591
:1035E0001B4A13689B01FCD5254B2648906003219C
:1035F000C2F88C101A68244B9A421ED0234B40F21A
:1036000002721A60214A136803F00F03022BFAD1E9
:103610000F4A936843F002039360936803F00C032E
:10362000082BFAD1536C43F480435364536E43F434
:1036300080435366536EBDE8F08F154A154B1268F0
:103640009A42DBD1114B4FF481721A60DAE700BF66
:10365000003802400000024000040240000802401E
:10366000007000405555550150555555055115648C
:10367000A004802A000C02400010024010540107F0
:10368000002004E00010883811640020003C024053
:1036900000ED00E041C20F4100000000000000000A
:1036A0000D4B10B51C68D86822681A600121536060
:1036B0002177DC60FDF7C4FAEFF309834269243B0C
:1036C0009A4205D801462046BDE81040FCF7F8BDF7
:1036D0000248FDF705F900BF700A002040450008C8
:1036E00008B5302383F31188104BDC68A36B60634B
:1036F00004F138059D4207D1A37F73B10F20FDF778
:103700002FFD0B48FDF7ECF81A68A2631846FDF789
:10371000BFFAA36BAB42EFD0F6E7E36A002BEDD123
:10372000D4E9093213605A60E8E700BF700A00204C
:103730006C470008000000000000000000000000CE
:10374000EFF30983203383F30988002383F311887F
:10375000704700BF000000000000000000000000F3
:10376000234B24481A6962F01F022DE980481A6130
:103770001A6902F01F021A614FF0FF341A695A6980
:103780005C6100215A6959615A691A6A62F0805273
:103790001A621A6A02F080521A621A6A5A6A5C62E3
:1037A0005A6A59625A6A1A6C42F080521A641A6E46
:1037B00042F080521A661A6E026842F48072026009
:1037C0001A6F02F44072B2F5007F8FB003D04FF44D
:1037D00080321A6719670748074A4168074B21F486
:1037E0000071002441600649146003F1C0000BE041
:1037F0000038024000700040E40C002084470008BC
:103800001060024053F80C1C0C600C33984202F11B
:10381000080242F8044CF5D1C349C44BC44AC54E12
:10382000C54FDFF818834FF0FF358D60CD607021F4
:103830009560D56083F81C134FF08051C3F8801158
:10384000C0221960202183F82523C6E90B44746047
:103850007461F461C3F88411596083F8262340220F
:10386000C3F884215A6006F10C034FF00109C6E940
:103870000333B349B34B7363384686F80090FDF7C2
:10388000AFF9B14B7B6703F1454303F52D43404648
:10389000AE49BB67FDF7A4F9AD4BAE491A6CDFF832
:1038A000B88242EA09021A641A6E42EA09021A66EA
:1038B0001B6E8B6843EA09038B604FF0804342F232
:1038C000CF029A62DD6200229C615C63DC605C6016
:1038D000C3F81490C3F800900023CDE90C239F494E
:1038E0009F4B88F80090CDE90A44C8E90144C0E93B
:1038F0001D13CDE90854042508A8FDF729F8FDF7A4
:103900002FF8013DF8D197489749984C984A994B20
:103910005060C4E90001091A9160974919629963DE
:1039200002F11401C2E905110421D9615963089912
:10393000C8F808109149D561C2E90355116003F137
:1039400010021A6114229A6103F124025A6203F1EF
:1039500028029A621C221A6303F13C02DA63D8F847
:1039600004009D6003F140021A6403F14402C3E9BC
:1039700000335D61DD625A64002840F0E684804CCB
:10398000804BC8F80440A5632364302080F311887D
:1039900062B6C4E90145C4E938557B4BE563E5618E
:1039A000D9687A4AC4F8A8404FF6FF0C01EA0C0126
:1039B0000A43C4E93155DA60D3F8FC20744942F077
:1039C0008072C3F8FC200A684FF0200C42F001021C
:1039D0000A6083F81FC083F822004FF080436D49CE
:1039E0005B6A039304F11003C4E904338023C4F831
:1039F000A030C4F8E83004EB030B674BC4F8AC30DC
:103A0000664BC4F8B030664BC4F8B8304FF0FF33A3
:103A1000039AA36104F1D00304F144004FF00209BA
:103A200004F1D40EC4F8D0302B46C4F8D4E024609E
:103A3000C4F82090C4E90A2300F15403E36001F5BF
:103A40008073E36500F13803E367564B636601F169
:103A5000DC032365544BC1F8DC30544BC1F8FC3017
:103A6000A0F114034FF0010C04F1680AC4F8C0304F
:103A7000A36600F178032363E366C4E91C55C4E937
:103A80002355C4E920BBC4F8EC50C4F8D8E0A4F82E
:103A9000B4C084F8B6C0A165C1F8E050C4F84CC009
:103AA0006465C4F894C084F862C0A4F86090C4F857
:103AB000BCA0C4F834A0FDF7EBF8236888F80090A8
:103AC000A34240F04584002383F31188DFF8E080AF
:103AD0004FF4005A012251464046FCF781FE03256F
:103AE000A8F818A0D3464FF03009A8F81AB089F307
:103AF000118840F2DC510820FDF762FB2368A342E5
:103B000040F0C381002383F31188A8F818A089F33B
:103B1000118840F2DC510820FDF752FB2368A342D4
:103B200040F0AC8146E000BF0060024000E100E0F0
:103B3000006402402008002058080020D808002017
:103B4000C10800080054004000100140D1080008DE
:103B500000380240002004E0B00C00200044004087
:103B600080DE8002E014002000800120A80C0020EC
:103B7000BC0C0020600C0020B1090008610E000898
:103B8000700A00203848000800ED00E00003FA0544
:103B9000001000E0600B002000040020000800205E
:103BA000584500086045000841090008D102000896
:103BB00000080240002383F31188013D95D1B848E5
:103BC00040F282324FF40071FCF70AFE40F282327A
:103BD0004FF48061FCF704FE302383F311883B7AB5
:103BE0005A1E012A00F2BD83012B00F0F180BB6F49
:103BF00003F5E122AB4BA3FB02327B6FD20C9A6040
:103C000040221A6101225A6142F22C12DA6000222B
:103C10001A601A685B682368FF2287F87C20A34239
:103C20004FF002023A7240F01A844FF0000989F313
:103C300011889D4B9D481F6040F226224FF48071F1
:103C4000FCF7CEFD40F226224FF40071FCF7C8FDD0
:103C5000302383F3118896F8008008F1FF33012B9D
:103C600000F2F683924B776B7360B8F1010F00F0AE
:103C7000BA80F36AD6F804C01868336B1968736B9E
:103C800007F1100282608A604FF400423A604FF4FC
:103C9000106100223A60796058689CF808E04FF69D
:103CA000C0710840DCF804105860586840F02A00E1
:103CB0005860804881426DDCBEF1010F40F0EC801D
:103CC0007D48490090FBF1F201FB1200002840F012
:103CD000E38091B2032940F2DF802B22B1F5805FAF
:103CE0001A62C1F30B0280F0D780DA619CF80010F1
:103CF0001A68022992B200F02283032900F01C8383
:103D0000012900F015831A603B6843F001033B6012
:103D1000022333702368A34240F0EC834FF0000885
:103D200088F31188654FC0203E60FDF701FFEE2843
:103D300000F0DC80624D85F80080624A62484FF4F2
:103D40000871FDF7C5FF2B78002B40F070814FF014
:103D5000804542F20F786E6A302702E0002383F339
:103D600011886B6A9B1B434502D9FEF779FC6E6A8A
:103D700087F311884FF4FA710820FDF721FA2368C0
:103D8000A342EBD0E2689B6892689A42E6D24F4821
:103D9000FCF7A6FD4E488142A7DCAEF10202012AE3
:103DA0007AD8BEF1020F00F099834348192202FB32
:103DB00001F1B0FBF1F201FB120100296CD192B2CA
:103DC0004FF480410A430D2142F4004219628CE70E
:103DD000404B5A6C42F010025A645A6E42F0100284
:103DE0005A665B6E03E74846DFF8E8903A49D9F82F
:103DF000203043F40013C9F82030D9F8203023F4E0
:103E00000013C9F82030D9F8203040F2564240F271
:103E10001643C6E90932FCF78BFEF062002800F079
:103E20005A832E490620FCF783FE3063002800F0F9
:103E30005283D9F840302A4A43F40013C9F840307D
:103E4000D9F8603043F40013C9F86030D9F8603015
:103E5000736A13437362B36A1343B362214B5022F4
:103E60004FF0004183F81F23C3F88011196083F8D5
:103E70002023C3F88481C3F80480FAE6E2689B68D3
:103E800092689A42BFF496AE81E7E2689B689268B6
:103E90009A42BFF437AE7AE71348FCF721FD00BF22
:103EA00000000240C5B3A291680D0020000402404A
:103EB0004C480008A086010080DE8002E00C002053
:103EC000840D0020F1170008A00D00209C4600087A
:103ED000801A060000380240E10C000801090008C1
:103EE0000000030200E100E0184600084146882077
:103EF000FDF75EFE01218020FDF75AFE0121FF2023
:103F0000FDF756FE41464046FDF752FE9120FDF773
:103F10000FFEDFF82891012189F800004046FDF7E7
:103F200047FE4146FF20FDF743FE41468020FDF756
:103F30003FFE6020FDF7FCFD40F01201C9B2602099
:103F4000FDF736FE4426CDF800804346032238684C
:103F50008DF8206008A920268DF822608DF8218038
:103F6000FDF7AEFDFF210120FDF722FE012180209B
:103F7000FDF71EFE0121FF20FDF71AFE41464046D7
:103F8000FDF716FE0621FF20FDF712FE8320FDF748
:103F9000CFFD40F00401C9B28320FDF709FE0721DF
:103FA000FF20FDF705FE01218120FDF701FE012123
:103FB0008020FDF7FDFD94206B21FDF7F9FD4146C2
:103FC0008320FDF7F5FD4FF080434FF0830AD3F8CF
:103FD00024B0012601E088F31188009608AB386808
:103FE0008DF818A0012206A98DF82080FDF768FD44
:103FF0009DF82030002B40F0B7814FF0804341F214
:1040000088325B6AA3EB0B03934200F28D8130236D
:1040100083F311880A210820FDF7D2F82368A34210
:10402000D9D0E2689B6892689A42D4D2AFE6044A3B
:1040300004484FF4A461FDF74BFE88E6850D00208F
:1040400081250008C00F00200026BDF81C3006980E
:1040500000960722ADF8253008A93346CDF8210097
:104060003868B0278DF82070FDF72AFD0121FF2068
:10407000FDF79EFD31463046FDF79AFD3146FF20A3
:10408000FDF796FD31460920FDF792FD31461020DF
:10409000FDF78EFD31461120FDF78AFD0121242018
:1040A000FDF786FDFF212520FDF782FD31467520B5
:1040B000FDF77EFD0121FF20FDF77AFD2C214E202A
:1040C000FDF776FD31464820FDF772FD2021284698
:1040D000FDF76EFD3146FF20FDF76AFD09212846F8
:1040E000FDF766FD31465420FDF762FD04213120C5
:1040F000FDF75EFD03213220FDF75AFD83214020AC
:10410000FDF756FD25214620FDF752FD3146602082
:10411000FDF74EFD31462720FDF74AFD06215020D0
:10412000FDF746FD31465120FDF742FD9621522014
:10413000FDF73EFD08215620FDF73AFD29465720A0
:10414000FDF736FD31466120FDF732FD3146622034
:10415000FDF72EFD31466420FDF72AFD314665202E
:10416000FDF726FDA0216620FDF722FD0121FF209D
:10417000FDF71EFD32212220FDF71AFD14214720F4
:10418000FDF716FD4920FF21FDF712FD31464A20BB
:10419000FDF70EFD3146FF20FDF70AFD7A200A21CA
:1041A000FDF706FD31467B20FDF702FD2121782039
:1041B000FDF7FEFC0121FF20FDF7FAFC232034214E
:1041C000FDF7F6FC31464220FDF7F2FCFF214420CA
:1041D000FDF7EEFC26214520FDF7EAFC05214620EF
:1041E000FDF7E6FC40210846FDF7E2FC06210E2023
:1041F000FDF7DEFC1A212020FDF7DAFC43204021E8
:10420000FDF7D6FC3146FF20FDF7D2FC0321342018
:10421000FDF7CEFC44213520FDF7CAFC0121FF202B
:10422000FDF7C6FC04213120FDF7C2FC09214B201B
:10423000FDF7BEFC05214C20FDF7BAFC4D20042102
:10424000FDF7B6FC3146FF20FDF7B2FC31464420B5
:10425000FDF7AEFC20214520FDF7AAFC08214720F0
:10426000FDF7A6FC48202821FDF7A2FC3146672077
:10427000FDF79EFC04217020FDF79AFC01217120BE
:10428000FDF796FC7220FE21FDF792FC3146762068
:10429000FDF78EFC31467720FDF78AFC0121FF20D7
:1042A000FDF786FC0D200121FDF782FC3146FF2041
:1042B000FDF77EFC01218020FDF77AFCF82101202A
:1042C000FDF776FC0121FF20FDF772FC01218E2015
:1042D000FDF76EFC30460121FDF76AFC3146FF20F8
:1042E000FDF766FC31468020FDF762FC04210A20C0
:1042F000FDF75EFC8420FDF71BFC00F0EF0184203D
:10430000FDF756FC01210B20FDF752FCE8210120AE
:10431000FDF74EFC01210846FDF74AFC4020FDF761
:104320007FFC002840F0A480784D00232B7004E52A
:1043300022F00A0292B2E6E442F00A02E3E422F03A
:10434000080292B242F00202DDE47148FCF7C8FABA
:10435000E2689B6892689A42BFF4B5AB6D48FCF77F
:10436000BFFA6D48FCF7BCFA01218320FDF720FC61
:104370009220FDF7DDFB002180468120FDF718FC2F
:104380000621FF20FDF714FC8320FDF7D1FB00F090
:10439000FB018320FDF70CFC0121FF20FDF708FC49
:1043A00001210020FDF704FC0021FF20FDF700FCA7
:1043B00000218020FDF7FCFB062300934FF0B00C9A
:1043C00006AB012238688DF817C00DF11701FDF713
:1043D00077FB0121FF20FDF7EBFB00214F20FDF7CC
:1043E000E7FB2C214E20FDF7E3FB0021FF20FDF72A
:1043F000DFFBC8F3C716B620B421FDF7D9FB002EAA
:1044000008F07F0818BF0C2600204FF0010C0DE0CB
:10441000804514D013F8203C43FA01F1CB0744BF88
:104420000130C0B20135302D3FF40EAEEAB2C5F313
:10443000C4033833B24205F007016B44E8D213F8E5
:10444000202C0CFA01F122EA010103F8201CE9E713
:10445000B8F1050F57D1314B776B736009E4E2680F
:104460009B6892689A42BFF4E0AB2D48FCF738FA9B
:1044700001200221FDF79CFB3046FDF7D1FB00280F
:104480003FF452AF0127214DE8210120FDF790FBB9
:10449000394680202F70FDF78BFB3946FF20FDF752
:1044A00087FB31463046FDF783FB99F800109120D9
:1044B000FDF77EFB39463046FDF77AFB3146FF209B
:1044C000FDF776FB31468020FDF772FB0221304676
:1044D000FDF76EFB31E41348FCF702FA01EB4100F3
:1044E0001149B1FBF0F200FB121100297FF4D4ACAA
:1044F00092B267E4E2689B6892689A42BFF40EAC9D
:104500000A48FCF7EDF90A48FCF7EAF9840D0020A7
:10451000B04500082C460008B84600084C48000882
:104520000C460008C046000880DE8002E046000815
:04453000FC4600083D
:10453400444D41206661696C7572650073746163F2
:104544006B206F766572666C6F7700006E6F6E61BC
:104554006D6500006D61696E0000000069646C6542
:1045640000000000633000006368537973556E6C7B
:104574006F636B006368537973556E6C6F636B0084
:10458400636853797347657449646C6554687265EC
:104594006164580063685F7071756575655F696E05
:1045A400736572745F616865616400006368496E75
:1045B4007374616E63654F626A656374496E69748E
:1045C4000000000063685265674E65787454687231
:1045D400656164006368537973556E6C6F636B0037
:1045E4007374536574416C61726D00006932634D7C
:1045F40061737465725472616E736D697454696D1C
:10460400656F7574000000006368537973556E6CB0
:104614006F636B006932635F6C6C645F7365745FB6
:10462400636C6F636B0000006368537973556E6C41
:104634006F636B0063685654446F5469636B49003D
:104644005F5F7363685F72656164795F6168656108
:10465400640000006368546864446F446571756560
:1046640075654E65787449006368537973556E6C4B
:104674006F636B00636854686452656C656173654D
:104684000000000063685468644372656174655394
:1046940074617469630000006368537973556E6CC8
:1046A4006F636B0073745374617274416C61726DE7
:1046B4000000000073645374617274006932635FB4
:1046C4006C6C645F7374617274000000636853639C
:1046D4006857616B65757053000000006368537917
:1046E40073556E6C6F636B006368536368476F53F5
:1046F4006C656570530000006932635374617274B1
:104704000000000063685F646C6973745F696E73B2
:10471400657274006368546864526573756D6549A5
:104724000000000063685F7071756575655F696E90
:10473400736572745F626568696E64006368546867
:104744006453757370656E6454696D656F757453E5
:10475400000000005F5F7363685F72656164795F86
:10476400626568696E6400006368546864457869CA
:104774007453000010600240086002400000000B07
:1047840028600240086002400006010C40600240BC
:10479400086002400010020D5860024008600240A8
:1047A4000016030E706002400C6002400000040F0B
:1047B400886002400C60024000060510A0600240C0
:1047C4000C60024000100611B86002400C60024008
:1047D4000016072F106402400864024000000838E5
:1047E400286402400864024000060939406402401B
:1047F4000864024000100A3A586402400864024007
:1048040000160B3B706402400C64024000000C3C38
:10481400886402400C64024000060D44A064024017
:104824000C64024000100E45B86402400C6402405F
:1048340000160F4668450008000400200008002008
:10484400600B0020600C002001000000A086010025
:1048540001000000982F8A4291443771CFFBC0B504
:10486400A5DBB5E95BC25639F111F159A4823F9237
:10487400D55E1CAB98AA07D8015B8312BE85312490
:10488400C37D0C55745DBE72FEB1DE80A706DC9B51
:1048940074F19BC1C1699BE48647BEEFC69DC10FFD
:1048A400CCA10C246F2CE92DAA84744ADCA9B05C39
:1048B400DA88F97652513E986DC631A8C82703B0FC
:1048C400C77F59BFF30BE0C64791A7D55163CA060A
:1048D40067292914850AB72738211B2EFC6D2C4D16
:1048E400130D385354730A65BB0A6A762EC9C28104
:1048F400852C7292A1E8BFA24B661AA8708B4BC29A
:10490400A3516CC719E892D1240699D685350EF4C3
:1049140070A06A1016C1A419086C371E4C7748277A
:10492400B5BCB034B30C1C394AAAD84E4FCA9C5BF0
:10493400F36F2E68EE828F746F63A5781478C88441
:104944000802C78CFAFFBE90EB6C50A4F7A3F9BE23
:10495400F27871C61C4A0008E0140020E01400201C
:10496400E01400201C4A00080000000000000000C1
:10497400000000001C4A00080000000000000000C5
:10498400000000001C4A00080000000000000000B5
:10499400000000001C4A00080000000000000000A5
:1049A400000000001C4A0008000000000000000095
:1049B400000000001C4A0008000000000000000085
:1049C400000000001C4A0008000000000000000075
:1049D4000000000000000000F11300081117000897
:1049E400D1170008D1150008E1170008E1150008E7
:1049F4000114000821170008D10700080000000076
:0C4A0400000000000000000000000000A6
:084A10000CB9FF7F010000005A
:044A1800FE1F00007D
:04000005080002B934
:00000001FF
