:020000040800F2
:1000000000040020B9020008BB020008BB0200087F
:10001000BB020008BB020008BB020008BB020008CC
:10002000BB020008BB020008BB0200081156000812
:10003000BB020008BB020008BB020008BB020008AC
:10004000BB020008BB020008BB020008BB0200089C
:10005000BB020008BB020008BB020008BB0200088C
:10006000BB020008BB020008BB020008BB0200087C
:10007000BB020008BB020008BB020008BB0200086C
:10008000BB020008BB020008BB020008BB0200085C
:10009000BB020008BB020008BB020008BB0200084C
:1000A000BB020008BB020008BB020008BB0200083C
:1000B00041520008BB020008BB020008BB02000856
:1000C000BB020008BB020008BB020008BB0200081C
:1000D000BB02000881510008E1510008BB02000882
:1000E000BB020008BB020008BB020008BB020008FC
:1000F000BB020008BB020008BB020008BB020008EC
:10010000BB020008BB020008BB020008BB020008DB
:10011000BB020008BB020008BB020008BB020008CB
:10012000BB020008BB020008BB020008BB020008BB
:10013000BB020008BB020008BB020008BB020008AB
:10014000BB020008BB020008BB020008BB0200089B
:10015000BB020008BB020008BB020008BB0200088B
:10016000BB020008BB020008BB020008BB0200087B
:10017000BB020008BB020008BB020008BB0200086B
:10018000BB020008BB020008BB020008BB0200085B
:10019000BB020008BB020008BB020008BB0200084B
:1001A000BB020008BB020008BB020008BB0200083B
:1001B000BB020008BB020008BB020008BB0200082B
:1001C000BB020008BB020008BB020008BB0200081B
:1001D000BB020008BB020008BB020008BB0200080B
:1001E00072B6264880F30888254880F30988254898
:1001F00025490860022080F31488BFF36F8F04F054
:100200006FFF05F0BDF84FF0553020491B4A914271
:100210003CBF41F8040BFAE71D49194A91423CBF23
:1002200041F8040BFAE71B491B4A1C4B9A423EBF9C
:1002300051F8040B42F8040BF8E700201849194A5A
:1002400091423CBF41F8040BFAE704F061FF04F06F
:100250004FFF154C154DAC4203DA54F8041B884788
:10026000F9E705F0E5F9124C124DAC4203DA54F807
:10027000041B8847F9E704F043BF00000004002096
:10028000000800200000000808ED00E00000002049
:10029000000400207C6C000800080020380C0020BE
:1002A000400C0020E01A0020E0010008E0010008F6
:1002B000E0010008E001000892E700F000F8FEE726
:1002C0002DE9F04FC1F80CD0C3689D46BDE8F08F12
:1002D000002383F311882846A047002005F068F921
:1002E000FEE705F045F900DFFEE70000254A21F0B2
:1002F0000043934223DD10B5234A934286B009DDC3
:1003000002460B4601F07AFA02460B4610461946A1
:1003100006B010BD02AA00F067F800F00304012C3B
:1003200011D0022C23D0CCB10124DDE90423DDE976
:100330000201009401F0A0F802460B46E6E7002215
:10034000002300F041BBDDE90423DDE90201009454
:1003500001F092F8024601F10043D7E7DDE90423FA
:10036000DDE9020100F030FB02460B46CEE7DDE995
:100370000423DDE9020100F027FB024601F10043FE
:10038000C4E700BFFB21E93FFFFFEF7FF8B504465C
:100390000D4600F053FA134B93F900300133064633
:1003A0000F460DD022462B462046294601F078FE06
:1003B00030B9204629460022002301F049FE10B939
:1003C00030463946F8BD02F0CDF900220023212144
:1003D00001601046194601F0F3FC06460F46304610
:1003E0003946F8BD000800202DE9F04F1446B64A02
:1003F00021F00045954291B040F38580B34A954283
:100400000F4626DC0029A6A3D3E9002340F3C481CC
:1004100001F0F4F9AE4B9D428046894600F0888099
:10042000A1A3D3E9002301F0E9F902460B46C4E990
:1004300000234046494601F0E1F99BA3D3E900239C
:1004400001F0DCF9C4E902010126304611B0BDE833
:10045000F08FA04A954240F38B809F4A95425DDC25
:100460002E15A6F21646A5EB06518946804601F0E8
:100470002DFE01F011FB02460B4640464946CDE9F0
:100480000A2301F0BBF9954B002201F06FFB89466E
:10049000804601F01BFE054601F0FEFA02460B46BF
:1004A00040464946CDE90C2301F0A8F98B4B0022C8
:1004B00001F05CFB02460B46CDE90E23002200232F
:1004C00001F0BCFD002800F06581002D0CBF012368
:1004D0000223834A019202220092214632460AA850
:1004E00000F0A2FB002F0646AFDAD4E9000505F1C3
:1004F0000041C4E90001E168A26801F10043C4E9D8
:1005000002237642A1E70026C4E90001002200236D
:100510003046C4E9022311B0BDE8F08F02460B4615
:1005200001F06CF90026C4E90201C4E900018CE77E
:100530005FA3D3E9002301F061F95FA3D3E90023AE
:100540008046894601F05AF902460B46C4E9002369
:100550004046494601F052F957A3D3E9002301F080
:100560004DF90126C4E90201304611B0BDE8F08F13
:1005700001F044F852A3D3E900238046894601F0F4
:10058000F5FA584B002201F03BF901F09FFD0646B9
:1005900001F082FA42A3D3E9002382468B46CDE9DB
:1005A00004AB01F0E3FA02460B464046494601F02F
:1005B00025F93DA3D3E90023CDE902015046594670
:1005C00001F0D4FA1F2E8046894612DC464B721E7B
:1005D00053F82230AB420CD002460B46DDE9020153
:1005E00001F00CF902460B46C4E9002382468B4613
:1005F000B4E02B150793DDE902014B46424601F0BA
:10060000FDF8C1F30A53C3EB1555102D8B468246F6
:1006100040F3A08026A3D3E90023DDE9040101F023
:10062000A5FA8046894602460B46DDE9020101F043
:10063000E5F882468B4652465B46DDE9020101F051
:10064000DDF842464B4601F0D9F81BA3D3E900235D
:1006500080468946DDE9040101F088FA42464B46AE
:1006600001F0CCF802460B46804689465046594672
:10067000CDE908AB01F0C2F8079AC1F30A53D31AC7
:10068000312B8B46824631DC02460B46C4E90023FF
:10069000DDE90823CDE9022360E000BFAFF300806D
:1006A00000004054FB21F93F3163621A61B4D03D30
:1006B0000000601A61B4D03D7370032E8A19A33B09
:1006C00083C8C96D305FE43FFB21E93F7BD902401D
:1006D000FB21F93FFB213941FFFFEF7F0000704113
:1006E000A85C00080000E03F285C000848A3D3E9AC
:1006F0000023DDE9040101F039FA8046894602460B
:100700000B46DDE9080101F079F882468B46524636
:100710005B46DDE90801CDE902AB01F06FF8424626
:100720004B4601F06BF83CA3D3E900238046894691
:10073000DDE9040101F01AFA42464B4601F05EF889
:1007400002460B46804689465046594601F056F807
:100750008B46824652465B46C4E9002352465B46BE
:10076000DDE9020101F04AF842464B4601F046F845
:10077000002F02460B46C4E90223BFF666AE0BF11A
:10078000004301F10041A060C4F800A06360E16093
:1007900076425AE603239CE601F032F8264B9D424E
:1007A0008046894616D01EA3D3E9002301F028F81D
:1007B00002460B46C4E900234046494601F01EF8B4
:1007C00017A3D3E9002301F01BF84FF0FF36C4E96B
:1007D00002013AE614A3D3E9002301F011F814A3AF
:1007E000D3E900238046894601F00AF802460B4609
:1007F000C4E900234046494601F000F80CA3D3E9C0
:10080000002300F0FDFF4FF0FF36C4E902011CE6B3
:100810000000002E8A19A33BC14920259A837B3909
:100820003163621A61B4D03D0000601A61B4D03DFA
:100830007370032E8A19A33BFB21F93F614A8A4357
:100840002DE9F84305460C4600F09E8000290B4632
:10085000844654DD091562D0C3F31303C807A1F21F
:10086000FF3743F4801304D45B0003EBDC734FEADF
:100870004C0C4FEADC72002602EB43037F104FEA78
:100880004C0C4FF0160E34464FF40012A11899424A
:1008900002DC5B1A8C1816445B00BEF1010E03EB00
:1008A000DC734FEA52024FEA4C0CEFD17546202020
:1008B0004FF000420AE043D04FEADC71013801EB0F
:1008C00043034FEA4C0C4FEA520242D0A34202EBE0
:1008D0000E01F0DD002901EB020E0ADBA0461B1B16
:1008E000614588BF03F1FF33ACEB010C154444466E
:1008F000E2E7BEF1000FF1DB04F10108EFE721F0C0
:100900000042024336D000294CD14FEADC2215398F
:1009100013464FEA4C5C002AF7D0D6024CD4002094
:100920005B00DD02044600F10100F9D51A4663467A
:100930000CFA00FCC0F12000C340091B13438BE7F5
:100940006145B9D8002901EB020ED2DB984600239D
:10095000CAE753EA0C0311D16808731003F17F53FF
:1009600003F50013F20748BF40F0004003EB0759BE
:1009700005464C4628462146BDE8F883691C16BF4B
:10098000681C01364008E8E702460B4601F0EEF825
:100990002A46234600F034FF05460C4628462146E9
:1009A000BDE8F883024600F029FF02460B4601F03D
:1009B00007FA05460C46DDE7634620204FF0FF347A
:1009C000BAE700BF0000F07F2DE9F04F21F00048AA
:1009D00087B0B8F1795F92469B460646019170DA7E
:1009E00001F074FB002800F0F480019B32461946A8
:1009F000304601F0BBF87AA3D3E9002304460D4644
:100A000001F0B4F878A3D3E9002300F0F9FE224600
:100A10002B4601F0ABF876A3D3E9002300F0EEFEFD
:100A200022462B4601F0A2F873A3D3E9002300F07D
:100A3000E7FE22462B4601F099F871A3D3E9002383
:100A400000F0DCFE22462B4601F090F86EA3D3E9BD
:100A5000002300F0D5FE22462B4601F087F8CDE9B1
:100A600002016B4B00222046294601F07FF8DDE9A8
:100A70000223804689462046294601F077F84D46F4
:100A8000DDF804904446B0460F46064652465B46A3
:100A90004046494601F06AF802460B463046394660
:100AA00000F0ACFE02460B462046294600F0A6FEAA
:100AB00002460B460020574900F0A0FE07B0BDE8F3
:100AC000F08F019B024601F051F845A3D3E90023C2
:100AD00004460D4601F04AF843A3D3E9002300F091
:100AE0008FFE22462B4601F041F841A3D3E90023B3
:100AF00000F084FE22462B4601F038F83EA3D3E9ED
:100B0000002300F07DFE22462B4601F02FF83CA387
:100B1000D3E9002300F072FE22462B4601F026F8AE
:100B200039A3D3E9002300F06BFE2B46224601F0E7
:100B30001DF8394B9845CDE9020192DD374B9845B8
:100B40004FF000023DDCA8F500133249002090462A
:100B5000994600F053FECDE904012D4B00222046BA
:100B6000294601F003F842464B4600F047FEDDE916
:100B70000223804689462046294600F0F7FF4D466D
:100B8000DDF804904446B0460F46064652465B46A2
:100B90004046494600F0EAFF02460B4630463946D9
:100BA00000F02CFE02460B462046294600F026FEA9
:100BB00002460B46DDE9040100F020FE07B0BDE867
:100BC000F08F174BDFF85C90CDE904234FF000085D
:100BD000C3E71049002007B0BDE8F08FAFF30080F5
:100BE000D43888BEE9FAA8BDC4B1B4BD9EEE213E9A
:100BF000AD529C804F7E923E9015CB19A001FA3EDB
:100C00007751C1166CC1563F4C5555555555A53FAA
:100C10000000E03F0000F03F3233D33F0000E93FE7
:100C20000000E73F0000D23F2DE9F04FADF5197D00
:100C30001C4608930B91B84BA29953F821300593A9
:100C400012F1140F04F1FF3306460393C0F2408300
:100C5000B249D31E81FB0301DB17C3EBA10307934A
:100C60000133A3EB8303DB00D3180693079A039B9E
:100C7000D41A059AD7181BD40137DDF88CA2274463
:100C800020AD4FF000084FF0000908E05AF82400AA
:100C900000F002FF0134BC42E5E8020108D0002C5C
:100CA000F4DA013440464946BC42E5E80201F6D197
:100CB000059B002BC0F2BC83089BDDF80C9020AA9A
:100CC00002EBC30ADA000292059AA6F108011A445F
:100CD00004910DF5E07B019201EBC308039B002B0F
:100CE000C0F2AF81049E57460024002577E9022315
:100CF000F6E9020100F03AFF02460B46204629467B
:100D000000F07EFD464504460D46EFD1019B09F1FA
:100D100001099945EBE802450AF1080ADED1049B76
:100D2000DDF808B0059A01929B440BAB03EB8203FC
:100D30000A930CAB03EB8203083B0993019A98AB2F
:100D400003EBC203002A53E9284529DD0DF5E07ABB
:100D50000AEBC2080DF13009714B002220462946EA
:100D600000F004FF01F0B2F900F096FE6D4B002296
:100D700006460F4600F0FAFE02460B46204629467C
:100D800000F03CFD01F0A2F978E9022349F8040BD8
:100D90003946304600F034FDD04504460D46DBD1DF
:100DA000DDF81890204629464A4600F0A9FC0022AA
:100DB0004FF07F5304460D4600F0D8FE00F024FCAF
:100DC000594B002200F0D2FE02460B46204629462F
:100DD00000F014FD0D46044601F078F9804600F05D
:100DE0005BFE0B4602462946204600F007FD4B46B7
:100DF000002B06460F4640F39980019A511E0CAA1B
:100E0000C9F1180352F8212042FA03F000FA03F363
:100E1000D31AC9F117050CAA43FA05F5002D42F8BB
:100E20002130804400F38C80002200233046394674
:100E300001F004F9002800F05282019B059A03F1A9
:100E4000FF3A524510DC03F180430CAA013B0A989B
:100E500002EB8303002253F80419834242EA0102A1
:100E6000F9D1002A40F0F080059B0CAA013B52F812
:100E70002330002B40F0E080099A012352F8041936
:100E800001330029FAD0019AD3180293531C9946D2
:100E9000DDF80480089A9044079A02EB030A0AF1ED
:100EA000804AA39A0AF1FF3A02EB8A0A20AA02EBCF
:100EB000C80870AA02EBC30301935AF8040F00F0AC
:100EC000EBFD039B002BC8E90001474608F1080829
:100ED0001FDB049E083F0024002501E077E80201A3
:100EE000F6E9022300F042FE02460B462046294660
:100EF00000F086FC5E4504460D46EFD1019BE3E819
:100F000002450193029B09F101099945D5DD019341
:100F100014E700240025F1E7B05D0008ABAAAA2A77
:100F20000000703E00007041000020406BD1019B2A
:100F30000CAA013B52F82350ED15002D7FF774AF3A
:100F4000019B002B08F1010840F3C7810C9C002C89
:100F500051D1019B012B20D00CAB012253F8044F3F
:100F6000002C4BD0531C0CA9C4F1807441F82240D2
:100F70000199994210DD0CAA0CA852F8232000EB2D
:100F8000830300EB81006FF07F4100E01A688A1A4A
:100F900043F8042B8342F9D10124069B002B0EDD7C
:100FA000012B00F08A81022B09D1019B5A1E0CAB48
:100FB0000CA953F82230C3F3150341F82230022D57
:100FC0007FF432AF32463B467949002000F016FCF0
:100FD00006460F46002C3FF427AF069A74490020BE
:100FE00000F08EFB02460B463046394600F006FC08
:100FF00006460F4618E701230022B4E701990132A3
:101000008A42ABD1C9E76B4B002201F035F80546A7
:1010100000283FF409AF019B002B08F10108C8BF6D
:10102000022593DC32463B466149002000F0E6FB96
:10103000022506460F46F7E6019B013399460293C7
:1010400026E70024002561E6069B0395A3F118021C
:101050000CABCDF81C8053F82A30069273B9019B73
:1010600003F18043023B0CA901EB830353F80419FD
:101070000AF1FF3A183A0029F8D00692069A4C492C
:10108000002000F03DFBBAF1000F04460D46C0F20F
:10109000D68170AB03EBCA0B0CAA0AF101030693CD
:1010A00002EB8306DFF810914FEACA0304930BF1B9
:1010B00008074FF0000856F8040D00F0EDFC22463A
:1010C0002B4600F053FD4B4667E90201424620469D
:1010D000294600F04BFD0CAB9E4204460D46EAD17A
:1010E00048ABCDE9013ADDF814A0BAF1000F4FF09A
:1010F00000092CDB2CA3D3E90023DFF8C0805F4676
:1011000000260024002503E0B14510DBF8E80223A7
:10111000F7E8020100F02AFD02460B462046294668
:1011200000F06EFB0136B24504460D46ECDA019B39
:10113000029A03EBC9039145C3E90045ABF1080BE3
:1011400009F1010306D0BAF1000F9946D2DA002462
:101150000025ECE7A29BDDF808A0022B30DC002B79
:1011600000F3F08018D1049CA29A019D08342C440D
:1011700013461046194674E9022300F041FBA542CC
:1011800002460B46F5D1039909B103F10043194614
:101190000B9B1046C3E90001079B03F007000DF508
:1011A000197DBDE8F08F00BF00000040FB21F93F32
:1011B0000000F03F0000E03F0000703EC85D000806
:1011C000A29B032BE8D1BAF1000F00F04E81019BE6
:1011D000049A1344D3E900459B465BE90267204625
:1011E000294632463B4600F00BFBA046A946044682
:1011F0000D4622462B463046394600F0FFFA4B4654
:10120000424600F0FDFACBE900016BE90245019B83
:101210005B45E2D1BAF1010F40F32781049B019AAB
:101220001344D3E9004502939A460DF5947B5AE99D
:1012300002672046294632463B4600F0E1FAA046C6
:10124000A94604460D4622462B463046394600F054
:10125000D5FA42464B4600F0D3FACAE900016AE9E2
:101260000245D345E3D1019A029C002302F1100507
:1012700008341A461846114674E9022300F0C0FAF1
:10128000A54203460A46F5D10399002940F0A480FF
:101290001846019B0B9C1146D3E90223C4E90223A3
:1012A000DDE94823C4E90023079BC4E9040103F0F6
:1012B00007000DF5197DBDE8F08F019B5A1E0CABA0
:1012C0000CA953F82230C3F3160341F8223076E616
:1012D00000216FF017030791C6E400245DE6069C29
:1012E0000395304639466242CDF81C8000F008FA7A
:1012F0005F4B002206460F4600F0BEFE002861D07C
:101300005C4B019D0022183430463946069400F0AB
:101310002DFC00F0DBFE044600F0BEFB544B002227
:1013200000F024FC0B4602463946304600F066FACF
:1013300000F0CCFE05F1010A0CAB43F8250043F8A0
:101340002A409BE6069B019D002605EBC30433461D
:101350003046194674E9022300F052FAA5420646C7
:101360000B46F5D1039A3046002A4FD119460B9B04
:101370003246C3E900010B46DDE9480100F03EFAC0
:10138000BAF1000F02460B4610DD48AD01241046AD
:101390001946F5E9022300F033FA0134A24502466A
:1013A0000B46F4DA039909B103F1004319460B9B8C
:1013B0001046C3E90201079B03F007000DF5197DF4
:1013C000BDE8F08F3046394600F080FE019B0CAA44
:1013D0009A4642F8230051E60B9E3361019B02F1CD
:1013E000004298681C6872611A465B6803F1004508
:1013F000D36803F10041079BC6E9020103F007002F
:10140000C6E900450DF5197DBDE8F08F0B9A194628
:1014100003F10043536016600B463246DDE9480194
:1014200000F0ECF9BAF1000F02460B46ADDCBBE769
:10143000A6F108030493089BDB0002936FE4A29BD0
:10144000022B06DC002B0DDC7FF4A6AEA29A13461D
:1014500099E6A29B032B7FF49FAE002348A91A466E
:10146000019111E7002633467CE700231A460BE77B
:10147000000070410000703E2DE9F04F994687B0A2
:1014800021F00043B3F1795F90460446019104DAFC
:1014900000F01CFE002800F08F80019B22461946B8
:1014A000204600F063FB019B06460F463246194674
:1014B00020463B4600F05AFB43A3D3E90023824673
:1014C0008B463046394600F051FB41A3D3E9002357
:1014D00000F094F932463B4600F048FB3EA3D3E9C6
:1014E000002300F08DF932463B4600F03FFB3CA361
:1014F000D3E9002300F082F932463B4600F036FB88
:1015000039A3D3E9002300F07BF9109BCDE9020158
:10151000002B37D0384B00224046494600F026FBCE
:10152000DDE90223CDE904015046594600F01EFBD7
:1015300002460B46DDE9040100F060F932463B4605
:1015400000F014FB42464B4600F058F928A3D3E9BB
:10155000002306460F465046594600F007FB024658
:101560000B463046394600F04BF902460B46204602
:10157000019900F043F904460D462046294607B07C
:10158000BDE8F08F02460B463046394600F0EEFAD1
:1015900017A3D3E9002300F031F952465B4600F06F
:1015A000E5FA2246019B00F02BF904460D46204641
:1015B000294607B0BDE8F08F019D2046294607B0B7
:1015C000BDE8F08FAFF300807CD5CF5A3AD9E53D26
:1015D000EB9C2B8AE6E55A3E7DFEB157E31DC73EE4
:1015E000D561C119A0012A3FA6F810111111813F40
:1015F000495555555555C53F0000E03F21F0004184
:10160000704700BF00000000C1F30A52F8B5A2F213
:10161000FF35132D0B4684460C46064630DC002D64
:101620001EDB354F2F4101EA0702024315D030A3DC
:10163000D3E9002300F0E4F80022002300F026FDA7
:1016400048B1002C04DA4FF4801343FA05F52C441A
:1016500024EA070400262346B44660461946F8BD2E
:1016600023A3D3E9002300F0CBF80022002300F0ED
:101670000DFD0028EFD0002C24DB00263446EAE7DD
:10168000332D08DDB5F5806FE7D1024600F0B8F8DC
:1016900084460B46E1E7A2F213424FF0FF37D740F2
:1016A0000742DAD012A3D3E9002300F0A9F8002200
:1016B000002300F0EBFC0028CDD0002C0BDB26EA49
:1016C0000706C8E724F000430C4A1E43002E18BF4B
:1016D00014460026BFE7142D08D00123C5F13405B8
:1016E00003FA05F5AE1928BFE418E8E70134E6E788
:1016F0009C7500883CE4377EFFFF0F000000F0BFC0
:10170000C1F30A5370B58C4604460D4616467BBBA2
:1017100021F0004C03465CEA030328D0304B002242
:1017200000F024FA2F4B9E4204460D461ADBC1F30B
:101730000A538C46363B334440F2FE72934220DC1F
:10174000002B3CDC13F1350F2CDA4CF250339E4267
:1017500017DC05F0004343F0D27141F4B731224861
:1017600041F01F011AA3D3E9002300F0FFF970BD77
:1017700040F2FF729342DED102460B4600F040F881
:1017800070BD05F0004343F0FC4141F45F1141F4AA
:10179000105111A3D3E90023144841F03C0100F09B
:1017A000E5F970BD2CF0FF4C36332CF4E00C4CEA1C
:1017B000035120460E4B002200F0D8F970BD2CF0EA
:1017C000FF4C2CF4E00C20464CEA035170BD00BFE6
:1017D00059F3F8C21F6EA5019C7500883CE4377E62
:1017E00000005043B03CFFFF59F3F8C29C750088DD
:1017F0000000903C81F0004102E000BF83F0004314
:1018000030B54FEA41044FEA430594EA050F08BF9B
:1018100090EA020F1FBF54EA000C55EA020C7FEA5F
:10182000645C7FEA655C00F0E2804FEA5454D4EBDC
:101830005555B8BF6D420CDD2C4480EA020281EAA6
:10184000030382EA000083EA010180EA020281EADE
:101850000303362D88BF30BD11F0004F4FEA013130
:101860004FF4801C4CEA113102D0404261EB41013F
:1018700013F0004F4FEA03334CEA133302D05242C5
:1018800063EB430394EA050F00F0A780A4F1010481
:10189000D5F1200E0DDB02FA0EFC22FA05F28018BB
:1018A00041F1000103FA0EF2801843FA05F35941A1
:1018B0000EE0A5F120050EF1200E012A03FA0EFC20
:1018C00028BF4CF0020C43FA05F3C01851EBE3714A
:1018D00001F0004507D54FF0000EDCF1000C7EEB67
:1018E00000006EEB0101B1F5801F1BD3B1F5001FA5
:1018F0000CD349085FEA30004FEA3C0C04F10104C4
:101900004FEA445212F5800F80F09A80BCF1004FEC
:1019100008BF5FEA500C50F1000041EB045141EA6E
:10192000050130BD5FEA4C0C404141EB0101013C37
:1019300028BFB1F5801FE9D291F0000F04BF014626
:101940000020B1FA81F308BF2033A3F10B03B3F1F8
:1019500020020CDA0C3208DD02F1140CC2F10C0288
:1019600001FA0CF021FA02F10CE002F11402D8BFE6
:10197000C2F1200C01FA02F120FA0CFCDCBF41EAB2
:101980000C019040E41AA2BF01EB0451294330BD81
:101990006FEA04041F3C1CDA0C340EDC04F114045E
:1019A000C4F1200220FA04F001FA02F340EA030035
:1019B00021FA04F345EA030130BDC4F10C04C4F17B
:1019C000200220FA02F001FA04F340EA030029465B
:1019D00030BD21FA04F0294630BD94F0000F83F4A5
:1019E000801306BF81F480110134013D4EE77FEA88
:1019F000645C18BF7FEA655C29D094EA050F08BFD4
:101A000090EA020F05D054EA000C04BF19461046B4
:101A100030BD91EA030F1EBF0021002030BD5FEAF8
:101A2000545C05D14000494128BF41F0004130BD20
:101A300014F580043CBF01F5801130BD01F0004574
:101A400045F0FE4141F470014FF0000030BD7FEAE7
:101A5000645C1ABF194610467FEA655C1CBF0B46E2
:101A6000024650EA013406BF52EA033591EA030FF9
:101A700041F4002130BD00BF90F0000F04BF0021F1
:101A8000704730B54FF4806404F132044FF0000524
:101A90004FF0000150E700BF90F0000F04BF00219D
:101AA000704730B54FF4806404F1320410F0004503
:101AB00048BF40424FF000013EE700BF42004FEAFE
:101AC000E2014FEA31014FEA02701FBF12F07F437B
:101AD00093F07F4F81F06051704732F07F4208BF32
:101AE000704793F07F4F04BF41F40021704730B539
:101AF0004FF4607401F0004521F000411CE700BF85
:101B000050EA010208BF704730B54FF000050AE007
:101B100050EA010208BF704730B511F0004502D508
:101B2000404261EB41014FF4806404F132045FEA0A
:101B3000915C3FF4D8AE4FF003025FEADC0C18BFB3
:101B400003325FEADC0C18BF033202EBDC02C2F1A5
:101B5000200300FA03FC20FA02F001FA03FE40EA37
:101B60000E0021FA02F11444BDE600BF70B54FF03B
:101B7000FF0C4CF4E06C1CEA11541DBF1CEA135519
:101B800094EA0C0F95EA0C0F00F0DEF82C4481EA81
:101B9000030621EA4C5123EA4C5350EA013518BFA1
:101BA00052EA033541F4801143F4801338D0A0FB8E
:101BB00002CE4FF00005E1FB02E506F00042E0FB3B
:101BC00003E54FF00006E1FB03569CF0000F18BF41
:101BD0004EF0010EA4F1FF04B6F5007F64F54074E9
:101BE00004D25FEA4E0E6D4146EB060642EAC6217C
:101BF00041EA55514FEAC52040EA5E504FEACE2EE9
:101C0000B4F1FD0C88BFBCF5E06F1ED8BEF1004FEB
:101C100008BF5FEA500E50F1000041EB045170BD67
:101C200006F0004646EA010140EA020081EA0301AB
:101C3000B4EB5C04C2BFD4EB0C0541EA045170BDA7
:101C400041F480114FF0000E013C00F3AB8014F121
:101C5000360FDEBF002001F0004170BDC4F100046A
:101C6000203C35DA0C341BDC04F11404C4F12005EB
:101C700000FA05F320FA04F001FA05F240EA020046
:101C800001F0004221F0004110EBD37021FA04F67C
:101C900042EB06015EEA430E08BF20EAD37070BD36
:101CA000C4F10C04C4F1200500FA04F320FA05F095
:101CB00001FA04F240EA020001F0004110EBD37097
:101CC00041F100015EEA430E08BF20EAD37070BD07
:101CD000C4F1200500FA05F24EEA020E20FA04F3E0
:101CE00001FA05F243EA020321FA04F001F000418F
:101CF00021FA04F220EA020000EBD3705EEA430E00
:101D000008BF20EAD37070BD94F0000F0FD101F02E
:101D10000046400041EB010111F4801F08BF013C67
:101D2000F7D041EA060195F0000F18BF704703F0A5
:101D30000046520043EB030313F4801F08BF013D2C
:101D4000F7D043EA0603704794EA0C0F0CEA1355E8
:101D500018BF95EA0C0F0CD050EA410618BF52EAA2
:101D60004306D1D181EA030101F000414FF00000A8
:101D700070BD50EA410606BF1046194652EA4306B6
:101D800019D094EA0C0F02D150EA013613D195EA2A
:101D90000C0F05D152EA03361CBF104619460AD172
:101DA00081EA030101F0004141F0FE4141F470017C
:101DB0004FF0000070BD41F0FE4141F4780170BD6C
:101DC00070B54FF0FF0C4CF4E06C1CEA11541DBFD1
:101DD0001CEA135594EA0C0F95EA0C0F00F0A7F8D3
:101DE000A4EB050481EA030E52EA03354FEA013100
:101DF00000F088804FEA03334FF0805545EA131313
:101E000043EA12634FEA022245EA111545EA1065DA
:101E10004FEA00260EF000419D4208BF964244F171
:101E2000FD0404F5407402D25B084FEA3202B61A90
:101E300065EB03055B084FEA32024FF480104FF464
:101E4000002CB6EB020E75EB030E22BFB61A7546D8
:101E500040EA0C005B084FEA3202B6EB020E75EB6B
:101E6000030E22BFB61A754640EA5C005B084FEAD3
:101E70003202B6EB020E75EB030E22BFB61A7546A0
:101E800040EA9C005B084FEA3202B6EB020E75EBAB
:101E9000030E22BFB61A754640EADC0055EA060E6C
:101EA00018D04FEA051545EA16754FEA06164FEAAF
:101EB000C30343EA52734FEAC2025FEA1C1CC0D15B
:101EC00011F4801F0BD141EA00014FF000004FF0E8
:101ED000004CB6E711F4801F04BF01430020B4F1A9
:101EE000FD0C88BFBCF5E06F3FF6AFAEB5EB030C61
:101EF00004BFB6EB020C5FEA500C50F1000041EB5E
:101F0000045170BD0EF0004E4EEA113114EB5C042A
:101F1000C2BFD4EB0C0541EA045170BD41F48011FD
:101F20004FF0000E013C90E645EA060E8DE60CEA05
:101F3000135594EA0C0F08BF95EA0C0F3FF43BAF22
:101F400094EA0C0F0AD150EA01347FF434AF95EAD9
:101F50000C0F7FF425AF104619462CE795EA0C0FBD
:101F600006D152EA03353FF4FDAE1046194622E78A
:101F700050EA410618BF52EA43067FF4C5AE50EA64
:101F800041047FF40DAF52EA43057FF4EBAE12E754
:101F90004FF0FF3C06E000BF4FF0010C02E000BF35
:101FA0004FF0010C4DF804CD4FEA410C7FEA6C5C18
:101FB0004FEA430C18BF7FEA6C5C1BD001B050EABB
:101FC000410C0CBF52EA430C91EA030F02BF90EAA6
:101FD000020F0020704710F1000F91EA030F58BF65
:101FE000994208BF90422CBFD8176FEAE37040F0C7
:101FF000010070474FEA410C7FEA6C5C02D150EA65
:10200000013C07D14FEA430C7FEA6C5CD6D152EA1F
:10201000033CD3D05DF8040B704700BF84461046E4
:1020200062468C461946634600E000BF01B5FFF7E3
:10203000B7FF002848BF10F1000F01BD4DF808EDB3
:10204000FFF7F4FF0CBF012000205DF808FB00BF84
:102050004DF808EDFFF7EAFF34BF012000205DF8DE
:1020600008FB00BF4DF808EDFFF7E0FF94BF01202B
:1020700000205DF808FB00BF4DF808EDFFF7CEFF2C
:1020800094BF012000205DF808FB00BF4DF808ED6B
:10209000FFF7C4FF34BF012000205DF808FB00BF3C
:1020A0004FEA410C7FEA6C5C02D150EA013C0AD154
:1020B0004FEA430C7FEA6C5C02D152EA033C02D146
:1020C0004FF0000070474FF0010070474FEA4102A7
:1020D00012F5001215D211D56FF47873B3EB62527A
:1020E00012D94FEAC12343F0004343EA505311F0A1
:1020F000004F23FA02F018BF404270474FF0000033
:10210000704750EA013005D111F0004008BF6FF070
:10211000004070474FF00000704700BF4FEA410297
:10212000B2F1E04324BFB3F5001CDCF1FE5C0DD935
:1021300001F0004C4FEAC0024CEA5070B2F1004F7F
:1021400040EB830008BF20F00100704711F0804F82
:1021500021D113F13872BCBF01F00040704741F447
:1021600080114FEA5252C2F11802C2F1200C10FA4B
:102170000CF320FA02F018BF40F001004FEAC1232F
:102180004FEAD32303FA0CFC40EA0C0023FA02F3D3
:102190004FEA4303CCE77FEA625307D150EA0133A9
:1021A0001EBF4FF0FE4040F44000704701F0004079
:1021B00040F0FE4040F40000704700BF80F0004057
:1021C00002E000BF81F0004142001FBF5FEA41030F
:1021D00092EA030F7FEA226C7FEA236C6AD04FEA0F
:1021E0001262D2EB1363C1BFD21841404840414054
:1021F000B8BF5B42192B88BF704710F0004F40F406
:10220000000020F07F4018BF404211F0004F41F421
:10221000000121F07F4118BF494292EA030F3FD0ED
:10222000A2F1010241FA03FC10EB0C00C3F1200300
:1022300001FA03F100F0004302D5494260EB40008F
:10224000B0F5000F13D3B0F1807F06D340084FEAFA
:10225000310102F10102FE2A51D2B1F1004F40EBEF
:10226000C25008BF20F0010040EA03007047490057
:1022700040EB0000013A28BFB0F5000FEDD2B0FAF4
:1022800080FCACF1080CB2EB0C0200FA0CF0AABF17
:1022900000EBC25052421843BCBFD04018437047B5
:1022A00092F0000F81F4000106BF80F400000132BB
:1022B000013BB5E74FEA41037FEA226C18BF7FEA92
:1022C000236C21D092EA030F04D092F0000F08BFD4
:1022D0000846704790EA010F1CBF0020704712F0BB
:1022E0007F4F04D1400028BF40F00040704712F1FA
:1022F00000723CBF00F50000704700F0004343F05F
:10230000FE4040F4000070477FEA226216BF084694
:102310007FEA23630146420206BF5FEA412390EA57
:10232000010F40F4800070474FF0000304E000BF4D
:1023300010F0004348BF40425FEA000C08BF7047FE
:1023400043F0964301464FF000001CE050EA0102C2
:1023500008BF70474FF000030AE000BF50EA0102D7
:1023600008BF704711F0004302D5404261EB4101C4
:102370005FEA010C02BF84460146002043F0B643E9
:1023800008BFA3F18053A3F50003BCFA8CF2083A0E
:10239000A3EBC25310DB01FA02FC634400FA02FC17
:1023A000C2F12002BCF1004F20FA02F243EB02001E
:1023B00008BF20F00100704702F1200201FA02FC80
:1023C000C2F1200250EA4C0021FA02F243EB020073
:1023D00008BF20EADC7070474FF0FF0C1CEAD052B7
:1023E0001EBF1CEAD15392EA0C0F93EA0C0F6FD078
:1023F0001A4480EA010C400218BF5FEA41211ED056
:102400004FF0006343EA501043EA5111A0FB013141
:102410000CF00040B1F5000F3EBF490041EAD37116
:102420005B0040EA010062F17F02FD2A1DD8B3F192
:10243000004F40EBC25008BF20F00100704790F001
:10244000000F0CF0004C08BF49024CEA502040EA53
:1024500051207F3AC2BFD2F1FF0340EAC250704719
:1024600040F400004FF00003013A5DDC12F1190F57
:10247000DCBF00F000407047C2F10002410021FAC9
:1024800002F1C2F1200200FA02FC5FEA310040F1E1
:10249000000053EA4C0308BF20EADC70704792F05A
:1024A000000F00F0004C02BF400010F4000F013A92
:1024B000F9D040EA0C0093F0000F01F0004C02BF8D
:1024C000490011F4000F013BF9D041EA0C018FE7FC
:1024D0000CEAD15392EA0C0F18BF93EA0C0F0AD002
:1024E00030F0004C18BF31F0004CD8D180EA010028
:1024F00000F00040704790F0000F17BF90F0004FC1
:10250000084691F0000F91F0004F14D092EA0C0FA2
:1025100001D142020FD193EA0C0F03D14B0218BF35
:10252000084608D180EA010000F0004040F0FE407B
:1025300040F40000704740F0FE4040F44000704717
:102540004FF0FF0C1CEAD0521EBF1CEAD15392EA96
:102550000C0F93EA0C0F69D0A2EB030280EA010C86
:1025600049024FEA402037D04FF0805343EA11111F
:1025700043EA10130CF000408B4238BF5B0042F17D
:102580007D024FF4000C8B4224BF5B1A40EA0C0022
:10259000B3EB510F24BFA3EB510340EA5C00B3EB54
:1025A000910F24BFA3EB910340EA9C00B3EBD10F42
:1025B00024BFA3EBD10340EADC001B0118BF5FEA94
:1025C0001C1CE0D1FD2A3FF650AF8B4240EBC250BD
:1025D00008BF20F0010070470CF0004C4CEA50207E
:1025E0007F32C2BFD2F1FF0340EAC250704740F4CD
:1025F00000004FF00003013A37E792F0000F00F0BF
:10260000004C02BF400010F4000F013AF9D040EA3C
:102610000C0093F0000F01F0004C02BF490011F4D0
:10262000000F013BF9D041EA0C0195E70CEAD153C8
:1026300092EA0C0F08D142027FF47DAF93EA0C0FAF
:102640007FF470AF084676E793EA0C0F04D14B0293
:102650003FF44CAF08466EE730F0004C18BF31F045
:10266000004CCAD130F000427FF45CAF31F000433F
:102670007FF43CAF5FE700BF4FF0FF3C06E000BFD8
:102680004FF0010C02E000BF4FF0010C4DF804CDFB
:102690004FEA40024FEA41037FEA226C18BF7FEA0B
:1026A000236C11D001B052EA530C18BF90EA010F0D
:1026B00058BFB2EB030088BFC81738BF6FEAE1709C
:1026C00018BF40F0010070477FEA226C02D15FEA38
:1026D000402C05D17FEA236CE4D15FEA412CE1D0A4
:1026E0005DF8040B704700BF844608466146FFE76B
:1026F0000FB5FFF7C9FF002848BF10F1000F0FBD4D
:102700004DF808EDFFF7F4FF0CBF012000205DF845
:1027100008FB00BF4DF808EDFFF7EAFF34BF0120CA
:1027200000205DF808FB00BF4DF808EDFFF7E0FF63
:1027300094BF012000205DF808FB00BF4DF808EDB4
:10274000FFF7D2FF94BF012000205DF808FB00BF17
:102750004DF808EDFFF7C8FF34BF012000205DF8F9
:1027600008FB00BF014B1868704700BF0808002035
:10277000032A10B517D940EA010C1CF0030F0446D8
:102780000B4623D119462046D1F800E0D0F800C00E
:10279000F44504F1040403F1040317D1043A032AB5
:1027A00020461946EED8541EA2B100F1FF3C013973
:1027B00001E0C3180CD01CF801EF11F8012F964569
:1027C000A4EB0C03F5D0AEEB020010BD541EECE7F9
:1027D000184610BD104610BD844641EA000313F0B0
:1027E00003036DD1403A41D351F8043B40F8043B18
:1027F00051F8043B40F8043B51F8043B40F8043BDB
:1028000051F8043B40F8043B51F8043B40F8043BCA
:1028100051F8043B40F8043B51F8043B40F8043BBA
:1028200051F8043B40F8043B51F8043B40F8043BAA
:1028300051F8043B40F8043B51F8043B40F8043B9A
:1028400051F8043B40F8043B51F8043B40F8043B8A
:1028500051F8043B40F8043B51F8043B40F8043B7A
:1028600051F8043B40F8043B403ABDD2303211D31A
:1028700051F8043B40F8043B51F8043B40F8043B5A
:1028800051F8043B40F8043B51F8043B40F8043B4A
:10289000103AEDD20C3205D351F8043B40F8043B1A
:1028A000043AF9D2043208D0D2071CBF11F8013B18
:1028B00000F8013B01D30B8803806046704700BFDE
:1028C000082A13D38B078DD010F003038AD0C3F1ED
:1028D0000403D21ADB071CBF11F8013B00F8013BCF
:1028E00080D331F8023B20F8023B7BE7043AD9D38E
:1028F000013A11F8013B00F8013BF9D20B78037063
:102900004B7843708B78837060467047830730B58F
:1029100048D0541E002A3FD0CAB2034601E0013C11
:102920003AD303F8012B9D07F9D1032C2DD9CDB251
:1029300045EA05250F2C45EA054536D9A4F11002D4
:1029400022F00F0C03F1200EE6444FEA121C03F1B3
:10295000100242E9045542E9025510327245F8D19D
:102960000CF1010214F00C0F03EB021204F00F0C37
:1029700013D0ACF1040323F003030433134442F8EF
:10298000045B9342FBD10CF003042CB1CAB21C448B
:1029900003F8012B9C42FBD130BD64461346002C4A
:1029A000F4D1F9E703461446BFE71A46A446E0E728
:1029B000012914BF6FF013000020704700000000D1
:1029C0002DE9F04702F00305D409AE464FF0000CA4
:1029D0004FF00F080127032613E003681A4042EA6C
:1029E0000E02BCF1070F02603CD8036A23EA0A0317
:1029F00043EA09030362490832D04FEA8E0E0CF114
:102A0000010CCB07F7D50CF007039B0004FA03F980
:102A100008FA03FA436807FA0CF223EA0203436058
:102A200082684FEA4C0306FA03F322EA030282604B
:102A3000C268022D22EA0302C2606FEA0302CCD10F
:102A4000BCF1070F15D8036A23EA0A0343EA090316
:102A500003620368134043EA0E0349080360CCD1C4
:102A6000BDE8F087436A23EA0A0343EA09034362A5
:102A7000C1E7436A23EA0A0343EA09034362E8E73A
:102A8000024AD36843F0C003D3607047001001408E
:102A9000024AD36843F0C003D3607047004400404B
:102AA00072B60349034BC1F8EC0003221A70FEE72B
:102AB000580E0020B01000200000000000000000B0
:102AC000FEE700BF00000000000000000000000062
:102AD000014B5B6883607047001000E0000000005D
:102AE0000E4A0F4B81685B6810B4946802691B1B27
:102AF0005B1AD218416902614268C46841F1000161
:102B00009342026888BF436001349342C0E90234B3
:102B1000416110BC38BF0360704700BFB010002097
:102B2000001000E0000000000000000000000000B5
:102B30000A4B10B4D3E90042A2EB040C604509D85B
:102B4000101A49420840844204D8824202D310BC81
:102B500058607047002010BC704700BFA8100020CC
:102B60002DE9F04FCDB082680392C26804920269E9
:102B700005924269069282690792C269436A089285
:102B80000E46026A0B9009920A930FCE0CAF3C4698
:102B90000FC70FCE0FC70FCE0FC796E80F0087E8FD
:102BA0000F003CAD2346A06B5A6A1B6854F8041F03
:102BB0001A444FEAF04383EA704383EA90231344B4
:102BC0004FEAB14282EAF11282EAD1021344A542ED
:102BD000E363E7D14BAB0293304B0193DDE909622C
:102BE000DDE907C8DDE9054ADDE903E52C4B0BAF5C
:102BF00009E0019951F8043F019146462C46E04610
:102C00007546CC4686464FEAFC2126EA0C090CEABA
:102C1000080081EABC1181EA7C6189EA000057F86A
:102C2000049F084481444FEA7E3185EA040081EA2A
:102C3000BE0100EA0E0005EA040B4A4481EABE51D7
:102C400080EA0B001344084403EB0A091844029B72
:102C50009F423246A246CCD10599089F039B049A15
:102C600029440D4606996744DDF828C021440344F1
:102C70000C4607980999B4446646DDF82CC07244A6
:102C800048444144CCE90232CCE90454CCE906077B
:102C9000CCE908164DB0BDE8F08F00BFD46A00083B
:102CA000982F8A4200000000000000000000000091
:102CB0000346144A10B443F8042B00F10C0400F14D
:102CC0005402C16400214161C0E90344C0E9082203
:102CD00010244FF0010C4360816200F1640300F1A5
:102CE0003001826100F174028463C0E90B01C0E924
:102CF000113310BC80F808C0C3614163C363026430
:102D000000657047546C00080000000000000000DF
:102D100008B5037F93B10F2B10D00022036902770F
:102D20001A6851688B420CD18168D2F808C08C4572
:102D30000AD8C0E900231860506008BD0348FFF7B7
:102D4000AFFE0348FFF7ACFE1346E9E7D45E000888
:102D5000585E0008000000000000000000000000B5
:102D600038B5302383F31188124BD3E90054A4EB18
:102D7000050C604510D8201A49420840821A954235
:102D80000AD8944208D35A600B4B1A689A4209D168
:102D9000002383F3118838BD074B1A689A424FF01D
:102DA0000000F5D0D96893688A689A42F0D2034847
:102DB000FFF776FEA8100020580E0020985E00084D
:102DC0001D4B70B503F11004D96144601C69826029
:102DD0000460606018614FF080401D6AC468AA42B8
:102DE00038BF2A4614F0020401EB02061ED14663E6
:102DF00004610224C460446A661AB24298BF2E4637
:102E000002D970BD21461446C2680136920731448A
:102E10000FD54163426A111BB142F3D2B542F0D2E1
:102E2000DA6B1E6242F00102DA6370BD0348FFF7FD
:102E300037FE0348FFF734FE580E0020385F0008C5
:102E4000A45E000800000000000000000000000078
:102E5000154A4FF0804370B5146ADD68A14238BF4F
:102E60002146AD0701EB000619D55E635D6A281A9D
:102E7000814200D970BD2146D8680131800701EB3D
:102E800005060CD55E63586A451B8D420AD28C42FA
:102E9000F0D2D36B116243F00103D36370BD0348DA
:102EA000FFF7FEFD0546E7E7580E0020A45E000888
:102EB00038B5036853B3194A116988420CD0D0E978
:102EC0000145996823602944C3E9014100214FF07D
:102ED000FF330160936138BD1146002541F8103F72
:102EE0005960056014698C4213D08068A3684FF064
:102EF00080410344A360486AD169421A9342EAD9E7
:102F0000091A1944BDE83840FFF7A2BF0448FFF78B
:102F1000C7FD4FF08043DD6038BD00BF580E002074
:102F2000605F0008000000000000000000000000DA
:102F3000F8B51C4E4FF0804334465F6A54F8103F9A
:102F4000A3420A4629D00546F0699A68A7EB000C0F
:102F500011EB0C0C34BF64460C46A24205D916E0B6
:102F60009D4211D01B68A41A9A689442F8D85A68F6
:102F7000AC60C5E9003215609A685D60121B4FF0C5
:102F8000FF319A60B161F8BD0748FFF789FD384607
:102F9000FFF75EFF33699A68E7E73946BDE8F84016
:102FA000FFF70EBF580E0020805F000800000000F1
:102FB00008B5037F93B10F2B10D00022036902776D
:102FC0001A6851688B420CD18168D2F808C08C45D0
:102FD0000AD2C0E900231860506008BD0348FFF71B
:102FE0005FFD0348FFF75CFD1346E9E7A85F0008B3
:102FF000905F0008000000000000000000000000DA
:1030000008B50846302383F311880B7F0C2B10D8AA
:10301000DFE803F0140F0F180B070F0B0F0F0F0F44
:103020000B004A6B936801339360D0E90032136060
:103030005A604FF0FF334363FFF7BAFF002383F377
:10304000118808BD4B6B00221A60F2E700000000F7
:10305000F8B50468A04220D007460D46002604E0DB
:103060000B2A1BD02468A74217D0E3682B43E360E8
:1030700015B123691D42F5D0D4E90103816C027FAB
:103080000B430A2A8364EBD1426B1342EAD04663B6
:10309000FFF78EFF2468A742E7D1F8BD426B32EA02
:1030A0000303DFD1F3E700BF0000000000000000D1
:1030B00008B50346006883420BD002681A6053606B
:1030C000037F042B06D100234363BDE80840FFF7CC
:1030D0006FBF08BD0148FFF7E3FC00BFE85E0008D2
:1030E0002DE9F843466F3368DF0505469CB275D479
:1030F000302383F3118814F02F0F44D005F1040816
:1031000005F10C0907E0A40677681ED4336813F0B4
:103110002F0F9CB237D02007F5D014F0080F0CBF4A
:1031200000214FF48071E20748BF41F02001A3075E
:1031300048BF41F04001670748BF41F08001404669
:10314000FFF786FFA4067768E0D56B6995F87C40A9
:10315000002B32D0D5E90832934236D06A69591C27
:1031600001323C4029626A611C70D5E907329A42FB
:1031700001D3AB692B624846FFF79AFF336813F01F
:103180002F0F9CB2C7D1002383F31188F368180670
:103190009FB201D5210630D47A060BD5630609D536
:1031A000302383F31188D5E911239A4242D00023BA
:1031B00083F31188F760BDE8F88304214046FFF7E8
:1031C00047FFD5E908329342C8D16A69002AC5D0C1
:1031D0004FF400614046FFF73BFF97E7302383F34E
:1031E00011884FF480610430FFF732FF6FF4807371
:1031F0003360002383F311887AE7302383F3118847
:10320000D5E911239A4220D0AA6B0132AA635A1C35
:10321000AA6493F800802B6C9A4201D3EB6BAB64E9
:1032200005F13000FFF744FFC6F80480002383F364
:103230001188B1E7AB6B002BB9D01021281D27F006
:103240004007FFF705FFBFB2B1E7AA6B002ADBD04A
:103250000821281D27F08007FFF7FAFEBFB2E5E737
:10326000134A5368D16810B59C68012C1CD199424F
:1032700017D00B69934214D11A6808771068186048
:1032800043601477DA60EFF309834869243B98427E
:1032900004D8BDE810401046FDF712B80548FFF706
:1032A000FFFB0548FFF7FCFB0448FFF7F9FB00BFF5
:1032B000580E0020005E0008705F0008445E0008A1
:1032C00030B50F4BDD684B1C87B013D00D4B044657
:1032D000CDE90335684600230593FFF729FE204614
:1032E000FFF7BEFF009B13B16846FFF7E1FD686B77
:1032F00007B030BDFFF7B4FF686B07B030BD00BF4B
:10330000580E0020013000080000000000000000FE
:103310002DE9F04F85B0CDE90232D0F81C804FF096
:10332000300B8BF31188002A78D03D4FDDF80CA0CC
:1033300004460E46A268A1695245226934BFA568B9
:103340005546A2EB0109A94552D836D2A5EB09038F
:103350004A4630460193FFF73FFA06EB0900DDF8D5
:103360000490E1684A46FFF737FAE2684A44A261EE
:10337000A268521BA2605DB3B8F1000F01D02046D5
:10338000C0473A68BA423BD1002383F31188AAEBC5
:10339000050A2E448BF31188BAF1000FCAD14FF001
:1033A000000A3A68BA4233D1002282F31188039BA3
:1033B000A3EB0A0005B0BDE8F08F2A463046FFF7C0
:1033C0000BFAE268A261A268521BA260002DD3D161
:1033D000029BFA68002BE4D061680420C2E9004136
:1033E0000A6019466260FFF76BFF0028A2D0D8E799
:1033F0002A463046FFF7F0F9A2692A44A261B7E7EE
:10340000F968926889689142BED20648FFF748FB86
:10341000F968926889689142C6D2F6E7004FBEE724
:10342000580E00202C5E0008000000000000000084
:103430004FF0FF330C30FFF76BBF00BF0000000000
:103440000C30FFF765BF00BF000000000000000067
:1034500070B5302304460D4683F31188204E0AE0F0
:1034600062682946C3E90042042013606360FFF7E5
:1034700027FF002806DBA3685BB9F368002DEFD1B6
:103480004FF0FF303368B34222D1002383F3118819
:1034900070BDA368A169013BA36023694A1C9A42DD
:1034A00028BFE368A2610D7828BFA361E3690BB16F
:1034B000204698473368B34204D1002383F3118830
:1034C000284670BDF2689B6892689A42F5D204E083
:1034D000F2689B6892689A42D7D20248FFF7E0FAF6
:1034E000580E00202C5E00080000000000000000C4
:1034F0004FF0FF310C30FFF7ABBF00BF0000000002
:103500000C30FFF7A5BF00BF000000000000000066
:10351000F8B504460E461546302383F31188204F34
:103520000AE060682946C3E9004003600420636044
:10353000FFF7C6FE002806DBA3685BB9FB68002D19
:10354000EFD14FF0FF303B68BB4221D1002383F322
:103550001188F8BDA3686269013BA360531C6361D5
:103560001670D4E904329A4224BFE3686361E369C8
:103570000BB1204698473B68BB4203D1002080F343
:103580001188F8BDFA689B6892689A42F6D204E006
:10359000FA689B6892689A42D8D20248FFF780FA8C
:1035A000580E00202C5E0008000000000000000003
:1035B0004FF0FF323030FFF7ABBF00BF000000001C
:1035C0003030FFF7A5BF00BF000000000000000082
:1035D0002DE9F04F85B0CDE90232D0F81C904FF0C4
:1035E000300B8BF31188002A78D0DFF8F880DDF8F3
:1035F0000CA004460F46A368D4E90460534534BFC9
:10360000A5685546361AAE4250D834D232463946AD
:10361000FFF7E2F8AA1BE0680192B919FFF7DCF89E
:10362000E368019A13446361A3685B1BA3606DB3F5
:10363000B9F1000F01D02046C847D8F80030434503
:103640003CD1002383F31188AAEB050A2F448BF3A6
:103650001188BAF1000FCED14FF0000AD8F800203F
:10366000424534D1002282F31188039BA3EB0A0068
:1036700005B0BDE8F08F2A463946FFF7ADF8E3689C
:103680006361A3685B1BA360002DD1D10299D8F8B8
:103690000C300029E2D062680420C3E900421360C4
:1036A0006360FFF70DFE0028A5D0D7E72A4639460C
:1036B000FFF792F863692B446361B5E7D8F80C20F3
:1036C0009B6892689A42BCD20748FFF7E9F9D8F89C
:1036D0000C10926889689142C4D2F5E7DFF8048043
:1036E000BAE700BF580E00202C5E00080000000062
:1036F0004FF0FF333030FFF76BBF00BF000000001A
:103700003030FFF765BF00BF000000000000000080
:103710002DE9F04190F802E0C478BEF1FE0F0546B5
:1037200068D0012C00F10C0162D904F10C036FF098
:103730000B020344121A03E05FFA8CF4012C57D0F9
:10374000D61813F8010D04F1FF3C0028F4D06B7A71
:10375000AA7A344F43EA0223EA7A87F800E043EA80
:1037600002432A79BA706A79FA70AA793A71EA79C9
:103770007A712A7ABA711A12FB713A721B143246A4
:1037800007F10A007B727C70FFF726F82A790A3667
:10379000D20707EB060314D4092229881970298857
:1037A000090A00205970204B1E4902440332186850
:1037B00022444FF0FF33BDE8F04192B23030FFF7C2
:1037C00007BF2A88BA552A88120A5A70D5F81A21D2
:1037D000D5F81E01D5F81611C3F80210C3F80A0077
:1037E000C3F8062095F822219A730D200922DAE702
:1037F0002646ACE70B4EC379F370037A3371437AF4
:1038000073718379C278B37000F10C0186F800E01F
:103810007470B01DFEF7E0FFEB78063305223344E9
:10382000BBE700BF400D0020101100200000000089
:103830002DE9F84F81460D469346302383F31188D6
:103840007B4C206B10F8063C013300F8063C2368E3
:10385000A342A0F1240040F0CC80002787F3118818
:103860004369DFF8D0A199454FF030082DD088F397
:103870001188436A534500F09F8013F8062CFF2AF5
:10388000A3F1240600F0A680013203F8062C236879
:10389000A34240F0938087F3118888F31188837FD7
:1038A000002B00F09480013B8377C36903F0FF1382
:1038B0000F2B0DD02368A34240F08F8087F311882F
:1038C000B6B1304643699945D1D15B48FFF7E8F876
:1038D000D0E9093213605A602368A34240F0908017
:1038E00087F31188C36A002BEAD09847002EE8D1ED
:1038F0004D44022305F8443CA5F1280380224F499A
:1039000045F8283CA5F1240345E9056245E909335A
:1039100045F8582CA5F18403494A45F8401C01217B
:1039200045E90D6605F8436C45F8186C45F8806C60
:1039300045F8543C45F84C9C45F884BC45F8485C37
:1039400045F8504C05F8421C45F8642C3023A5F18D
:10395000600683F3118855F8503C2768596B45F889
:10396000381CA5F13C0203F13000A74245F83C0C9D
:103970000A60E0685A634AD1836855F8582C0021E0
:103980009A4245F82C1C49D9FFF7C2F9012305F8E2
:10399000443C0146E660EFF309834269243B9A42C6
:1039A00024D83046FCF78CFC2368A3423AD100238C
:1039B00083F31188BDE8F88F002668E79A68E3680A
:1039C0009B689342BFF467AF1E48FFF769F81E4833
:1039D000FFF766F81D48FFF763F89A68E3689B688D
:1039E0009342BFF46BAF1A48FFF75AF81948FFF734
:1039F00057F8E2689B6892689A42BFF42EAFE3E7FB
:103A00009A68E3689B689342BFF46AAFEBE7BA68D1
:103A100083689342B1D21048FFF742F83046FFF76F
:103A2000C7FAC1E7E2689B6892689A42BFD2DAE7B8
:103A3000580E0020880E0020185F0008105E000855
:103A4000D1020008FC5E0008085F0008885E0008DC
:103A50002C5F0008005E0008505F000800000000B6
:103A60002DE9F04F664E96F80C9019F00209C3B09C
:103A7000044654D13169002900F0FC810F7807F029
:103A800001079446FD22A2700CF10C0254FA82F256
:103A900004F10C0512F8010D5FFA8CF1002840F0DA
:103AA000E4810CF1FF3CBCF1010FF3D1804661468B
:103AB0006422E271BF22E1702272002F00F07A824C
:103AC0000122227100226271B279A271501CB07180
:103AD000FD208DF80D108DF80C004FF0080A4FF006
:103AE0000A0EA07A8DF81020627A42EA0022E07A6B
:103AF00042EA004220798DF80E0000208DF80F0078
:103B000064208DF81100BF208DF813208DF812006D
:103B1000101212148DF814008DF815202BE0FE22DF
:103B2000C1708270642001F1FF38E071BF201FFA7C
:103B300088F8207204F10C058C464FF0040A4FF00F
:103B4000060E0027277167718DF80C20B279A271DB
:103B5000501C8DF80D10B071B9F1000F00F02882E3
:103B60008DF80E20627A8DF8112064228DF80F20D6
:103B7000BF228DF810200DF10D0082444FF6FF7921
:103B800001E010F8011F81EA090181EA0111C9B2BF
:103B90000A0982EA192242EA0122824582EAC1091F
:103BA000EFD108F1010815FA88F8284610F8012B22
:103BB00082EA090282EA0212D2B2110981EA1921CB
:103BC00081EA022181EAC202404511B21FFA82F95C
:103BD000ECD14B4083EA0313DBB2190981EA1921C6
:103BE00081EA032181EAC30305F80C30E2782A4414
:103BF000C3F307215170238027B943B0BDE8F08F8C
:103C0000381200203669002EF7D03378DF07F4D55C
:103C1000737884F81631F2680192BDF80430E778C1
:103C2000C94ACA49F046D6F808E0C4F817E1A4F832
:103C30001B31B3680133B360F36843F10003F360F1
:103C4000C34BCDE92C23C34BCDE92E13C24B30938C
:103C500003F17453A3F52303A3F692433193306920
:103C6000B269F36971690DF1C80CACE80F006B46DD
:103C7000BA48C3F800E0BA4BCDE92A030023306A02
:103C80002993716AF36AB26AACE80F004FF480734B
:103C900003EBC80328930DF10C094FF0200B16AE6F
:103CA0000DF1980ACBF14002424528BF424632ABA3
:103CB000494603EB0B009344A8EB02089144FEF73E
:103CC0008BFDBBF1400F00F0D780B8F1000FE9D1B8
:103CD000289A02EBC7039A42289300F26581C2F347
:103CE000C50BD7B1A946B8460DF1980ACBF14002F1
:103CF000424528BF424632AB494603EB0B00934492
:103D0000A8EB02089144FEF767FDBBF1400F00F0FD
:103D1000CD80B8F1000FE9D1289B13F11002289251
:103D200080F03E812F44C3F3C50902250DF19808A8
:103D3000C9F14002AA4228BF2A4632AB394603EBFA
:103D400009009144AD1A1744FEF746FDB9F1400F42
:103D500000F0C680002DEBD1289B13F13802289289
:103D600080F01A81C3F3C50904F58B7707250DF19F
:103D70009808C9F14002AA4228BF2A4632AB394608
:103D800003EB09009144AD1A1744FEF725FDB9F184
:103D9000400F00F0E780002DEBD1DDF8A080294630
:103DA00080234FEAD8058DF85830C5F1770303F02A
:103DB0003F0947220DF1590009F10907FEF7A6FD59
:103DC00009F58473F9006B4418EB0101299A2891D5
:103DD0004FEA182103F8A91C4FEA184103F8AA1C5E
:103DE0004FEA122103F8AD1C4FEA124103F8A88CE8
:103DF00003F8AC2C4FEA186803F8AE1C4FEA1261C6
:103E000028BF013203F8AB8C03F8AF1C28BF2992FE
:103E100005F03F05B046C5F14002BA4228BF3A4618
:103E200032AB414658191544BF1A9044FEF7D4FCF2
:103E3000402D6FD0002FEED19DF8AB209DF8AA3019
:103E40009DF8A9009DF8A81084F81D2184F81E3162
:103E50009DF8AF209DF8AE3084F81F0184F8201142
:103E600084F8212184F82231C7E601F1FF381FFAD6
:103E700088F81DE64F4604E628AA334692F82B1030
:103E8000197092F82A10597092F82910997092F8C6
:103E90002810D97004339A4502F10402EED131465C
:103EA00028A8FEF75DFE4FF0000B0EE728AA334668
:103EB00092F82B10197092F82A10597092F8291064
:103EC000997092F82810D97004339A4502F10402CF
:103ED000EED1314628A8FEF743FE4FF0000B18E75D
:103EE00028AA334692F82B10197092F82A105970AC
:103EF00092F82910997092F82810D97004339845D7
:103F000002F10402EED1314628A8FEF729FE4FF057
:103F100000091FE728AA06AB92F82B10197092F837
:103F20002A10597092F82910997092F82810D970B7
:103F300004339E4202F10402EED106A928A8FEF73E
:103F40000FFE002576E700BF72F36E3C7F520E51E4
:103F50003AF54FA58C68059BABD9831F67E6096AC4
:103F600085AE67BB28AA334692F82B10197092F8D9
:103F70002A10597092F82910997092F82810D97067
:103F80000433984502F10402EED1314628A8FEF729
:103F9000E7FD4FF00009FEE6299A01322992E1E699
:103FA000299A01322992BDE629990131299196E693
:103FB0004F4696E54FF0080AFD224FF00A0EC0E585
:103FC00010B51049CCB06B460024C3E90041032270
:103FD0001A7293E807000DF1180CACE803008CF896
:103FE000002009223223114603A88DF815408DF8D0
:103FF00016408DF81740FFF733FD03A8FFF788FB45
:104000004CB010BD120800040000000000000000C9
:1040100010B5D2B000230493059306930293039343
:10402000194A40F2FF13ADF81C30184B5178009339
:1040300000249278164B8DF820408DF81E108DF8D4
:104040001F200193EE464C238DF82D30BEE80F0063
:104050000DF1300CACE80F00BEE80F00ACE80F002B
:10406000DEF800108CF8001021229823114609A8D0
:104070008DF82E408DF82F40FFF7F2FC09A8FFF7CE
:1040800047FB52B010BD00BFE0100020000004420A
:104090000050434800000000000000000000000045
:1040A00000B5124ACDB050788DF8080004220121E5
:1040B000019201AB8DF8091093E803000692ADF868
:1040C0001C10062200210B2059238DF815008DF8B5
:1040D00016108DF8171003A81146FFF7C1FC03A8AE
:1040E000FFF716FB4DB05DF804FB00BFE0100020A9
:1040F00030B5284DD9B0286AFEF71AF92649FEF7DF
:104100001FFA6B788DF836300023059306930793DA
:10411000089309930A930B930C9306238DF8383078
:1041200003F1A053A3F5F333AA78029300241B4BA9
:10413000049040F6F8510194ADF834108DF8372012
:1041400003930DF1040EBEE80F000DF1480CACE82E
:104150000F00BEE80F00ACE80F00BEE80F00ACE8AF
:104160000F009EE803004CF8040B35228CF8001079
:1041700005230FA8114656258DF845508DF8464069
:104180008DF84740FFF76CFC0FA8FFF7C1FA59B054
:1041900030BD00BFE010002000007A440842942B9C
:1041A00030B51F4AD3B000240023CDE90444517830
:1041B0008DF81E1006930093019302930393927857
:1041C0008DF822404FF483711523ADF820108DF83F
:1041D0001F20ADF81C30EC46BCE80F000DF1300E8E
:1041E000AEE80F00BCE80F00AEE80F00DCF80030CE
:1041F0002EF8023B23221B0C8EF8003011469E2322
:1042000009A84B258DF82D508DF82E408DF82F40A4
:10421000FFF726FC09A8FFF77BFA53B030BD00BFBB
:10422000E01000200000000000000000000000007E
:1042300080B5484C484F494E494D86B04FF08049B3
:1042400047F230583DE097F824204FF400536B8339
:104250003023002A47D183F31188E36805924FF495
:104260007A716846CDE90363FEF762FE0820FEF727
:10427000F7FF009B13B16846FEF71AFE2368A342BE
:104280005CD1002282F311884FF400532B8330233A
:1042900083F3118842F22831E3686846CDE903636D
:1042A0000592FEF745FE0820FEF7DAFF009B13B1EA
:1042B0006846FEF7FDFD2368A34237D1002383F350
:1042C0001188D9F82430BA6A9B1A4345BBD94FF4F8
:1042D00000532B83302383F311884FF4FA61E36892
:1042E00068460022DAE783F31188E36800224FF47E
:1042F00048716846CDE903630592FEF719FE082070
:10430000FEF7AEFF009B13B16846FEF7D1FD2368B0
:10431000A34219D1002282F311884FF400532B835A
:10432000302383F311884FF44871B5E7E2689B6846
:1043300092689A42C2D20B48FEF7B2FBE2689B68D1
:1043400092689A429DD2F6E7E2689B6892689A4228
:10435000E0D2F0E7580E0020E01000200130000805
:10436000000802402C5F0008000000000000000070
:104370002DE9F04FC3B0CDE90101002800F0FF8125
:104380000346904602F58B7702F21D1205465969E5
:10439000006903929A69DB6932AC0FC4286A696AC2
:1043A000AA6AEB6A98F803500FC4D8F80200D8F84C
:1043B0000610B8F80A20234603C31A80C04BC14A2E
:1043C000C149C248CDE92A23C14BCDE92C13C14BC9
:1043D000CDE92E03C04B309303F17453A3F52303AF
:1043E000A3F692434FF4A874319304EBC504002361
:1043F000CDE9284308F10C0B002D00F0E2812A24BE
:104400000DF1A00A16AE0DF19809C4F14002AA42BE
:1044100028BF2A4632AB594618191444AD1A9344A2
:10442000FEF7DAF9402C00F0B580002DEDD1289C84
:1044300014F11003289308F58A7B80F01F81C4F3E0
:10444000C50402250DF19809C4F14002AA4228BF13
:104450002A4632AB594618191444AD1A9344FEF754
:10446000BBF9402C00F0B280002DEDD1289C14F156
:104470003803289380F0FE80C4F3C50407250DF1AE
:10448000980BC4F14002AA4228BF2A4632AB3946F3
:1044900018191444AD1A1744FEF79EF9402C00F089
:1044A000B180002DEDD1DDF8A0B029464FEADB0543
:1044B000C5F1770707F03F078023472207F109047A
:1044C0000DF159008DF85830FEF720FA07F5847386
:1044D000E2000DEB03071BEB0202299B28924FEA37
:1044E0001B2207F8A92C4FEA1B4207F8AA2C4FEA17
:1044F000132207F8AD2C4FEA134207F8A8BC07F8BF
:10450000AC3C07F8AE2C4FEA1B6B4FEA136228BF96
:10451000013307F8ABBC07F8AF2C28BF299305F08F
:104520003F053746C5F14002A24228BF224632ABC2
:10453000394658191544A41A1744FEF74DF9402D71
:104540007CD0002CEED19DF8AB308DF810309DF86A
:10455000AA308DF811309DF8A9308DF812309DF8F1
:10456000A8308DF813309DF8AF308DF814300399D2
:104570009DF8AE308DF81530062204A8FEF7F8F845
:1045800000287FD0019A022382F83430204643B0BD
:10459000BDE8F08F5246334692F82B10197092F80E
:1045A0002A10597092F82910997092F82810D97031
:1045B0000433994502F10402EED131465046FEF72C
:1045C000CFFA0024002D7FF420AF30E75246334667
:1045D00092F82B10197092F82A10597092F829103D
:1045E000997092F82810D9700433994502F10402A9
:1045F000EED131465046FEF7B3FA0024002D7FF489
:1046000023AF33E75246334692F82B10197092F8D5
:104610002A10597092F82910997092F82810D970C0
:1046200004339B4502F10402EED131465046FEF7B9
:1046300097FA0024002D7FF424AF34E7524606ABEE
:1046400092F82B10197092F82A10597092F82910CC
:10465000997092F82810D97004339E4202F1040236
:10466000EED106A95046FEF77BFA0025002C7FF418
:1046700059AF68E7299B01332993FDE6299B013354
:104680002993DCE600230022CDE90623029BD8F81B
:104690001701B8F81B7198F81611069008F2171553
:1046A000ADF81C70002B00F09080B3F800C02246DB
:1046B000BCF1000F2DD098F807A0029B12E000BFBC
:1046C00085AE67BB67E6096A72F36E3C7F520E5196
:1046D0003AF54FA58C68059BABD9831F624503F162
:1046E000090312D2DF78601C5745A64682B2044601
:1046F000F4D1187998F808708742EFD198788842F9
:1047000042D0624503F10903ECD33CD1BCF10F0F59
:1047100061D8019B069C364E079FD3E90203A61978
:1047200047F1000E86427EEB03035AD3029802EB58
:10473000C2028318053200EB020E98F80720DA70E7
:1047400098F808201A710CF1010C9970A0F800C0BB
:10475000D8F81731CEF80030AB880199AEF80430A4
:10476000D1E90223A242BB41019B4FF0010038BFB7
:10477000C1E9024783F8340043B0BDE8F08F01205F
:1047800043B0BDE8F08F96460EEBCE0E029A0EF1C6
:10479000050302EB030ED058BEF8041000220023DC
:1047A000CDE916231690B180DDE90647DDE9162331
:1047B000A242BB41CCD3019A062382F834300020B8
:1047C000E5E60DF1A00A16AE32E6019A029803233F
:1047D00082F83430DBE6019A042382F8343000207A
:1047E000D5E6019A052382F834300020CFE600BFD9
:1047F000808D5B0000000000000000000000000051
:104800002DE9F04FDFF8A8B2AA4C8DB0AA4FDFF81F
:10481000ACA24FF03009DBF8005005F10C0889F329
:1048200011881AE02B69E6684FF47A71C6E90083B3
:1048300005A81E60A24B2E610893CDE90962FEF720
:1048400077FB0420FEF70CFD059B13B105A8FEF7CE
:104850002FFB736B002BC0F2A9826A69002AE1D09A
:104860006B69696A013B6B61EB694A1C9A4228BF1C
:10487000AB696A6291F8009028BF6B62AB6A0BB1BA
:10488000404698472368A34240F09782002383F371
:104890001188FD783B70C846102D00F20A84DFE8CD
:1048A00015F03A003A000D0272025C024602300234
:1048B0001501DD00E301B0008B0050002300230050
:1048C000110011007B7BAAEB0302013BDBB282F8F3
:1048D00023917B73002B00F018839AF803903B79A7
:1048E00097F802C0387B0DE10E2D00F0F582BAF882
:1048F00000308AF81591B9EB132F9AF8043000F0C4
:10490000A1830226DB073E7040F1248310250D238E
:10491000FD707B73A0E3B9F1FD0F00F0CE82B9F119
:10492000FE0FDAD1387B674BCAF8003040F0010047
:1049300002253B7997F802C03873FD704FF00009EB
:10494000E0E0DAF80800E925C0F3172094220021FE
:104950002B46013382424FEA530300F2ED82C0F04E
:104960005783904240F0A5825749BAF800008AF870
:1049700014910C2202FB031319799A7981EA00033E
:1049800083EA0311C9B20B0983EA102343EA012326
:1049900083EAC103AAF80030DBB299450CBF0D25AC
:1049A0000E253B79FD709342C0F061839AF8039025
:1049B00097F802C0387BA5E03B790AEB030201338C
:1049C00082F80C90BAF8001089EA010989EA0919FD
:1049D0005FFA89F94FEA191282EA112242EA0922A2
:1049E00082EAC909AAF800909AF80390DBB24B4515
:1049F0003B717FF475AF0C2597F802C0387BFD70D2
:104A000080E0DAF80820BAF80000C2F3172289EA39
:104A1000000383EA031142EA0943C9B2C3F307431F
:104A20008AF80B300B0983EA102343EA01239AF832
:104A300003908AF8092083EAC103C2F307228AF8A7
:104A40000A20AAF80030B9F1000F00F02B820B25E4
:104A50003B7997F802C0387BFD7053E0BAF800202C
:104A60008AF8099089EA020989EA09195FFA89F93D
:104A70004FEA1913387B83EA122343EA092383EAB6
:104A8000C909C1074FF00003AAF800908AF80A305C
:104A90008AF80B3040F1FE819AF80390B9F1000FCB
:104AA00000F0B8820B253B7997F802C0FD7029E031
:104AB00010110020580E0020381200201411002080
:104AC00001300008FFFFFE00DC5F0008BAF800209C
:104AD0008AF8089089EA020989EA09195FFA89F9CE
:104AE0004FEA191383EA122343EA092383EAC90927
:104AF000AAF8009008259AF803903B7997F802C02D
:104B0000387BFD707A793989002602F1010EC24A9C
:104B1000D570C24D1371022E4FF0000382F805E0EC
:104B20001181A2F80AC01073BB7085F8039000F0E1
:104B30005381032E00F05381002E3FF46AAEAA6821
:104B4000110A00F0758121297FF463AE4E461C2EB8
:104B50004A4605F10C0128BF1C2205A8CDE9053302
:104B6000CDE90733CDE909330B93FDF735FE069800
:104B7000AB4DFCF791FF9EA3D3E90023FDF720F98D
:104B800006460F46C5E904670798FCF785FF98A31A
:104B9000D3E90023FDF714F9099A95F824302A6225
:104BA0000122804689469342C5E906892A727FF42C
:104BB0002DAE32463B4690A1D1E90001FCF71EFE26
:104BC0008FA3D3E90023FCF7D1FF02460B46CDE9C2
:104BD0000023304688A3D3E900233946FCF710FEB2
:104BE000904B0022FCF7C2FF85A3D3E90023FCF71A
:104BF000BDFFFBF77BFB424606460F464B4682A1B4
:104C0000D1E90001FCF7FAFD7DA3D3E90023FCF70D
:104C1000ADFF32463B46FCF7A9FF02460B46FCF7C8
:104C2000A5FFDDE9002306460F4610461946FCF7AE
:104C30009DFF02460B4630463946FCF7E1FDFBF787
:104C4000A5FB73A3D3E90023FCF790FFFDF766FAF9
:104C50007549FDF769FD00283FF4D8ADFFF7A0FACC
:104C6000022385F82430D1E5DAF80830BAF80010CC
:104C700097F802C0387BC3F317238AF8093043EA58
:104C8000092389EA010989EA09195FFA89F94FEAD2
:104C9000191282EA112242EA092282EAC9090A2586
:104CA000C3F307221B0CAAF800908AF80B309AF87D
:104CB00003903B79FD708AF80A2023E7BAF80010C8
:104CC000387B97F802C08AF8039089EA010383EAE7
:104CD0000313DBB21A0982EA112242EA032282EAB2
:104CE000C303AAF8003010F001034FF0000214BF14
:104CF000052503253A711CBFAAF804201346FD7050
:104D000000E7BAF800208AF8079089EA020989EAE0
:104D100009195FFA89F94FEA191383EA122343EA62
:104D2000092383EAC909AAF800900725E3E6BAF83F
:104D300000208AF8069089EA020989EA09195FFACF
:104D400089F94FEA191383EA122343EA092383EA14
:104D5000C909AAF800900625CDE6BAF800208AF81D
:104D6000059089EA020989EA09195FFA89F94FEA87
:104D7000191383EA122343EA092383EAC909AAF82B
:104D800000900525B7E619F0FE0F8AF8049000F0B0
:104D9000A88097F802C09AF803903B79387B0CF111
:104DA000010C01255FFA8CFCFD70ABE62368A34281
:104DB0000CD1002383F311882DE5E2689B6892688B
:104DC0009A42BFF463AD1948FDF76AFEE2689B683A
:104DD00092689A42EDD2F6E7BAF814312B8001239B
:104DE0000022B8F1FD0FBB703A704AD0FB7010E59D
:104DF00000000000D0126341F9DC09F65FC54040B5
:104E0000399D52A246DF913F00C8091346475240E0
:104E100000000000AE4D58417413002050120020D5
:104E2000E01000200000E03F000040402C5E000841
:104E30004E464FF08043092E9F4E5B6A8DF810104E
:104E4000CDE902114A4602A828BF092205F10C014A
:104E5000B362FDF7C1FC3378002B00F0D08096F8E8
:104E60002450029B7360002D00F0A380013D012DB2
:104E70003FF6CCAC042B3FF4C9AC002386F82430B9
:104E8000C4E40223FB704FF6FF738AF80320AAF8EC
:104E90000030BEE409259AF803903B7997F802C0E8
:104EA000FD702FE60C253B7997F802C0387BFD702A
:104EB00028E68AF814910E251DE6387B7F4BCAF848
:104EC000003000F0FE0002253B7997F802C03873ED
:104ED000FD704FF0000915E69AF804308AF8159134
:104EE0000FE5BAF8002089EA020989EA09195FFA90
:104EF00089F94FEA191383EA122343EA092383EA63
:104F0000C909AAF800900425F5E5D7E9040152463D
:104F1000FFF72EFA002800F08380FB78102B00F0BA
:104F2000BB8001263E700123FB7040F223125146E4
:104F30006348FDF751FC27E05D1EA94280F0A58083
:104F40004B195E1C26F0010202EB56025D4E56F82C
:104F50002220FEE43B69002B00F087801B6B33B1FD
:104F6000DAF808103846090A984700287DD13E78BB
:104F7000022E1CBF03263E7001235148FB7040F2F5
:104F800023125146FDF728FC012E18BF012563D1DD
:104F90003B899AF806207A7103B97B81013399B273
:104FA0009AF803903B7997F802C0387B3981012544
:104FB000ABE5062B7FF42AACFFF772F8302383F3BE
:104FC0001188414B08934FF4FA71E368099305A8DF
:104FD0000A95FDF7ADFF0820FEF742F9059B13B1D6
:104FE00005A8FDF765FF2368A3425AD1002383F388
:104FF0001188FFF77DF8012386F8243006E4EB7969
:1050000073702B7AB37001233370FFF701F826E732
:10501000194692E70C253B7997F802C0FD7071E5BF
:105020003B691B6B002B3AD0DAF808103846090AA6
:105030009847FB7800287FF471AF102B2CD0032603
:105040003E7070E701223A70DA0783D50F250026FB
:105050000D23FD703E707B739AF803903B797A794B
:10506000398997F802C0387B4FE53E7884E71748C6
:105070000093D21A18440021FDF748FC9AF80390D7
:1050800097F802C0387B009B3CE50C2201FB02F242
:105090000B460C498A5864E402263E7043E7FB78CD
:1050A000CBE7E2689B6892689A429FD20848FDF776
:1050B000F7FC0026D0E700BFE0100020FFFFFD0056
:1050C00050120020DC5F0008013000082011002091
:1050D0002C5F00080000000000000000000000003D
:1050E000704700BF0000000000000000000000004A
:1050F000704700BF0000000000000000000000003A
:10510000FEE700BF000000000000000000000000FB
:10511000F8B5154D154F16491648174A05F1700494
:1051200081420DD9043A034652F8046F43F8046BE8
:105130009942F9D84B1E1B1A23F003030433184479
:10514000874207D97A1E121A22F003020432002184
:10515000FDF7DCFBA54205D0D5E90420D5E906170B
:105160001035DDE7F8BD00BFD46B0008E01A002061
:10517000E01A0020E01A0020B470000800000000CF
:1051800008B51048FDF7ACFF302383F311880E4BB0
:105190005B6813F4006302D183F3118808BDEFF359
:1051A0000983203B4FF08072DA6183F30988074A54
:1051B0001168D2688968926891428CBF044A054A96
:1051C0009A6108BD400C002000ED00E0580E002060
:1051D000E3020008E60200080000000000000000F2
:1051E00008B51048FDF77CFF302383F311880E4B80
:1051F0005B6813F4006302D183F3118808BDEFF3F9
:105200000983203B4FF08072DA6183F30988074AF3
:105210001168D2688968926891428CBF044A054A35
:105220009A6108BDC00C002000ED00E0580E00207F
:10523000E3020008E6020008000000000000000091
:105240002DE9F0474FF08049D9F81030D9F80C20FB
:105250001340DAB2D2439B07C9F810200BD4302395
:1052600083F31188404B5B6813F4006352D183F3DE
:105270001188BDE8F087302383F311883B4E4FF04F
:10528000000A06F110074FF030083469D9F82400FD
:10529000F369A568C21AAA4250D3D4E900211D447B
:1052A000F5610A605160C4F800A03369BB4208BFD1
:1052B000C9F80CA08AF31188D4E903312046984735
:1052C00088F311886369002BDFD0D9F824104A1BBA
:1052D00093421CD33269BA423FD091688B4209D9BC
:1052E000A24202D136E0944234D012685B1A91682F
:1052F0008B42F8D8A36091682260CB1A5168616034
:105300000C60C2E901434FF0FF33B361BBE71848BB
:10531000FDF7C6FBEFF30983203B4FF08072DA61A3
:1053200083F30988114A1168D268896892689142AA
:105330008CBF104A104A9A61BDE8F087BC4205D084
:105340002B44191AF061A160FDF782FD002383F35D
:10535000118884E70948FDF7A3FB2B445A1A20461D
:10536000FDF72EFDF2E700BF00ED00E0580E002033
:10537000C85E0008E3020008E6020008805F00083B
:10538000674B68491A6942F01F022DE9F04F1A6114
:105390001869654E654DDFF89881DFF898A1DFF850
:1053A000989120F01F0018611869186B40F01F00D9
:1053B0001863186D40F01F00186500226FF48A60B2
:1053C0001C6D4A6088605D48C8604FF6DF704861B8
:1053D0004FF4EE4008624FF42A20486258480860B3
:1053E000584C5948726001F5E0514FF0FF3C4FF6C0
:1053F000FF774FF0553E4FF0800BC6F808C0C6F857
:105400000CE0776132627262C6F800B06A60C5F87B
:1054100008C0C5F80CA06F612A626A622A606260E7
:10542000C4F808C0C4F80CE06761226262622260BE
:105430004260C0F808C0C0F80CE0476102624262F6
:1054400002604A604FF08050C1F808C0C1F80C906B
:105450004F610A624A620A604FF400421864C8F859
:1054600000201A6842F001021A601A689407FCD5FD
:1054700099682B4A21F003019960936813F00C039B
:10548000FBD11068264900F0F90010609360536F5B
:1054900043F0010353674B6F9807FCD52B4B4B60D0
:1054A0000B68234A43F080730B6053685904FCD5A2
:1054B0001B4A13689B01FCD5254B264890600321AD
:1054C000C2F88C101A68244B9A421ED0234B40F22B
:1054D00002721A60214A136803F00F03022BFAD1FB
:1054E0000F4A936843F002039360936803F00C0340
:1054F000082BFAD1536C43F480435364536E43F446
:1055000080435366536EBDE8F08F154A154B126801
:105510009A42DBD1114B4FF481721A60DAE700BF77
:10552000003802400000024000040240000802402F
:10553000007000405555550150555555055115649D
:10554000A004802A000C0240001002401054010701
:10555000002004E00010883811640020003C024064
:1055600000ED00E041C20F4100000000000000001B
:105570000D4B10B51C68D86822681A600121536071
:105580002177DC60FDF7C4FBEFF309834269243B1C
:105590009A4205D801462046BDE81040FAF790BE71
:1055A0000248FDF77DFA00BF580E0020005E00089B
:1055B00008B5302383F31188104BDC68A36B60635C
:1055C00004F138059D4207D1A37F73B10F20FDF789
:1055D00047FE0B48FDF764FA1A68A2631846FDF708
:1055E000E7FCA36BAB42EFD0F6E7E36A002BEDD10B
:1055F000D4E9093213605A60E8E700BF580E002072
:10560000BC5F000800000000000000000000000077
:10561000EFF30983203383F30988002383F3118890
:10562000704700BF00000000000000000000000004
:10563000C04BC1481A6962F01F022DE980481A6107
:105640001A6902F01F021A614FF0FF341A695A6991
:105650005C6100215A6959615A691A6A62F0805284
:105660001A621A6A02F080521A621A6A5A6A5C62F4
:105670005A6A59625A6A1A6C42F080521A641A6E57
:1056800042F080521A661A6E026842F4807202601A
:105690001A6F02F44072B2F5007F89B003D04FF464
:1056A00080321A671967A449A44B4A68A44F22F4B0
:1056B00000724A604FF080544022C02020217025A3
:1056C00083F81C53C3F880411C6083F825039D4C6C
:1056D000C3F88411596083F826039B49C3F88421D9
:1056E00038465A60FDF7E4FA984A994B99492046A2
:1056F000C7E91D23FDF7DCFA8E4B974C1A6C446703
:1057000042F001021A641A6E944942F001021A66CC
:105710001B6E8B684FF0804243F001038B604FF0AB
:10572000FF340023012142F2CF059562D4620025A7
:1057300093615363D360536051611160CDE90243BB
:105740000024CDE90645864DCDE90433C5E9013392
:10575000844B29700424836702A8FDF7B9F9FDF78B
:10576000BFF9013CF8D18048804E8149814A029BB3
:10577000AB607160804B5060091A91607F4919627B
:10578000996302F11401C2E905110421D961596339
:105790007B49D461C2E90344116003F110021A612C
:1057A00014229A6103F124025A6203F128029A62D8
:1057B0001C221A6303F13C023060DA6368689C6063
:1057C00003F140021A6403F14402C3E900335C614F
:1057D000DC625A64002840F0E881DFF8A8B16A4A28
:1057E000C5F804B0CBF83840CBF84020302686F31B
:1057F000118862B6CBE901B4CBE93844634ACBF8EF
:105800003C40CBF81C40D0686149CBF8A8B04FF6BB
:10581000FF0C00EA0C000143CBE93144D160D2F81F
:10582000FC105C4841F08071C2F8FC1001684FF038
:10583000200C41F00101016082F81FC082F8226053
:105840004FF080420BF11000536A0193CBE9040042
:105850008020CBF8A000CBF8E8000BEB000A4E4804
:10586000CBF8AC004D48CBF8B0004D48CBF8B800B1
:10587000DDF804804B4ACBF800B04FF0FF30022631
:105880000BF1D40ECBF81800A1460BF1D000CBF8E9
:10589000D4E0CBF8D000CBF82060CBE90A89CBF874
:1058A000D8E00BF1980E0BF14400CBF80CE002F5B8
:1058B000807ECBF85CE000F1380ECBF87CE0DFF8BE
:1058C000E8E0CBF864E002F1DC0ECBF850E0DFF862
:1058D000DCE0C2F8DCE00BF1300CDFF8D4E0C2F819
:1058E000FCE001210BF16803CBF8C0C0CBF868C025
:1058F000C2F8E0400BF1BC0CCBF85820CBE91C44BB
:10590000CBE92344CBE920AACBF8EC40CBF830C05C
:10591000CBF86CC0ABF8B4108BF8B610CBF84C10C9
:10592000CBF854B0CBF894108BF86210ABF86060F1
:1059300040E000BF003802400070004000E100E09D
:10594000400C0020C00C0020812A000800100140FB
:1059500000BD0105912A000800440040002004E039
:10596000B010002080DE8002E01A0020A810002085
:1059700000800120BC10002060100020312B0008A6
:10598000612D0008580E0020C85F000800ED00E0FF
:105990000003FA05001000E00004002000080020C9
:1059A000185E0008600F0020205E0008C12A000871
:1059B000D1020008CBF8BC30CBF83430FDF7F8FA50
:1059C000DBF800202E705A4540F0F280002585F368
:1059D0001188DFF81082844C4FF4005A012251469E
:1059E0004046FCF7EDFF0326A8F818A04FF0300959
:1059F0004FF40053A8F81A3089F3118840F2DC51B3
:105A0000DBF80C30069302A805940795FDF790FA91
:105A10000820FDF725FC029B13B102A8FDF748FA08
:105A2000DBF800305B4540F0B88085F31188A8F8BA
:105A300018A089F3118840F2DC51DBF80C30069392
:105A400002A805940795FDF773FA0820FDF708FCF6
:105A5000029B13B102A8FDF72BFADBF800305B457F
:105A600040F0938085F31188013EC1D15F4840F238
:105A700082324FF40071FCF7A3FF40F282324FF400
:105A80008061FCF79DFF302282F311883A7A511E23
:105A9000012900F29780012A6CD0D7E91D205449D2
:105AA00000F5E140A1FB0031B0F1614F4FEAD13187
:105AB00080F08B809160402111610121516142F29F
:105AC0002C11D1600021116011685268FF2287F803
:105AD0007C2002223A72DBF800205A4578D100215E
