:020000040800F2
:1000000000040020B9020008BB020008BB0200087F
:10001000BB020008BB020008BB020008BB020008CC
:10002000BB020008BB020008BB020008913F0008A9
:10003000BB020008BB020008BB020008BB020008AC
:10004000BB020008BB020008BB020008BB0200089C
:10005000BB020008BB020008BB020008BB0200088C
:10006000BB020008BB020008BB020008BB0200087C
:10007000BB020008BB020008BB020008BB0200086C
:10008000BB020008BB020008BB020008BB0200085C
:10009000BB020008BB020008BB020008BB0200084C
:1000A000BB020008BB020008BB020008BB0200083C
:1000B000C13B0008BB020008BB020008BB020008ED
:1000C000BB020008BB020008BB020008BB0200081C
:1000D000BB020008013B0008613B0008BB020008AE
:1000E000BB020008BB020008BB020008BB020008FC
:1000F000BB020008BB020008BB020008BB020008EC
:10010000BB020008BB020008BB020008BB020008DB
:10011000BB020008BB020008BB020008BB020008CB
:10012000BB020008BB020008BB020008BB020008BB
:10013000BB020008BB020008BB020008BB020008AB
:10014000BB020008BB020008BB020008BB0200089B
:10015000BB020008BB020008BB020008BB0200088B
:10016000BB020008BB020008BB020008BB0200087B
:10017000BB020008BB020008BB020008BB0200086B
:10018000BB020008BB020008BB020008BB0200085B
:10019000BB020008BB020008BB020008BB0200084B
:1001A000BB020008BB020008BB020008BB0200083B
:1001B000BB020008BB020008BB020008BB0200082B
:1001C000BB020008BB020008BB020008BB0200081B
:1001D000BB020008BB020008BB020008BB0200080B
:1001E00072B6264880F30888254880F30988254898
:1001F00025490860022080F31488BFF36F8F03F055
:1002000037FC03F07DFD4FF0553020491B4A9142E9
:100210003CBF41F8040BFAE71D49194A91423CBF23
:1002200041F8040BFAE71B491B4A1C4B9A423EBF9C
:1002300051F8040B42F8040BF8E700201849194A5A
:1002400091423CBF41F8040BFAE703F029FC03F0AC
:1002500017FC154C154DAC4203DA54F8041B8847C3
:10026000F9E703F0A5FE124C124DAC4203DA54F844
:10027000041B8847F9E703F00BBC000000040020D2
:10028000000800200000000808ED00E00000002049
:1002900000040020106C000800080020280900203D
:1002A0004009002010190020E0010008E0010008CA
:1002B000E0010008E001000892E700F000F8FEE726
:1002C0002DE9F04FC1F80CD0C3689D46BDE8F08F12
:1002D000002383F311882846A047002003F028FE5E
:1002E000FEE703F005FE00DFFEE7000081F00041BD
:1002F00002E000BF83F0004330B54FEA41044FEA0B
:10030000430594EA050F08BF90EA020F1FBF54EAA5
:10031000000C55EA020C7FEA645C7FEA655C00F041
:10032000E2804FEA5454D4EB5555B8BF6D420CDD12
:100330002C4480EA020281EA030382EA000083EA95
:10034000010180EA020281EA0303362D88BF30BD35
:1003500011F0004F4FEA01314FF4801C4CEA11318B
:1003600002D0404261EB410113F0004F4FEA0333EA
:100370004CEA133302D0524263EB430394EA050F75
:1003800000F0A780A4F10104D5F1200E0DDB02FAE4
:100390000EFC22FA05F2801841F1000103FA0EF278
:1003A000801843FA05F359410EE0A5F120050EF13E
:1003B000200E012A03FA0EFC28BF4CF0020C43FA6F
:1003C00005F3C01851EBE37101F0004507D54FF07C
:1003D000000EDCF1000C7EEB00006EEB0101B1F5CC
:1003E000801F1BD3B1F5001F0CD349085FEA300012
:1003F0004FEA3C0C04F101044FEA445212F5800F1D
:1004000080F09A80BCF1004F08BF5FEA500C50F1B9
:10041000000041EB045141EA050130BD5FEA4C0C9C
:10042000404141EB0101013C28BFB1F5801FE9D2F9
:1004300091F0000F04BF01460020B1FA81F308BF1C
:100440002033A3F10B03B3F120020CDA0C3208DDE8
:1004500002F1140CC2F10C0201FA0CF021FA02F1C3
:100460000CE002F11402D8BFC2F1200C01FA02F133
:1004700020FA0CFCDCBF41EA0C019040E41AA2BF58
:1004800001EB0451294330BD6FEA04041F3C1CDA20
:100490000C340EDC04F11404C4F1200220FA04F040
:1004A00001FA02F340EA030021FA04F345EA0301EA
:1004B00030BDC4F10C04C4F1200220FA02F001FAAC
:1004C00004F340EA0300294630BD21FA04F029462E
:1004D00030BD94F0000F83F4801306BF81F48011C7
:1004E0000134013D4EE77FEA645C18BF7FEA655C3A
:1004F00029D094EA050F08BF90EA020F05D054EA0C
:10050000000C04BF1946104630BD91EA030F1EBF10
:100510000021002030BD5FEA545C05D14000494114
:1005200028BF41F0004130BD14F580043CBF01F507
:10053000801130BD01F0004545F0FE4141F47001ED
:100540004FF0000030BD7FEA645C1ABF19461046C8
:100550007FEA655C1CBF0B46024650EA013406BFC9
:1005600052EA033591EA030F41F4002130BD00BF88
:1005700090F0000F04BF0021704730B54FF4806445
:1005800004F132044FF000054FF0000150E700BFC6
:1005900090F0000F04BF0021704730B54FF4806425
:1005A00004F1320410F0004548BF40424FF0000112
:1005B0003EE700BF42004FEAE2014FEA31014FEA55
:1005C00002701FBF12F07F4393F07F4F81F06051A4
:1005D000704732F07F4208BF704793F07F4F04BFEF
:1005E00041F40021704730B54FF4607401F00045CC
:1005F00021F000411CE700BF50EA010208BF70472C
:1006000030B54FF000050AE050EA010208BF70471C
:1006100030B511F0004502D5404261EB41014FF485
:10062000806404F132045FEA915C3FF4D8AE4FF08D
:1006300003025FEADC0C18BF03325FEADC0C18BF70
:10064000033202EBDC02C2F1200300FA03FC20FAC1
:1006500002F001FA03FE40EA0E0021FA02F114440E
:10066000BDE600BF70B54FF0FF0C4CF4E06C1CEA27
:1006700011541DBF1CEA135594EA0C0F95EA0C0F98
:1006800000F0DEF82C4481EA030621EA4C5123EA0B
:100690004C5350EA013518BF52EA033541F480113A
:1006A00043F4801338D0A0FB02CE4FF00005E1FBED
:1006B00002E506F00042E0FB03E54FF00006E1FB37
:1006C00003569CF0000F18BF4EF0010EA4F1FF047A
:1006D000B6F5007F64F5407404D25FEA4E0E6D41BA
:1006E00046EB060642EAC62141EA55514FEAC520CB
:1006F00040EA5E504FEACE2EB4F1FD0C88BFBCF547
:10070000E06F1ED8BEF1004F08BF5FEA500E50F1F7
:10071000000041EB045170BD06F0004646EA0101BD
:1007200040EA020081EA0301B4EB5C04C2BFD4EBEF
:100730000C0541EA045170BD41F480114FF0000EE8
:10074000013C00F3AB8014F1360FDEBF002001F056
:10075000004170BDC4F10004203C35DA0C341BDCD0
:1007600004F11404C4F1200500FA05F320FA04F0A2
:1007700001FA05F240EA020001F0004221F00041D6
:1007800010EBD37021FA04F642EB06015EEA430E49
:1007900008BF20EAD37070BDC4F10C04C4F1200579
:1007A00000FA04F320FA05F001FA04F240EA02002C
:1007B00001F0004110EBD37041F100015EEA430EFD
:1007C00008BF20EAD37070BDC4F1200500FA05F21D
:1007D0004EEA020E20FA04F301FA05F243EA02039C
:1007E00021FA04F001F0004121FA04F220EA0200AB
:1007F00000EBD3705EEA430E08BF20EAD37070BDF1
:1008000094F0000F0FD101F00046400041EB0101D0
:1008100011F4801F08BF013CF7D041EA060195F0B2
:10082000000F18BF704703F00046520043EB03036C
:1008300013F4801F08BF013DF7D043EA0603704759
:1008400094EA0C0F0CEA135518BF95EA0C0F0CD064
:1008500050EA410618BF52EA4306D1D181EA0301AA
:1008600001F000414FF0000070BD50EA410606BFA4
:100870001046194652EA430619D094EA0C0F02D1E9
:1008800050EA013613D195EA0C0F05D152EA03362E
:100890001CBF104619460AD181EA030101F000414C
:1008A00041F0FE4141F470014FF0000070BD41F095
:1008B000FE4141F4780170BD70B54FF0FF0C4CF46F
:1008C000E06C1CEA11541DBF1CEA135594EA0C0F8E
:1008D00095EA0C0F00F0A7F8A4EB050481EA030EDB
:1008E00052EA03354FEA013100F088804FEA0333C2
:1008F0004FF0805545EA131343EA12634FEA022290
:1009000045EA111545EA10654FEA00260EF0004150
:100910009D4208BF964244F1FD0404F5407402D2A2
:100920005B084FEA3202B61A65EB03055B084FEA33
:1009300032024FF480104FF4002CB6EB020E75EB30
:10094000030E22BFB61A754640EA0C005B084FEA58
:100950003202B6EB020E75EB030E22BFB61A7546D5
:1009600040EA5C005B084FEA3202B6EB020E75EB20
:10097000030E22BFB61A754640EA9C005B084FEA98
:100980003202B6EB020E75EB030E22BFB61A7546A5
:1009900040EADC0055EA060E18D04FEA051545EA94
:1009A00016754FEA06164FEAC30343EA52734FEA3D
:1009B000C2025FEA1C1CC0D111F4801F0BD141EAB6
:1009C00000014FF000004FF0004CB6E711F4801F1B
:1009D00004BF01430020B4F1FD0C88BFBCF5E06FFB
:1009E0003FF6AFAEB5EB030C04BFB6EB020C5FEA0B
:1009F000500C50F1000041EB045170BD0EF0004E60
:100A00004EEA113114EB5C04C2BFD4EB0C0541EA91
:100A1000045170BD41F480114FF0000E013C90E68E
:100A200045EA060E8DE60CEA135594EA0C0F08BF52
:100A300095EA0C0F3FF43BAF94EA0C0F0AD150EA51
:100A400001347FF434AF95EA0C0F7FF425AF1046E4
:100A500019462CE795EA0C0F06D152EA03353FF40C
:100A6000FDAE1046194622E750EA410618BF52EA89
:100A700043067FF4C5AE50EA41047FF40DAF52EA5D
:100A800043057FF4EBAE12E74FF0FF3C06E000BFFA
:100A90004FF0010C02E000BF4FF0010C4DF804CD07
:100AA0004FEA410C7FEA6C5C4FEA430C18BF7FEAC7
:100AB0006C5C1BD001B050EA410C0CBF52EA430CF5
:100AC00091EA030F02BF90EA020F0020704710F175
:100AD000000F91EA030F58BF994208BF90422CBF04
:100AE000D8176FEAE37040F0010070474FEA410CFD
:100AF0007FEA6C5C02D150EA013C07D14FEA430C1B
:100B00007FEA6C5CD6D152EA033CD3D05DF8040B8B
:100B1000704700BF8446104662468C4619466346BD
:100B200000E000BF01B5FFF7B7FF002848BF10F194
:100B3000000F01BD4DF808EDFFF7F4FF0CBF0120D9
:100B400000205DF808FB00BF4DF808EDFFF7EAFF55
:100B500034BF012000205DF808FB00BF4DF808ED10
:100B6000FFF7E0FF94BF012000205DF808FB00BF05
:100B70004DF808EDFFF7CEFF94BF012000205DF88F
:100B800008FB00BF4DF808EDFFF7C4FF34BF01209C
:100B900000205DF808FB00BF4FEA410C7FEA6C5C67
:100BA00002D150EA013C0AD14FEA430C7FEA6C5C67
:100BB00002D152EA033C02D14FF0000070474FF0DF
:100BC000010070474FEA410212F5001215D211D50B
:100BD0006FF47873B3EB625212D94FEAC12343F03A
:100BE000004343EA505311F0004F23FA02F018BFBC
:100BF000404270474FF00000704750EA013005D185
:100C000011F0004008BF6FF0004070474FF0000047
:100C1000704700BF4FEA4102B2F1E04324BFB3F591
:100C2000001CDCF1FE5C0DD901F0004C4FEAC00263
:100C30004CEA5070B2F1004F40EB830008BF20F047
:100C40000100704711F0804F21D113F13872BCBF01
:100C500001F00040704741F480114FEA5252C2F156
:100C60001802C2F1200C10FA0CF320FA02F018BF9F
:100C700040F001004FEAC1234FEAD32303FA0CFCF2
:100C800040EA0C0023FA02F34FEA4303CCE77FEA81
:100C9000625307D150EA01331EBF4FF0FE4040F4CB
:100CA0004000704701F0004040F0FE4040F400007A
:100CB000704700BF80F0004002E000BF81F00041BB
:100CC00042001FBF5FEA410392EA030F7FEA226CF2
:100CD0007FEA236C6AD04FEA1262D2EB1363C1BF82
:100CE000D218414048404140B8BF5B42192B88BFF1
:100CF000704710F0004F40F4000020F07F4018BF14
:100D0000404211F0004F41F4000121F07F4118BF33
:100D1000494292EA030F3FD0A2F1010241FA03FCDB
:100D200010EB0C00C3F1200301FA03F100F00043C3
:100D300002D5494260EB4000B0F5000F13D3B0F18B
:100D4000807F06D340084FEA310102F10102FE2AFA
:100D500051D2B1F1004F40EBC25008BF20F001006A
:100D600040EA03007047490040EB0000013A28BF09
:100D7000B0F5000FEDD2B0FA80FCACF1080CB2EB8C
:100D80000C0200FA0CF0AABF00EBC250524218430A
:100D9000BCBFD0401843704792F0000F81F40001AF
:100DA00006BF80F400000132013BB5E74FEA410382
:100DB0007FEA226C18BF7FEA236C21D092EA030FEE
:100DC00004D092F0000F08BF0846704790EA010F68
:100DD0001CBF0020704712F07F4F04D1400028BF95
:100DE00040F00040704712F100723CBF00F5000077
:100DF000704700F0004343F0FE4040F400007047AD
:100E00007FEA226216BF08467FEA23630146420258
:100E100006BF5FEA412390EA010F40F4800070476B
:100E20004FF0000304E000BF10F0004348BF404211
:100E30005FEA000C08BF704743F0964301464FF04D
:100E400000001CE050EA010208BF70474FF00003A9
:100E50000AE000BF50EA010208BF704711F00043EA
:100E600002D5404261EB41015FEA010C02BF8446BA
:100E70000146002043F0B64308BFA3F18053A3F519
:100E80000003BCFA8CF2083AA3EBC25310DB01FA60
:100E900002FC634400FA02FCC2F12002BCF1004FE4
:100EA00020FA02F243EB020008BF20F00100704775
:100EB00002F1200201FA02FCC2F1200250EA4C00C9
:100EC00021FA02F243EB020008BF20EADC7070470F
:100ED0004FF0FF0C1CEAD0521EBF1CEAD15392EA1D
:100EE0000C0F93EA0C0F6FD01A4480EA010C4002F9
:100EF00018BF5FEA41211ED04FF0006343EA501053
:100F000043EA5111A0FB01310CF00040B1F5000F94
:100F10003EBF490041EAD3715B0040EA010062F143
:100F20007F02FD2A1DD8B3F1004F40EBC25008BF2D
:100F300020F00100704790F0000F0CF0004C08BF4B
:100F400049024CEA502040EA51207F3AC2BFD2F118
:100F5000FF0340EAC250704740F400004FF0000326
:100F6000013A5DDC12F1190FDCBF00F00040704760
:100F7000C2F10002410021FA02F1C2F1200200FA9E
:100F800002FC5FEA310040F1000053EA4C0308BF65
:100F900020EADC70704792F0000F00F0004C02BFB6
:100FA000400010F4000F013AF9D040EA0C0093F031
:100FB000000F01F0004C02BF490011F4000F013B8B
:100FC000F9D041EA0C018FE70CEAD15392EA0C0FF9
:100FD00018BF93EA0C0F0AD030F0004C18BF31F064
:100FE000004CD8D180EA010000F00040704790F03A
:100FF000000F17BF90F0004F084691F0000F91F0DE
:10100000004F14D092EA0C0F01D142020FD193EAA3
:101010000C0F03D14B0218BF084608D180EA01002B
:1010200000F0004040F0FE4040F40000704740F007
:10103000FE4040F4400070474FF0FF0C1CEAD052D5
:101040001EBF1CEAD15392EA0C0F93EA0C0F69D031
:10105000A2EB030280EA010C49024FEA402037D09C
:101060004FF0805343EA111143EA10130CF0004093
:101070008B4238BF5B0042F17D024FF4000C8B4283
:1010800024BF5B1A40EA0C00B3EB510F24BFA3EB63
:10109000510340EA5C00B3EB910F24BFA3EB910333
:1010A00040EA9C00B3EBD10F24BFA3EBD10340EA8D
:1010B000DC001B0118BF5FEA1C1CE0D1FD2A3FF6D3
:1010C00050AF8B4240EBC25008BF20F00100704788
:1010D0000CF0004C4CEA50207F32C2BFD2F1FF032B
:1010E00040EAC250704740F400004FF00003013A5C
:1010F00037E792F0000F00F0004C02BF400010F400
:10110000000F013AF9D040EA0C0093F0000F01F013
:10111000004C02BF490011F4000F013BF9D041EA35
:101120000C0195E70CEAD15392EA0C0F08D1420268
:101130007FF47DAF93EA0C0F7FF470AF084676E73B
:1011400093EA0C0F04D14B023FF44CAF08466EE714
:1011500030F0004C18BF31F0004CCAD130F00042E2
:101160007FF45CAF31F000437FF43CAF5FE700BF3A
:101170004FF0FF3C06E000BF4FF0010C02E000BF63
:101180004FF0010C4DF804CD4FEA40024FEA410305
:101190007FEA226C18BF7FEA236C11D001B052EABB
:1011A000530C18BF90EA010F58BFB2EB030088BF81
:1011B000C81738BF6FEAE17018BF40F001007047F0
:1011C0007FEA226C02D15FEA402C05D17FEA236CD2
:1011D000E4D15FEA412CE1D05DF8040B704700BF19
:1011E000844608466146FFE70FB5FFF7C9FF0028B0
:1011F00048BF10F1000F0FBD4DF808EDFFF7F4FFE9
:101200000CBF012000205DF808FB00BF4DF808ED81
:10121000FFF7EAFF34BF012000205DF808FB00BFA4
:101220004DF808EDFFF7E0FF94BF012000205DF8C6
:1012300008FB00BF4DF808EDFFF7D2FF94BF012077
:1012400000205DF808FB00BF4DF808EDFFF7C8FF70
:1012500034BF012000205DF808FB00BF844641EA4E
:10126000000313F003036DD1403A41D351F8043B1E
:1012700040F8043B51F8043B40F8043B51F8043B70
:1012800040F8043B51F8043B40F8043B51F8043B60
:1012900040F8043B51F8043B40F8043B51F8043B50
:1012A00040F8043B51F8043B40F8043B51F8043B40
:1012B00040F8043B51F8043B40F8043B51F8043B30
:1012C00040F8043B51F8043B40F8043B51F8043B20
:1012D00040F8043B51F8043B40F8043B51F8043B10
:1012E00040F8043B51F8043B40F8043B403ABDD27F
:1012F000303211D351F8043B40F8043B51F8043B21
:1013000040F8043B51F8043B40F8043B51F8043BDF
:1013100040F8043B103AEDD20C3205D351F8043BAF
:1013200040F8043B043AF9D2043208D0D2071CBF7B
:1013300011F8013B00F8013B01D30B8803806046A4
:10134000704700BF082A13D38B078DD010F003031A
:101350008AD0C3F10403D21ADB071CBF11F8013B8A
:1013600000F8013B80D331F8023B20F8023B7BE7D9
:10137000043AD9D3013A11F8013B00F8013BF9D204
:101380000B7803704B7843708B788370604670479E
:10139000012914BF6FF01300002070470000000007
:1013A0002DE9F04702F00305D409AE464FF0000CDA
:1013B0004FF0010803270F2614E0D0F800A003EA3D
:1013C0000A0343EA0E03BCF1070F036040D8036A27
:1013D00003EA090313430362490837D04FEA8E0E2C
:1013E0000CF1010CCB07F7D5436808FA0CF223EA9D
:1013F0000203436082684FEA4C0307FA03F322EAD0
:1014000003028260D0F80C900CF0070229EA03096D
:101410009200C0F80C90022D06FA02F96FEA03035D
:1014200004FA02F26FEA0909C7D1BCF1070F15D817
:10143000D0F820A00AEA090949EA02020262026819
:10144000134043EA0E0349080360C7D1BDE8F087A3
:10145000436A03EA090313434362BDE7D0F824A0BB
:101460000AEA090949EA02024262E8E700000000CC
:10147000024AD36843F0C003D360704700100140B4
:10148000024AD36843F0C003D36070470044004071
:1014900072B60349034BC1F8EC0003221A70FEE751
:1014A000E8160020D8150020000000000000000011
:1014B000FEE700BF00000000000000000000000088
:1014C000014B5B6883607047001000E00000000083
:1014D0000E4A0F4B81685B6810B4946802691B1B4D
:1014E0005B1AD218416902614268C46841F1000187
:1014F0009342026888BF436001349342C0E90234DA
:10150000416110BC38BF0360704700BFD815002090
:10151000001000E0000000000000000000000000DB
:101520000A4B10B4D3E90042A2EB040C604509D881
:10153000101A49420840844204D8824202D310BCA7
:1015400058607047002010BC704700BFD0150020C5
:101550002DE9F04FCBB083680193C3680293036910
:1015600003934369049383690593C3690693036AEC
:1015700007930E46436A089383460FCE0AAF3C4654
:101580000FC70FCE0FC70FCE0FC796E80F0087E823
:101590000F000A9910463AAD1A46676A0E464FEA9E
:1015A000F04354F8041F83EA704383EA9023104603
:1015B0004FEAB14282EAF11282EAD1023B4413447B
:1015C000F218AC42E263E8D109ABDDE9076ADDE974
:1015D0000507DDE903E9DDE901C42F4D0093CDF8EE
:1015E00024B005E03E46A6460746644640469C4673
:1015F000DDF8008055F8042F58F8041FCDF800805E
:101600004FEAF02383EAB0130A4483EA7063134479
:1016100026EA000800EA070288EA020884EA0E01C6
:101620004FEA7C3282EABC0201EA0C0104EA0E0BAA
:10163000434482EABC5281EA0B0153440A4403EB5F
:1016400009081344154A9542B246F146CAD1019A97
:101650000399049DDDF824B01A441346029A6244AB
:10166000DDF818C084446046DDF81CC02144BC4449
:101670000C4667460599DDF820C075444144B444E2
:10168000CBE90232CBE90445CBE90610CBE9087C73
:101690004BB0BDE8F08F00BF8C5C00088C5D00088B
:1016A00008B5037F93B10F2B10D000220369027796
:1016B0001A6851688B420CD18168D2F808C08C45F9
:1016C0000AD8C0E900231860506008BD0348FFF73E
:1016D000DFFE0348FFF7DCFE1346E9E75069000828
:1016E0003869000800000000000000000000000051
:1016F00038B5302383F31188124BD3E90054A4EB9F
:10170000050C604510D8201A49420840821A9542BB
:101710000AD8944208D35A600B4B1A689A4209D1EE
:10172000002383F3118838BD074B1A689A424FF0A3
:101730000000F5D0D96893688A689A42F0D20348CD
:10174000FFF7A6FED0150020E8160020FC68000870
:101750001D4B70B503F11004D96144601C698260AF
:101760000460606018614FF080401D6AC468AA423E
:1017700038BF2A4614F0020401EB02061ED146636C
:1017800004610224C460446A661AB24298BF2E46BD
:1017900002D970BD21461446C26801369207314411
:1017A0000FD54163426A111BB142F3D2B542F0D268
:1017B000DA6B1E6242F00102DA6370BD0348FFF784
:1017C00067FE0348FFF764FEE8160020805C00080F
:1017D000745C000800000000000000000000000031
:1017E000154A4FF0804370B5146ADD68A14238BFD6
:1017F0002146AD0701EB000619D55E635D6A281A24
:10180000814200D970BD2146D8680131800701EBC3
:1018100005060CD55E63586A451B8D420AD28C4280
:10182000F0D2D36B116243F00103D36370BD034860
:10183000FFF72EFE0546E7E7E8160020745C000877
:1018400038B5036853B3194A116988420CD0D0E9FE
:101850000145996823602944C3E9014100214FF003
:10186000FF330160936138BD1146002541F8103FF8
:101870005960056014698C4213D08068A3684FF0EA
:1018800080410344A360486AD169421A9342EAD96D
:10189000091A1944BDE83840FFF7A2BF0448FFF712
:1018A000F7FD4FF08043DD6038BD00BFE816002033
:1018B0006469000800000000000000000000000053
:1018C000F8B54FF080431C4FD3F824C03B460A467E
:1018D00053F8105F9D422AD0FC69AB68ACEB04045E
:1018E0000C1928BF0C46A34206461BD89C4209D9B6
:1018F000B54202D113E0AE4211D02D68E41AAB68B4
:101900009C42F8D86B68B460C6E900531E60AB68AF
:101910006E601B1B4FF0FF32AB60BA61F8BD074829
:10192000FFF7B6FD6046FFF75BFFAB68DEE7BDE89B
:10193000F8406146FFF70CBFE81600207469000804
:1019400008B5037F93B10F2B10D0002203690277F3
:101950001A6851688B420CD18168D2F808C08C4556
:101960000AD2C0E900231860506008BD0348FFF7A1
:101970008FFD0348FFF78CFD1346E9E7FC5B000889
:10198000E45B000800000000000000000000000010
:1019900008B50846302383F311880B7F0C2B10D831
:1019A000DFE803F0140F0F180B070F0B0F0F0F0FCB
:1019B0000B004A6B936801339360D0E900321360E7
:1019C0005A604FF0FF334363FFF7BAFF002383F3FE
:1019D000118808BD4B6B00221A60F2E7000000007E
:1019E000F8B50468A0422BD007460D4600260CE04F
:1019F000D4E90103816C027F0B430A2A836416D069
:101A00000B2A1ED02468A7421AD0E3682B43E36058
:101A1000002DEDD023691D42EAD12468BC420FD0CD
:101A2000E3682B43E36023691D42E1D1F5E7426B94
:101A30001342E7D04663FFF783FF2468A742E4D14F
:101A4000F8BD426B9A43DDD1F4E700BF000000000F
:101A500008B50346006883420BD002681A605360E1
:101A6000037F042B06D100234363BDE80840FFF742
:101A700067BF08BD0148FFF70BFD00BF605C0008B1
:101A80002DE9F843D0F87480D8F800300546D80521
:101A90009CB279D4302383F3118814F02F0F46D0F1
:101AA0002E1D05F10C0709E0A406D8F804901ED4F9
:101AB000D8F8003013F02F0F9CB238D02107F3D0A4
:101AC00044F30001C4F3C00301F0200141EA032103
:101AD000A20748BF41F04001630748BF41F08001C1
:101AE0003046FFF77DFFA406D8F80490E0D56B6977
:101AF00095F87C40002B36D0D5E9083293423AD095
:101B00006A69591C013204EA090429626A611C707D
:101B1000D5E907329A4224BFAB692B623846FFF7FA
:101B200097FFD8F8003013F02F0F9CB2C6D10023D6
:101B300083F31188D8F80C3018069EB201D521061F
:101B400032D472060BD5630609D5302383F311888E
:101B5000D5E911239A4243D0002383F31188C8F8B2
:101B60000C60BDE8F88304216818FFF739FFD5E958
:101B700008329342C4D16A69002AC1D04FF400618F
:101B8000281DFFF72DFF93E7302383F311884FF4CF
:101B90008061281DFFF724FF6FF480720023C8F8CE
:101BA000002083F3118875E7302383F31188D5E98A
:101BB00011239A421FD0AA6B0132AA635A1CAA644D
:101BC0001F782B6C9A4201D3EB6BAB6405F13000AC
:101BD000FFF73EFFC8F80470002383F31188B0E7D5
:101BE000AB6B002BB8D01021281D26F04006FFF764
:101BF000F7FEB6B2B0E7AA6B002ADCD00821281D98
:101C000026F08006FFF7ECFEB6B2E5E70000000024
:101C1000134A5368D16810B59C68012C1CD19942B5
:101C200017D00B69934214D11A68087710681860AE
:101C300043601477DA60EFF309834869243B9842E4
:101C400004D8BDE810401046FEF73ABB0548FFF740
:101C50001FFC0548FFF71CFC0448FFF719FC00BFF8
:101C6000E8160020B85B000828690008146900081D
:101C700030B50F4BDD684B1C87B013D00D4B0446BD
:101C8000CDE90335684600230593FFF719FE20468A
:101C9000FFF7BEFF009B13B16846FFF7D1FD686BED
:101CA00007B030BDFFF7B4FF686B07B030BD00BFB1
:101CB000E816002091190008000000000000000054
:101CC0002DE9F04F85B0D0F81C90029316464FF0E6
:101CD000300A8AF31188002A77D0DFF8F480039263
:101CE0004E46044693468946A268A16927695A452B
:101CF00034BFA5685D467F1AAF424FD832D23A460C
:101D00004846FFF7ABFAEA1BE168019209EB0700CE
:101D1000FFF7A4FA019AE1681144A268A161521B7D
:101D2000A2600EB12046B047D8F8002042453CD111
:101D3000002383F31188ABEB050BA9448AF31188C8
:101D4000BBF1000FD0D1039E4FF0000BD8F800205C
:101D5000424533D1002282F31188A6EB0B0005B077
:101D6000BDE8F08F2A464846FFF778FAE168A26896
:101D7000A161521BA260002DD3D1029BD8F80C2088
:101D800053B161680420C2E900410A6019466260EB
:101D9000FFF76EFF0028A7D0039ED7E72A464846E4
:101DA000FFF75CFAA1692944E1E7D8F80C109268C2
:101DB00089689142BCD20748FFF76AFBD8F80C103B
:101DC000926889689142C5D2F5E7DFF80480BBE7E5
:101DD000E8160020906900080000000000000000E4
:101DE0004FF0FF330C30FFF76BBF00BF0000000067
:101DF0000C30FFF765BF00BF0000000000000000CE
:101E000070B53023044683F311888368002B3DD1DD
:101E1000224E0D46F36809B927E0F3686268294647
:101E2000C3E90042042013606360FFF721FF00282C
:101E30001DDBA368002BF0D0A368A169013BA36060
:101E400023694A1C9A4228BFE368A2610D7828BF23
:101E5000A361E3690BB1204698473368B3420DD1C3
:101E6000002383F31188284670BD4FF0FF3033689C
:101E7000B3420DD1002383F3118870BDF2689B68D3
:101E800092689A42ECD20648FFF702FB034ED3E772
:101E9000F2689B6892689A42ECD2F4E7E816002058
:101EA0009069000800000000000000000000000031
:101EB0004FF0FF310C30FFF7A3BF00BF0000000060
:101EC0000C30FFF79DBF00BF0000000000000000C5
:101ED000F8B504460F46302383F311888368002B3E
:101EE0003CD1224D1646EB680AB926E0EB686068E3
:101EF0003146C3E90040036004206360FFF7B8FE89
:101F000000281CDBA368002BF0D0A3686269013BAA
:101F1000A360531C63611770D4E904329A4224BF52
:101F2000E3686361E3690BB1204698472B68AB42D5
:101F30000CD1002080F31188F8BD4FF0FF302B68E2
:101F4000AB420DD1002383F31188F8BDEA689B688A
:101F500092689A42EDD20648FFF79AFA034DD4E709
:101F6000EA689B6892689A42ECD2F4E7E81600208F
:101F70009069000800000000000000000000000060
:101F80004FF0FF323030FFF7A3BF00BF000000006A
:101F90003030FFF79DBF00BF0000000000000000D0
:101FA0002DE9F04F85B0D0F81C90029316464FF003
:101FB000300A8AF31188002A77D0DFF8F480039280
:101FC0004E46044693468946A268D4E904705A45B1
:101FD00034BFA5685D463F1AAF424FD832D23A4669
:101FE0004946FFF73BF9EA1B09EB0701E06801925C
:101FF000FFF734F9019AE1681144A2686161521B4C
:10200000A2600EB12046B047D8F8002042453CD12E
:10201000002383F31188ABEB050BA9448AF31188E5
:10202000BBF1000FD0D1039E4FF0000BD8F8002079
:10203000424533D1002282F31188A6EB0B0005B094
:10204000BDE8F08F49462A46FFF708F9E168A26823
:102050006161521BA260002DD3D1029BD8F80C20E5
:1020600053B161680420C2E900410A601946626008
:10207000FFF7FEFD0028A7D0039ED7E749462A4672
:10208000FFF7ECF861692944E1E7D8F80C10926891
:1020900089689142BCD20748FFF7FAF9D8F80C10CA
:1020A000926889689142C5D2F5E7DFF80480BBE702
:1020B000E816002090690008000000000000000001
:1020C0004FF0FF333030FFF76BBF00BF0000000060
:1020D0003030FFF765BF00BF0000000000000000C7
:1020E0002DE9F047827A90F802E0437A90F80B806D
:1020F000C478D0F806708179054643EA0223BEF120
:10210000FE0FC0792A7A43EA084867D0012C05F10E
:102110000C0159D904F10C032B4402E0C4B2012C88
:1021200052D09C4613F8012D601E002AF6D0ACEB6D
:10213000050CACF10C0600232A79DFF8C8906EF389
:10214000070364F30F2362F317436A79C9F8047035
:1021500062F31F63C9F8003032464FEA182309F1D1
:102160000A004FEA184889F8083089F80980FFF713
:1021700075F82A790A36D20706EB090326D52A888C
:1021800009F806202A88120A5A70D5F81A21D5F8BB
:102190001E01D5F81611C3F80210C3F80A00C3F8DF
:1021A000062095F822219A730D200922164B154915
:1021B00002440332186822444FF0FF33BDE8F04771
:1021C00092B23030FFF7ECBE2646B4E709222988E8
:1021D00019702988090A00205970E7E7094EDBB217
:1021E000F07073713271EA78B170B01D05F10C01B5
:1021F00086F800E07470FFF731F8EB7806330522BB
:102200003344E4E7400A0020CC1500200000000021
:102210002DE9F84F81460D469346302383F311880C
:102220007A4C206B10F8063C013300F8063C23681A
:10223000A342A0F1240040F0CA80002787F3118850
:102240004369DFF8CCA199454FF030082DD088F3D1
:102250001188436A534500F09D8013F8062CFF2A2D
:10226000A3F1240600F0A480013203F8062C2368B1
:10227000A34240F0918087F3118888F31188837F0F
:10228000002B00F09280013B8377C369226803F042
:10229000FF130F2B0CD0A24240F08D8087F31188E2
:1022A000B6B1304643699945D1D15A48FFF7F0F8A5
:1022B000D0E90931A2420B60596040F08F800023C1
:1022C00083F31188C36A002BEAD09847002EE8D127
:1022D0004D44022325F8443CA5F1280380224E49B1
:1022E00045F8283CA5F1240345E9056245E9093391
:1022F00045F8582CA5F18403484A45F8401C0121B3
:1023000045E90D6645F8186C45F8806C45F8543C75
:1023100045F84C9C45F884BC45F8485C45F8504C61
:1023200005F8421C45F8642C3023A5F1600683F3C0
:10233000118855F8503C2768596B45F8381CA5F1B1
:102340003C0203F13000A74245F83C0C0A60E0680B
:102350005A634AD1836855F8582C00219A4245F8AF
:102360002C1C49D9FFF79CF9012305F8443C014690
:10237000E660EFF309834269243B9A4224D8304651
:10238000FDF79EFF2368A3423AD1002383F311880F
:10239000BDE8F88F00266AE79A68E3689B68934275
:1023A000BFF469AF1E48FFF773F81E48FFF770F8D7
:1023B0001D48FFF76DF8E36892689B689342BFF48D
:1023C0006DAF1A48FFF764F81948FFF761F8E26843
:1023D0009B6892689A42BFF430AFE3E7E368926883
:1023E0009B689342BFF46BAFEBE7BA688368934294
:1023F000B1D21048FFF74CF83046FFF7A1FAC1E719
:10240000E2689B6892689A42BFD2DAE7E816002039
:10241000181700204C5C0008C85B0008D1020008B7
:10242000105C00081C5C00082C5C0008F0680008C8
:10243000B85B00083C5C00080000000000000000E1
:102440002DE9F04F694E9846337B13F00207C3B075
:10245000044651D13369002B00F0F7811B7800F15D
:102460000C0503F00103FD21A170A91803E0013A56
:10247000012A00F0D88111F8010D0028F7D05FFA89
:1024800082FE0EF1FF304BF6647180B284F803E0F7
:10249000A4F80710002B00F0D0810127A78096F840
:1024A00006C00CEB0701C9B28DF80E7084F806C0A7
:1024B000A77AB171617A8DF80DE041EA0721E77AD8
:1024C0008DF810C041EA0741FD278DF80C700027F8
:1024D0008DF80F7064278DF81170BF278DF81310D9
:1024E0008DF812700F1209148DF814708DF81510F4
:1024F0000A274FF0080A24E0FE2383708DF80C3081
:10250000437A8DF811300023C17003714371B279A1
:1025100082718DF80E200132B2714BF66472A0F810
:1025200007208DF80D10481E0A4664218DF80F1003
:10253000BF21062780B28DF810104FF0040A04F175
:102540000C050AF1020A03A98A444FF6FF790DF13E
:102550000D0E1EF8011B81EA0901C9B24FEA011CE8
:102560005FFA8CFC81EA0C0B4FEACB0C8CEA0B2C4B
:102570008CEA192CD6458CEA1B19EAD10D3014FAD5
:1025800080F0AE461EF801CB8CEA090C5FFA8CFC99
:102590004FEA0C11C9B28CEA010A4FEACA0C8CEA64
:1025A0000A2C8CEA192C8CEA1A1C86450FFA8CF13D
:1025B0001FFA8CF9E6D188EA0101C9B20801C0B25C
:1025C00081EA000C4FEACC0080EA0C2080EA192056
:1025D00080EA1C11A954E2782A44C1F30720507004
:1025E00021802BB943B0BDE8F08F00BF201300203D
:1025F000366994F80380002EF4D03378DB07F1D5E8
:10260000737884F81631F2680192D6F808E0BDF8C4
:102610000430A4F81B31C4F817E1D6F808C03069BB
:102620007169F369B2691CF1010CC6F808C00DF1BB
:10263000C80CACE80F00F368C84AC949C94843F15F
:102640000003F3606B460DF10C09C3F800E0C64BC4
:10265000CDE92A23C54BCDE92C13C54B716ACDE9D1
:102660002E03C44B309303F17453A3F52303A3F655
:10267000924331930023306A2993B26AF36AACE83B
:102680000F004FF4807303EBC70328934FF0200A29
:10269000CAF14006BE4228BF3E4632AB494603EB74
:1026A0000A003246B244FEF7D9FDBAF1400FB144F8
:1026B000A7EB060700F0CD80002FE9D1289A02EBA6
:1026C000C8039A42289300F27F81C2F3C50BB8F188
:1026D000000F1AD02F4646460DF19409CBF1400A5F
:1026E000B24528BFB24632AB394603EB0B00524627
:1026F000D344FEF7B3FDBBF1400F5744A6EB0A06E7
:1027000000F0CC80002EE9D1289B13F11002289212
:1027100080F05681A844C3F3C509022625AFC9F14C
:102720004005B54228BF354632AB414603EB0900B0
:102730002A46A944FEF792FDB9F1400FA844A6EB42
:10274000050600F0CB80002EE9D1289B13F138025A
:10275000289280F03181C3F3C50904F58B770726F1
:102760000DF19408C9F14005B54228BF354632AB9A
:10277000394603EB09002A46A944FEF76FFDB9F17B
:10278000400F2F44A6EB050600F0F680002EE9D19D
:10279000289D4FEAD509C9F177073146802307F014
:1027A0003F0747220DF159008DF8583003F082F9A8
:1027B0007A1C16A90937299B8818F9002EBA0DF141
:1027C000580C6D1819BA28BF01334CF8021009F0E3
:1027D0003F094660289528BF299316AE0DF154088D
:1027E000C9F14005BD4228BF3D4632AB314603EB3F
:1027F00009002A46A944FEF731FDB9F1400F2E44E5
:10280000A7EB050700F08A80002FE9D12A9B9DF8ED
:10281000AF109DF8AE2084F821111BBAC4F81D3109
:1028200084F82221DEE696464BF6647184F803E0D4
:10283000A4F80710002B7FF430AE2371637196F873
:1028400006C00CF10101C9B22EE600F10C053B46B1
:1028500009E628AB15A90DF1940C93F82B6093F8B9
:102860002A00002266F3070260F30F2293F8290082
:1028700060F3174293F8280060F31F6241F8042FB9
:102880008C4503F10403E8D116A928A8FEF760FEE1
:102890004FF0000A002F7FF4FBAE0FE728AB15A91D
:1028A00093F82BC093F82A0000226CF3070260F320
:1028B0000F2293F8290060F3174293F8280060F381
:1028C0001F6241F8042F494503F10403E8D116A91A
:1028D00028A8FEF73DFE4FF0000B13E728AB15A923
:1028E00093F82B5093F82A00002265F3070260F357
:1028F0000F2293F8290060F3174293F8280060F341
:102900001F6241F8042F8F4203F10403E8D116A996
:1029100028A8FEF71DFE4FF0000914E728AB05A913
:1029200093F82B5093F82A00002265F3070260F316
:102930000F2293F8290060F3174293F8280060F300
:102940001F6241F8042F414503F10403E8D106A9B1
:1029500028A8FEF7FDFD4FF0000955E767E6096A74
:1029600072F36E3C7F520E5185AE67BB3AF54FA5B0
:102970008C68059BABD9831F28AB15A993F82B5006
:1029800093F82A00002265F3070260F30F2293F800
:10299000290060F3174293F8280060F31F6241F8A2
:1029A000042F884503F10403E8D116A928A8FEF7EF
:1029B000CFFD4FF00009E9E6299A01322992CAE6D3
:1029C000299A01322992A5E62999013129917CE6BB
:1029D00010B51049CCB06B460024C3E90041032276
:1029E0001A7293E807000DF1180CACE803008CF89C
:1029F000002009223223114603A88DF815408DF8D6
:102A000016408DF81740FFF71BFD03A8FFF768FB82
:102A10004CB010BD120800040000000000000000CF
:102A200010B51C4AD2B0B2F801101B4AADF81E1006
:102A300000230024009240F2FF11184A8DF8204034
:102A4000049305930693ADF81C100293039301922F
:102A5000EC464C238DF82D30BCE80F000DF1300E04
:102A6000AEE80F00BCE80F00AEE80F00DCF8001085
:102A70008DF82E402122982309A88DF82F408EF83A
:102A800000101146FFF7DCFC09A8FFF729FB52B044
:102A900010BD00BF601400200000044200504348F5
:102AA00000B51249CDB048788DF808000422012104
:102AB000019201AB8DF8091093E803000692002300
:102AC00006224FF00B0CADF81C108DF816308DF867
:102AD00017301146592303A88DF815C0FFF7B0FC35
:102AE00003A8FFF7FDFA4DB05DF804FB6014002069
:102AF00030B5254DD9B0286AFEF796F92349FEF77F
:102B00009BFA234BB5F80120ADF836200024CDE91F
:102B10000143062200238DF838200593069307937E
:102B2000089309930A930B930C931A4A039240F665
:102B3000F853ADF8343004900DF1040CBCE80F00EC
:102B40000DF1480EAEE80F00BCE80F00AEE80F0034
:102B5000BCE80F00AEE80F009CE803004EF8040B41
:102B600035228EF8001005230FA8114656258DF842
:102B700045508DF846408DF84740FFF761FC0FA89F
:102B8000FFF7AEFA59B030BD6014002000007A445F
:102B9000061AFE130842942B0000000000000000FB
:102BA00010B51E4AD2B00024CDE9044415210023FB
:102BB000ADF81C10B2F801208DF822404FF483715B
:102BC0000693ADF82010ADF81E20009301930293F8
:102BD0000393EC464B238DF82D30BCE80F000DF12C
:102BE000300EAEE80F00BCE80F00AEE80F00DCF8D6
:102BF00000202EF8022B110C23228EF800109E23A9
:102C0000114609A88DF82E408DF82F40FFF718FCCB
:102C100009A8FFF765FA52B010BD00BF601400208C
:102C200080B5484C484F494E494D86B04FF08049D9
:102C300047F230583DE097F824204FF400536B835F
:102C40003023002A46D183F31188E36805924FF4BC
:102C50007A716846CDE90363FEF732FE0820FEF77D
:102C6000D7FF009B13B16846FEF7EAFD2368A34235
:102C70005BD1002282F311884FF400532B83302361
:102C800083F3118842F22831E36805926846CDE962
:102C90000363FEF715FE0820FEF7BAFF009B13B191
:102CA0006846FEF7CDFD2368A34236D1002383F3A7
:102CB0001188D9F82430BA6A9B1A4345BBD94FF41E
:102CC00000532B83302383F311880022E3684FF4F1
:102CD000FA61DAE783F31188E36800224FF4487160
:102CE0006846CDE903630592FEF7EAFD0820FEF78A
:102CF0008FFF009B13B16846FEF7A2FD2368A34235
:102D000019D1002282F311884FF400532B83302312
:102D100083F311884FF44871B6E7E2689B689268C4
:102D20009A42C3D20B48FEF7B3FBE2689B689268F5
:102D30009A429ED2F6E7E2689B6892689A42E0D295
:102D4000F0E700BFE8160020601400209119000889
:102D500000080240F06800080000000000000000C9
:102D60002DE9F04FC1B00091002800F00382044625
:102D7000154600696169A269E369DFF828C395F81F
:102D8000039030AE0FC6206A616AA26AE36A0FC67A
:102D9000D5F80200D5F80610C34AC44BC44E38AF6C
:102DA00003C7C449C4484FF0000ECDE927E1C34929
:102DB000CDE929C2CDE92B63C14A6B892F92CDE9B8
:102DC0002D013B80B9F1000F00F0F9814FF4A87399
:102DD00003EBC90326934FF02A08234605F10C0A9A
:102DE0004C46019526AE14AF0DF18C0B4546994625
:102DF000C5F14008A04528BFA04630AB5146581940
:102E000042464544FEF72AFA402DC244A4EB08048A
:102E100000F0BB80002CEBD1269B019D13F110022A
:102E20004C4605F58A7A269202D3279A01322792D8
:102E3000C3F3C5084FF00209234601954C460DF136
:102E40008C0B45469946C5F14008A04528BFA046D1
:102E500030AB5146581942464544FEF7FFF9402D24
:102E6000C244A4EB080400F0B280002CEBD1269BF6
:102E7000019D13F138024C46269280F00E81C3F377
:102E8000C5084FF00709234605F58B7A4C46019596
:102E90000DF18C0B45469946C5F14008A04528BF69
:102EA000A04630AB5146581942464544FEF7D6F984
:102EB000402DC244A4EB080400F0AB80002CEBD101
:102EC000DDF898A0019D4B464FEADA08A146494635
:102ED000C8F177091C4609F03F09802347220DF10C
:102EE00051008DF8503002F0E5FD09F1010009F1C3
:102EF0000909279901944FEAC9021AEB020207EB6C
:102F0000000C9AFA8AFB91FA81FE334608F03F08DA
:102F100028BF013147F800E04E46CCF804B02692B5
:102F200028BF2791BA460DF14C0B44469946C4F18F
:102F30004008B04528BFB04630AB5146181942464C
:102F40004444FEF78BF9402CC244A6EB080600F07F
:102F50008280002EEBD1289B019C1BBA0293BDF806
:102F6000A63006225BBA05F21D1102A8B146ADF8E3
:102F70000C3002F0F1FD002800F0A480022384F858
:102F80003430002041B0BDE8F08F334613A993F8E8
:102F90002B5093F82A00002265F3070260F30F22FA
:102FA00093F8290060F3174293F8280060F31F623A
:102FB00041F8042F594503F10403E8D1394630465E
:102FC000FEF7C6FA0025002C7FF412AF24E7334643
:102FD00013A993F82B5093F82A00002265F30702F7
:102FE00060F30F2293F8290060F3174293F828004A
:102FF00060F31F6241F8042F8B4503F10403E8D10D
:1030000039463046FEF7A4FA0025002C7FF41BAFAA
:103010002DE7334613A993F82B5093F82A0000228A
:1030200065F3070260F30F2293F8290060F317425B
:1030300093F8280060F31F6241F8042F8B4503F1D9
:103040000403E8D139463046FEF782FA0025002C09
:103050007FF422AF34E74B4603A993F82B000022FC
:1030600060F3070293F82A0060F30F2293F8290017
:1030700060F3174293F8280060F31F6241F8042FB1
:103080008B4503F10403E8D104A94846FEF760FA32
:103090000024002E7FF44BAF5DE7279A0132279280
:1030A000EDE600BF85AE67BB72F36E3C7F520E51FA
:1030B0003AF54FA567E6096A8C68059BABD9831F73
:1030C00019CDE05B00230022CDE90423009BD5F855
:1030D0001701B5F81BC195F81611049005F21716E3
:1030E000ADF814C0002B74D01888002849D095F88A
:1030F00007E0009B05E01FFA8CF9814503F1090305
:103100003CD0DA78724509F1010CF4D11A7995F8BE
:1031100008809045EFD19A788A42ECD148452DD06D
:1031200009EBC909009A09F1050302EB0309D0581C
:10313000B9F8041000220023CDE914231490B980BB
:10314000DDE904CEDDE91423624573EB0E0348D2BA
:10315000D5F81731C9F80030B388A9F80430D4E99C
:103160000223624573EB0E0338BFC4E902CE01238C
:1031700084F83430012041B0BDE8F08FB9F10F0F71
:103180002BD8D4E90223DDF810C01A4FDDF814E083
:103190001CEB07074EF1000A97427AEB030A24D38F
:1031A000009F09EBC903FA18053307EB0309EB7914
:1031B000D3702B7A1371013091703880C8E74FF4C7
:1031C000B073269305F58A7A4FF4A87326AE14AF30
:1031D0002EE6032384F83430D3E6042384F8343015
:1031E000CFE6062384F83430CBE6052384F8343068
:1031F000C7E600BF808D5B000000000000000000FB
:103200002DE98048DFF8A092A84CDFF8A4B2DFF8DF
:10321000A4A28FB03027D9F8005005F10C0887F32D
:1032200011881AE02B69E6684FF47A717360C6F86A
:10323000008007A81E602E610C92CDE90AB6FEF749
:103240003FFB0420FEF7E4FC079B13B107A8FEF741
:10325000F7FA736B002BC0F29C826A69002AE1D0F6
:103260006B69696A013B6B61EB694A1C9A4228BF32
:10327000AB696A620F7828BF6B62AB6A0BB14046DC
:1032800098472368A34240F08B82002383F3118880
:103290009AF803508AF80030102D00F2D483DFE84A
:1032A00015F055005500F301650260025B025602FD
:1032B00040021A021101D700AC0065003800380046
:1032C000110011009AF80D207B4E531EB21ADBB28A
:1032D00082F823718AF80D30002B40F01381DAE96F
:1032E00004013246FFF73CFD60B9DAF810301B6B81
:1032F000002B00F09983B1686E48090A98470028AE
:1033000000F092839AF80330102B00F0918301258E
:1033100012E3694E33790E2D03F0010300F0BB82F6
:10332000328886F81571B7EB122F00F03C83022526
:103330008AF80050002B00F0ED8210238AF8033049
:103340000D23BAF808008AF80D303CE39AF80420FF
:103350009AF802309AF80C800092FD2F00F09E82BD
:10336000FE2F00F03B83544EF278D3E0524E534888
:10337000B168E925C1F317214FF0940C00222B46C8
:10338000013361454FEA5303C0F078821A4600F2D8
:1033900076829AF804109AF802309AF80C8000911C
:1033A0000C2101FB020235881079927986F814719C
:1033B0006840C0B20101C9B280EA010C4FEACC01F9
:1033C00081EA0C2181EA152181EA1C1109B23180C0
:1033D000C9B28F420CBF0D250E2500998AF8035003
:1033E0008A42C1D902933648009B0021D21A184460
:1033F00002F060FBF278029B8CE0314E9AF80430C8
:103400009AF80C80F754013336F80C0C16F8092C96
:10341000DBB29E4600938AF8043087EA0003DBB2F1
:103420001901C9B283EA010C4FEACC0383EA0C23E9
:1034300083EA102383EA1C13964526F80C3C9AF87D
:103440000230A6F10C0665D10C258AF8035061E024
:10345000194E9AF802303588B2689AF80C8087EADB
:103460000501C9B20801C0B281EA000C4FEACC01E3
:1034700081EA0C2181EA1521C2F3172281EA1C118D
:103480007272318042EA0741C2F30722B2720A0C1B
:10349000F2729AF80410F2780091002AD4D00B2529
:1034A0008AF8035036E000BFCC150020E816002053
:1034B000911900082013002038130020F85D00083F
:1034C00044130020C64EB26830883B0243EA122300
:1034D000C2F30722727287EA0002D2B21101C9B2A6
:1034E00082EA0105EA0082EA052282EA102282EAE3
:1034F000151232800A25C3F307221B0C8AF80350E9
:10350000B272F3729AF804300093F2789AF80230AB
:103510009AF80C8000984FF0000165F3070160F302
:103520000F218C46BAF808009AF80510002501F121
:10353000010EAC494B81AC4B0881022D4FF00000CD
:10354000A1F803C081F805E081F80C808AF8020038
:10355000DA7000F05981032D00F05981002D3FF4FD
:1035600059AE9968090A00F05D8121297FF452AEB5
:103570001C2A28BF1C2203F10C01CDE90700CDE96C
:103580000900CDE90B000D9007A8FDF767FE08982C
:10359000964DFCF7FDFF88A3D3E90023FDF78CF9D6
:1035A00006460F46C5E904670998FCF7F1FF82A3B8
:1035B000D3E90023FDF780F902460B46CDE900234D
:1035C000C5E906230B9A95F824302A62012293421A
:1035D0002A727FF41FAE32463B4679A1D1E9000141
:1035E000FCF788FE78A3D3E90023FDF73BF874A32A
:1035F000D3E90023CDE9020130463946FCF77CFED1
:103600007B4B0022FDF72EF86FA3D3E90023FDF7D3
:1036100029F801F029F8DDE9002306460F466CA1E0
:10362000D1E90001FCF766FE67A3D3E90023FDF7AB
:1036300019F832463B46FDF715F802460B46FDF7F2
:1036400011F8DDE9022306460F4610461946FDF73C
:1036500009F802460B4630463946FCF74DFE00F0AD
:10366000DBFF5DA3D3E90023FCF7FCFFFDF7D2FAF3
:103670006049FDF7D5FD00283FF4CCADFFF790FA87
:10368000022385F82430C5E5554E9AF80C80318820
:10369000F77087EA0103DBB21A01D2B283EA0200B3
:1036A000C30083EA002383EA112318F001014FF0DD
:1036B000000283EA101314BF0525032533808AF81E
:1036C000042000911CBFB28000929AF802308AF860
:1036D00003503A461EE7424E9AF80C8031887772C2
:1036E00087EA0103DBB21A01D2B283EA0200C30007
:1036F00083EA002383EA112383EA10139AF8041063
:10370000338018F0010F4FF00003B372F372F278B8
:103710009AF8023000917FF4C0AE09258AF8035070
:10372000F8E62F4E31883772082587EA0103DBB2AD
:103730001A01D2B283EA0200C30083EA002383EABB
:10374000112383EA10138AF803503380DAE6244EFB
:1037500007253188F771E8E7214E06253188B771D2
:10376000E3E71F4E052531887771DEE71C4E9AF896
:1037700004109AF802309AF80C80F2783771012F11
:10378000009140F3378101330125DBB28AF8035001
:10379000C0E62368A34231D1002383F311883AE5C0
:1037A000E2689B6892689A42BFF46FAD1248FDF7D9
:1037B0006FFE00BFAFF3008000000000D012634135
:1037C000F9DC09F65FC54040399D52A246DF913FC2
:1037D00000C809134647524000000000AE4D584152
:1037E0003813002090140020A8140020601400203A
:1037F0000000E03F0000404090690008E2689B68DC
:1038000092689A42C8D2D1E7B6F814211A800123EF
:103810000022FD2F8AF802308AF8002026D08AF88C
:103820000330F7E44FF08040092A894D466A8DF84D
:103830001810CDE9041128BF092203F10C0104A8D6
:10384000AE62FDF70BFD2A78824B9AB395F824609F
:10385000049B6B60BEB3013E012E3FF6DBAC042B34
:103860003FF4D8AC002385F82430D3E402238AF84F
:1038700003304FF6FF73F2703380CBE45D1E954248
:103880007BD9AB1803F1010E2EF0010C0CEB5E0C92
:1038900050F82CC074E586F8157148E56E4E6F4AF5
:1038A000326008F0FE0802258AF80C808AF803507E
:1038B00000222FE6B3F80730A5F8013001232B7062
:1038C000FFF7AEF8C2E7062B7FF4A4ACFFF7E8F8E9
:1038D000302383F31188E3680B934FF4FA71604B44
:1038E0000A9307A80C96FDF7EBFF0820FEF790F966
:1038F000079B13B107A8FDF7A3FF2368A34240F07D
:103900009980002383F31188FFF7F2F8012385F8EB
:1039100024307FE4DAF81030002B00F082801B6B3B
:103920002BB1B1684F48090A9847002879D19AF815
:103930000050022D02D003258AF80050012345488B
:1039400045498AF8033040F22312FDF787FC012D28
:10395000BAF8080037D1B1798AF8051008B9AAF881
:103960000A00013080B2BAF803C0F2789AF8023047
:103970009AF80C80AAF80800D9E50C2302FB03F39F
:103980009AF804C0C5589AF80C809AF80230CDF81D
:1039900000C0A9423FF404AD0E25F27886F81471F8
:1039A0008AF80350B6E501228AF80020002BB1D036
:1039B0000F2300258AF80330BAF808008AF800506F
:1039C0000D238AF80D30BAF80310F2789AF8023015
:1039D0009AF80C808C469AF80510A8E51E4E224AEB
:1039E000326048F0010802258AF80C808AF80350FA
:1039F00000228FE5B6F800C087EA0C000425C0B2AB
:103A000000FA05F1C9B280EA010E4FEACE0181EA5F
:103A10000E2181EA1C2181EA1E118AF803503180AF
:103A200078E59AF8005089E79AF80330102B82D194
:103A3000022581E7E2689B6892689A42BFF461AF11
:103A40000A48FDF725FDBAF80800034E0025BAE73D
:103A500060140020A814002038130020FFFFFD0090
:103A60009119000820130020FFFFFE00F0680008F5
:103A7000704700BF000000000000000000000000D0
:103A8000704700BF000000000000000000000000C0
:103A9000FEE700BF00000000000000000000000082
:103AA00070B5134D05F1800455E90301884255F8BE
:103AB000102C0DD2043A034652F8046F43F8046BFD
:103AC0008B42F9D34B1E1B1A23F003030433184413
:103AD00055F8042C824207D9013A121A22F0030247
:103AE0000432002101F0E6FF1035A542DCD170BDA3
:103AF000AC690008000000000000000000000000A9
:103B000008B51048FDF7BCFF302383F311880E4B36
:103B10005B6813F4006302D183F3118808BDEFF3EF
:103B20000983203B4FF08072DA6183F30988074AEA
:103B30001168D2688968926891428CBF044A054A2C
:103B40009A6108BD6416002000ED00E0E816002030
:103B5000E3020008E6020008000000000000000088
:103B600008B51048FDF78CFF302383F311880E4B06
:103B70005B6813F4006302D183F3118808BDEFF38F
:103B80000983203B4FF08072DA6183F30988074A8A
:103B90001168D2688968926891428CBF044A054ACC
:103BA0009A6108BDE415002000ED00E0E816002051
:103BB000E3020008E6020008000000000000000028
:103BC0002DE9F0474FF08049D9F81030D9F80C2092
:103BD0001340DAB2D2439B07C9F810200BD430232C
:103BE00083F31188404B5B6813F4006353D183F374
:103BF0001188BDE8F087302383F311883B4E4FF0E6
:103C0000000A06F110074FF030083469D9F8240093
:103C1000F569A268411B914251D3D4E900101544C3
:103C2000F56101604860C4F800A03369BB4208BF79
:103C3000C9F80CA08AF31188D4E9033120469847CB
:103C400088F311886369002BDFD04FF08042516AFE
:103C50004A1B93421CD33269BA423FD091688B42CF
:103C600009D9A24202D136E0944234D012685B1ADC
:103C700091688B42F8D8A36091682260C91A536892
:103C800063601C604FF0FF33C2E90141B361BAE7E2
:103C90001748FDF7FDFBEFF30983203B4FF08072DF
:103CA000DA6183F30988114A1168D26889689268D9
:103CB00091428CBF0F4A104A9A61BDE8F087BC421E
:103CC00005D0121A5119F061A160FDF789FD00239A
:103CD00083F3118883E70948FDF7DAFB5B1A5A1969
:103CE0002046FDF735FDF2E700ED00E0E816002084
:103CF00084690008E3020008E6020008746900080D
:103D0000674B68491A6942F01F022DE9F04F1A61AA
:103D10001869654E654DDFF89881DFF898A1DFF8E6
:103D2000989120F01F0018611869186B40F01F006F
:103D30001863186D40F01F00186500226FF48A6048
:103D40001C6D4A6088605D48C8604FF6DF7048614E
:103D50004FF4EE4008624FF42A2048625848086049
:103D6000584C5948726001F5E0514FF0FF3C4FF656
:103D7000FF774FF0553E4FF0800BC6F808C0C6F8ED
:103D80000CE0776132627262C6F800B06A60C5F812
:103D900008C0C5F80CA06F612A626A622A6062607E
:103DA000C4F808C0C4F80CE0676122626262226055
:103DB0004260C0F808C0C0F80CE04761026242628D
:103DC00002604A604FF08050C1F808C0C1F80C9002
:103DD0004F610A624A620A604FF400421864C8F8F0
:103DE00000201A6842F001021A601A689407FCD594
:103DF00099682B4A21F003019960936813F00C0332
:103E0000FBD11068264900F0F90010609360536FF1
:103E100043F0010353674B6F9807FCD52B4B4B6066
:103E20000B68234A43F080730B6053685904FCD538
:103E30001B4A13689B01FCD5254B26489060032143
:103E4000C2F88C101A68244B9A421ED0234B40F2C1
:103E500002721A60214A136803F00F03022BFAD191
:103E60000F4A936843F002039360936803F00C03D6
:103E7000082BFAD1536C43F480435364536E43F4DC
:103E800080435366536EBDE8F08F154A154B126898
:103E90009A42DBD1114B4FF481721A60DAE700BF0E
:103EA00000380240000002400004024000080240C6
:103EB0000070004055555501505555550551156434
:103EC000A004802A000C0240001002401054010798
:103ED000002004E00010883811640020003C0240FB
:103EE00000ED00E041C20F410000000000000000B2
:103EF0000D4B10B51C68D86822681A600121536008
:103F00002177DC60FDF7CCFBEFF309834269243BAA
:103F10009A4205D801462046BDE81040FCF7D0B9CA
:103F20000248FDF7B5FA00BFE8160020B85B0008AC
:103F300008B5302383F31188104BDC68A36B6063F2
:103F400004F138059D4207D1A37F73B10F20FDF71F
:103F50005FFE0B48FDF79CFA1A68A2631846FDF74E
:103F6000EFFCA36BAB42EFD0F6E7E36A002BEDD199
:103F7000D4E9093213605A60E8E700BFE816002070
:103F800008690008000000000000000000000000B8
:103F9000EFF30983203383F30988002383F3118827
:103FA000704700BF0000000000000000000000009B
:103FB000BB4BBC481A6962F01F022DE980481A61A8
:103FC0001A6902F01F021A614FF0FF341A695A6928
:103FD0005C6100215A6959615A691A6A62F080521B
:103FE0001A621A6A02F080521A621A6A5A6A5C628B
:103FF0005A6A59625A6A1A6C42F080521A641A6EEE
:1040000042F080521A661A6E026842F480720260B0
:104010001A6F02F44072B2F5007F89B003D04FF4FA
:1040200080321A6719679F4C9F4B6268DFF87CB239
:104030009F4E4FF0805122F4007270256260C020C4
:1040400083F81C532022C3F880111960402183F8A3
:104050002503C3F884215A6083F82603C3F884112A
:1040600059600BF10C03CBE903330BF154035A46AF
:10407000CBE90833CBF818300BF16403CBE91133EB
:10408000CBF81C30CBF83C300BF1740342F8046BD6
:10409000CBF84030874BCBF84C300BF13004864BDB
:1040A0007F49864DCBF8042001200022CBE90C4447
:1040B00010248BF80800CBF81420CBE90A2BCBF89E
:1040C0003840CBF850B0CBF874505A6118729C63EA
:1040D0000D6C1B651C46054344F8046BC3E90A23B9
:1040E0000D645C600C6E764D764E04430C66096E72
:1040F000AC680443AC60744DCBF87850734DDD640C
:1041000003F16404724DDC61C3E91144DC6303F123
:104110005404C3E90844C3E91D659C6103F17405B7
:1041200003F10C044FF08041C3E903441D6403F123
:104130003004684DC3E90C444FF0FF3442F2CF0322
:104140008B62CC628A614A63CA604A6048610860D7
:10415000287000210020CDE906010294AA60039294
:104160000592042402A8FDF7ABF9FDF7B1F9013C73
:10417000F8D1029B58495948594EAB60594B5A4A9D
:104180003060486073601B1A01F11400C1E905003A
:1041900056481062906302F1100010610420D06153
:1041A000506302F12400506202F12800906202F193
:1041B0003C00D06302F14000106402F14400DFF8DB
:1041C00030A150644B48CC61C1E903448B60086066
:1041D0004949CAF84010142191611C21C2E900220A
:1041E00094605461D462C5F804A0CAF838401163E1
:1041F000302686F3118862B6CAE901A4CAE93844B8
:104200003E4ACAF83C40CAF81C40D068CAF8A8A088
:104210004FF6FF0108403A490143CAE93144D160F1
:10422000D2F8FC10374841F08071C2F8FC100168E8
:10423000202741F001010160D77782F822604FF01A
:1042400080420AF11000536A0193CAE904008020F9
:104250000AEB000CCAF8A000CAF8E8002A48CAF81D
:10426000AC002A48CAF8B0002948CAF8B8004FF094
:10427000FF300AEB0609CAF81800019E254ACAF861
:1042800000A00AF1D00001214FF00208CAF8D000C6
:1042900027460AF144008AF8B610CAF820803BE0AD
:1042A000003802400070004000E100E06416002089
:1042B000905D000871140008E41500200010014012
:1042C000002004E00044004000BD01058114000806
:1042D00080DE8002D8150020580B00201019002025
:1042E000D0150020008001207C0B00202115000843
:1042F000E8160020F1160008C45D000800ED00E09B
:104300000003FA05001000E000040020000800206F
:10431000D05B000840090020CAE90A6700F1900656
:10432000CAE9356600F15406CAF80C6002F58076D9
:10433000CAF85C6000F13806CAF87C60A34ECAF87F
:10434000646002F1DC06CAF85060A14EC2F8DC607D
:104350000AF1BC0E0AF168039E4EC2F8FC60CAF86E
:104360005820C2F8E040CAE91C44CAE92344CAE91B
:1043700020CCCAF8EC40CAF8C090CAF86890CAF8D5
:1043800030E0CAF86CE0AAF8B410CAF84C10AAF8E9
:104390006080CAF854A0CAF894108AF86210CAF86B
:1043A000BC30CAF83430FDF7CBFADAF8002085F8D3
:1043B0000080524540F0F280002686F31188864F37
:1043C000864C01224FF400513846FCF7E9FF4FF4C8
:1043D00000533B8303254FF03008B1464FF40053A0
:1043E0007B8388F3118840F2DC51DAF80C300693B5
:1043F00002A805940796FDF763FA0820FDF708FC6C
:10440000029B13B102A8FDF71BFADAF800305345FE
:1044100040F0BC8089F311884FF400533B8388F34C
:10442000118840F2DC51DAF80C30069302A80594AA
:104430000796FDF745FA0820FDF7EAFB029B13B14A
:1044400002A8FDF7FDF9DAF80030534540F09680F8
:1044500089F31188013DC1D1614840F282324FF4A5
:104460000071FCF79DFF40F282324FF48061FCF74F
:1044700097FF302282F311889BF80820511E0129F2
:1044800000F29580012A6ED0DBE91D20554900F528
:10449000E140A1FB0051B0F1614F4FEAD13180F012
:1044A00089809160402111610121516142F22C11FA
:1044B000D1600021116011685268FF228BF87C20C6
:1044C00002228BF80820DAF80020524575D100212D
:1044D00081F31188444E454A4FF08045C2F800B040
:1044E0003046302201F0E6FA696AB162404A41483A
:1044F0004FF4A461FDF78CFE3F4A40484FF4087129
:10450000FDF786FE42F20F786E6A302702E0002344
:1045100083F311886B6A9B1B434502D9FEF758FA57
:104520006E6A87F31188DAF80C2000234FF4FA71D1
:1045300002A80793CDE90542FDF7C2F90820FDF76F
:1045400067FB029B13B102A8FDF77AF9DAF8003095
:104550005345DCD0DAF80C209B6892689A42D6D298
:104560002748FCF795FF274A516C41F01001516430
:10457000516E41F010015166526E85E7DAF80C2059
:104580009B6892689A42BFF463AFE9E7DAF80C20BF
:104590009B6892689A42BFF43DAFE1E7DAF8A01059
:1045A00092689142BFF408AF1748FCF771FF1748B3
:1045B000FCF76EFF1648FCF76BFFDAF80C109268F8
:1045C0008968914283D21348FCF762FFD85B0008E8
:1045D000B1140008D1020008000802409119000837
:1045E00000000240C5B3A29160140020CC15002049
:1045F00001320008000E0020212C0008E00B0020F2
:10460000F068000800380240B85D0008F05D00085E
:10461000D85D0008E45D0008F8B504460D4600F0DA
:1046200041FA224606460F462B4620462946FCF70D
:10463000B3FA30B92046294600220023FCF784FA59
:1046400010B930463946F8BD01F02EFA0022002399
:104650002121016010461946FCF72EF906460F4647
:1046600030463946F8BD00BF1F4A21F0004393424F
:104670001BD930B51D4A934287B005D902460B4677
:10468000FBF738FE07B030BD02AA00F0F9FA00F0DF
:104690000304012C17D0022C0BD0E4B9DDE904236C
:1046A000DDE9020100F024F8ECE70022002300F02D
:1046B0001FB8DDE90423DDE9020100F019F801F17A
:1046C000004107B030BDDDE90423DDE902010094BB
:1046D00000F032F9F3E70124DDE90423DDE902010A
:1046E000009400F029F9CDE7FB21E93FFFFFEF7FC0
:1046F0002DE9F04F21F00048B8F1795F85B092467E
:104700009B4606460F466BD2FCF75CFA002800F089
:10471000EA8032463B4630463946FBF7A3FF74A396
:10472000D3E9002304460D46FBF79CFF72A3D3E9AF
:104730000023FBF7E1FD22462B46FBF793FF70A316
:10474000D3E90023FBF7D6FD22462B46FBF78AFF71
:104750006DA3D3E90023FBF7CFFD22462B46FBF7E1
:1047600081FF6BA3D3E90023FBF7C4FD22462B4650
:10477000FBF778FF68A3D3E90023FBF7BDFD2246D2
:104780002B46FBF76FFFCDE90001654B0022204669
:104790002946FBF767FFDDE900238046894620466E
:1047A0002946FBF75FFF524604460D465B463046FE
:1047B0003946FBF757FF02460B4620462946FBF7D2
:1047C00099FD02460B4640464946FBF793FD0246DB
:1047D0000B4600205349FBF78DFD05B0BDE8F08F77
:1047E00002460B46FBF73EFF41A3D3E900230446F4
:1047F0000D46FBF737FF40A3D3E90023FBF77CFD11
:1048000022462B46FBF72EFF3DA3D3E90023FBF7FF
:1048100071FD22462B46FBF725FF3BA3D3E900237E
:10482000FBF76AFD22462B46FBF71CFF38A3D3E9B2
:104830000023FBF75FFD22462B46FBF713FF36A351
:10484000D3E90023FBF758FD2B462246FBF70AFF6E
:10485000354B9845CDE9000197D9344B98454FF039
:10486000000238D8A8F500132E490020904699463A
:10487000FBF740FDCDE90201294B002220462946E5
:10488000FBF7F0FE42464B46FBF734FDDDE9002323
:104890008046894620462946FBF7E4FE52460446F8
:1048A0000D465B4630463946FBF7DCFE02460B46BA
:1048B00020462946FBF71EFD02460B464046494668
:1048C000FBF718FD02460B46DDE90201FBF712FD7E
:1048D00005B0BDE8F08F164BDFF85890CDE9022304
:1048E0004FF00008C8E70F49002005B0BDE8F08F81
:1048F000D43888BEE9FAA8BDC4B1B4BD9EEE213E4D
:10490000AD529C804F7E923E9015CB19A001FA3E8D
:104910007751C1166CC1563F4C5555555555A53F5D
:104920000000E03F0000F03F3233D33F0000E93F9A
:104930000000E73F0000D23F2DE9F04F994621F0FB
:104940000043B3F1795F85B0904604460D4604D22A
:10495000FCF738F9002800F0858022462B462046D7
:104960002946FBF77FFE06460F4602460B462046C9
:104970002946FBF777FE3EA3D3E9002382468B4608
:1049800030463946FBF76EFE3BA3D3E90023FBF725
:10499000B1FC32463B46FBF765FE39A3D3E9002361
:1049A000FBF7AAFC32463B46FBF75CFE36A3D3E995
:1049B0000023FBF79FFC32463B46FBF753FE34A334
:1049C000D3E90023FBF798FC0E9BCDE900019BB3D4
:1049D000334B002240464946FBF744FEDDE9002305
:1049E000CDE9020150465946FBF73CFE02460B4614
:1049F000DDE90201FBF77EFC32463B46FBF732FE67
:104A000042464B46FBF776FC23A3D3E90023064638
:104A10000F4650465946FBF725FE02460B463046E8
:104A20003946FBF769FC02460B4620462946FBF750
:104A300061FC05B0BDE8F08F02460B4630463946B2
:104A4000FBF710FE14A3D3E90023FBF753FC5246F7
:104A50005B46FBF707FE22462B46FBF74DFC05B0F5
:104A6000BDE8F08F2046294605B0BDE8F08F00BFB5
:104A70007CD5CF5A3AD9E53DEB9C2B8AE6E55A3EE8
:104A80007DFEB157E31DC73ED561C119A0012A3F84
:104A9000A6F810111111813F495555555555C53F7F
:104AA0000000E03F2DE9F84F724D8D4306460F465A
:104AB00000F0A48000290C460246034656DD081586
:104AC00000F0C780C4F31302C107A0F2FF3742F41D
:104AD000801203D4D90F01EB42025B005200002682
:104AE00002EBD3727F105B001624B4464FF4001122
:104AF0000CEB010090424FEAD3754FEA430303DC0D
:104B000000EB010C121A0E44013C05EB42024FEA85
:104B10005101EDD1A04620254FF000400AE03CD0E5
:104B2000510001EBD371013D0A464FEA43034FEABE
:104B300050003ED0944508EB000EF0DABEF1000FB5
:104B40000EEB00080CDBE146A2EB0C019E4588BF92
:104B500001F1FF314900CC46A3EB0E030444E0E72A
:104B6000B8F1000FEFDB0CF10109EDE721F0004592
:104B700005433DD0002964D1DA0A153C5B05002AC3
:104B8000FAD0D60220461946144663D520254FF0A8
:104B9000FF32E940801A0C4394E79E4502D94FEA60
:104BA0004C01BEE7BEF1000F0EEB000822DB002136
:104BB000D2E7194312D0DFF8C0A0DFF8C0B0DAE9BD
:104BC0000001DBE90023FBF795FBDAE900890246E7
:104BD0000B4640464946FBF7C1FFC8B9650873104C
:104BE00003F17F5303F5001303EB075145EAC67049
:104BF000BDE8F88FB8F1000FB5DAD8E702460B46EA
:104C0000FBF730FD32463B46FBF776FBBDE8F88FFD
:104C1000B4F1FF3FDAE90001DBE9002326D0FBF71E
:104C20006BFBDAE9008902460B4640464946FBF732
:104C30008BFFE8B1A31C04F1020508BF01366D0823
:104C4000CDE70B46FBF756FB02460B46FBF734FE5F
:104C5000CEE7314600236400E5021A4603F1010362
:104C6000F9D5C3F1200501FA03F392E70136B6E75F
:104C70000134B3E70000F07F286A0008206A0008CA
:104C80002DE9F04F844B21F000459D428FB08046C6
:104C90008946144640F28A80804B9D420E4628D8B1
:104CA000002973A3D3E9002340F3A181FBF722FB82
:104CB0007B4B9D4206460F4600F089806EA3D3E9E8
:104CC0000023FBF717FB8046894642464B46304699
:104CD0003946FBF70FFB68A3D3E90023FBF70AFB78
:104CE000C4E90089C4E90201012738460FB0BDE8D4
:104CF000F08F6C4B9D4240F284806B4B9D425DD89F
:104D00004FEA255AAAF2164AA5EB0A518946FBF743
:104D100059FFFBF73DFC02460B4640464946CDE9AC
:104D20000823FBF7E7FA614B0022FBF79BFC89465F
:104D30008046FBF747FFFBF72BFC02460B4640463D
:104D40004946CDE90A23FBF7D5FA584B0022FBF779
:104D500089FCCDE90C010EAF03254FF000084FF0A0
:104D6000000977E9020142464B46AB46013DFBF79D
:104D7000E1FE0028F5D14E4B0193022300935246E9
:104D80005B46214608A800F085F9002E0746ACDAFC
:104D9000D4E9002101F10043E168C4E90023A268DD
:104DA00001F10043C4E9022347429EE700220023A9
:104DB000C4E90089C4E90223002796E702460B46AE
:104DC000FBF798FAC4E90201C4E90001F4E72CA357
:104DD000D3E90023FBF78EFA2BA3D3E90023064681
:104DE0000F46FBF787FA8046894642464B463046D7
:104DF0003946FBF77FFA24A3D3E90023FBF77AFABD
:104E00006EE700F055FD22A3D3E9002380468946D2
:104E1000FBF728FC274B0022FBF76EFAFBF7D2FECC
:104E20000746FBF7B5FB02460B46CDE9042310A36A
:104E3000D3E90023FBF716FC02460B4640464946E1
:104E4000FBF758FA0CA3D3E9002382468B46DDE931
:104E50000401FBF707FC1F2FCDE902012EDC164BE6
:104E60007A1E53F82230AB4228D002460B469AE015
:104E700000004054FB21F93F3163621A61B4D03D18
:104E80000000601A61B4D03D7370032E8A19A33BF1
:104E900083C8C96D305FE43FFB21E93F7BD9024005
:104EA000FB21F93FFB213941FFFFEF7F00007041FB
:104EB000B06A00080000E03F306A0008DDE9022324
:104EC00050465946FBF716FAC1F30A53C3EB155384
:104ED000102B804689464FEA25556ADD62A3D3E947
:104EE0000023DDE90401FBF7BDFB8046894602464D
:104EF0000B4650465946FBF7FDF902460B46504615
:104F00005946CDE9062392469B46FBF7F3F9424604
:104F10004B46FBF7EFF956A3D3E9002380468946B9
:104F2000DDE90401FBF79EFB42464B46FBF7E2F945
:104F30000B46024659465046CDE90223FBF7DAF903
:104F4000C1F30A53ED1A312D804689464CDD4AA340
:104F5000D3E90023DDE90401FBF784FB80468946A1
:104F600002460B4650465946FBF7C4F982468B462B
:104F700052465B46DDE90601FBF7BCF942464B466B
:104F8000FBF7B8F93EA3D3E9002380468946DDE963
:104F90000401FBF767FB42464B46FBF7ABF90246C1
:104FA0000B46CDE9022350465946FBF7A3F980464C
:104FB000894642464B46C4E9008950465946FBF7AC
:104FC00099F9DDE90223FBF795F9002EC4E9020106
:104FD000BFF68BAE09F10043C4E9008301F1004341
:104FE000C4E902037F4280E6DDE906ABE1E7FBF7B7
:104FF00083F9274B9D4206460F4618D022A3D3E9DA
:105000000023FBF779F98046894642464B463046F5
:105010003946FBF76FF91CA3D3E90023FBF76CF9C2
:10502000C4E90089C4E902014FF0FF375DE60EA331
:10503000D3E90023FBF760F90DA3D3E9002306466B
:105040000F46FBF759F98046894642464B463046A3
:105050003946FBF74FF906A3D3E90023FBF74CF9D8
:10506000DEE700BFAFF300800000601A61B4D03DFE
:105070007370032E8A19A33B0000002E8A19A33BEC
:10508000C14920259A837B393163621A61B4D03DCE
:10509000FB21F93F2DE9F04FADF51B7D9C460C91AE
:1050A000BD4BA49953F82130059312F1140F0CF164
:1050B000FF3381460393C0F2AE82B849D31E81FB11
:1050C0000301DB17C3EBA10307930133A3EB8303B6
:1050D000DB00D318079A0D930CF1FF33D61A059A0B
:1050E00012EB03081CD408F10108DDF894A2B044C7
:1050F00022AF00240025E34608E05AF82600FBF71B
:1051000047FA01364645E7E8020108D0002EF4DAF6
:105110000136204629464645E7E80201F6D1DC463D
:10512000059B002BA9F108030493B8BF4FEACC06F6
:1051300037DB22AADDF80C90CDF808C002EBCC0AD0
:10514000059A0DF5E47B4FEACC06624403EBCC08EC
:105150004B460092D94606969B46039B002BC0F215
:105160009B81049E57460024002577E90223F6E937
:105170000201FBF777FA02460B4620462946FBF769
:10518000BBF8464504460D46EFD1009B0BF1010BE1
:105190009B45E9E802450AF1080ADED1DDF808C0BE
:1051A000069E049B059A0D9FCDF82CC003EB060AC2
:1051B0000EAB03EB8203043B08930EAB03EB8206BA
:1051C000CDE909A693469AAB03EBCB0353E92845F7
:1051D000BBF1000F4FEACB0300932BDD0DF5E47A12
:1051E0000AEB03080DF1380902976D4B00222046A7
:1051F0002946FBF737FAFBF7E5FCFBF7C9F9694BE2
:10520000002206460F46FBF72DFA02460B462046C3
:105210002946FBF76FF8FBF7D5FC78E9022349F83C
:10522000040B39463046FBF767F8D04504460D4677
:10523000DBD1029F204629463A4600F03DFB002282
:105240004FF07F5304460D46FBF70CFA00F0A8FB25
:10525000554B0022FBF706FA02460B46204629462C
:10526000FBF748F80D460446FBF7ACFC0646FBF797
:105270008FF902460B4620462946FBF73BF8002FE4
:105280008046894640F392800BF1FF300EAAC7F1A9
:10529000180352F8202042FA03F404FA03F3D21A56
:1052A000C7F117010EAB42FA01F5002D43F820209B
:1052B000264400F3D9800022002340464946FBF7EC
:1052C00039FC002800F05082059B9B450DDD0EAB9C
:1052D0000A9803EB8B03002253F8041D834242EA31
:1052E0000102F9D1002A40F0DA80059B0EAA013BA9
:1052F00052F82330002B40F0CB80089A012352F85B
:10530000041D01330029FAD05B440BF10108079911
:105310000B9A009E029308EB010A0AF1804AA599B4
:1053200006970AF1FF3A5A4401EB8A0A22A901EBD7
:10533000C209DDF824B0CDF800A072AA1644009B83
:1053400053F8040F0093FBF723F9039B002BE9E8C4
:1053500002011DDB049FCA46002400257AE90223CE
:10536000F7E90201FBF77EF902460B462046294683
:10537000FAF7C2FF5F4504460D46EFD1029B08F1E4
:1053800001084345E6E90245D9DA069F9B461AE73C
:1053900000240025F2E700BFF86B0008ABAAAA2A98
:1053A0000000703E000070410000204053D10BF11E
:1053B000FF330EAA52F82350ED15002D7FF77BAF77
:1053C000BBF1000F06F1010640F33B820EAB002259
:1053D00053F8044B002C3AD0C4F1807443F8044CC9
:1053E0006FF07F4003E01968411A43F8041B013253
:1053F0009345F8DC0124002F0DDD012F3DD0022F55
:1054000009D10BF1FF320EAB0EA953F82230C3F3D2
:10541000150341F82230022D7FF44DAF42464B4632
:1054200091490020FAF766FF80468946002C3FF438
:1054300042AF3A468C49002000F03EFA02460B4645
:1054400040464946FAF756FF8046894633E701321F
:105450009345BDDCCFE7854B0022FBF789FB002895
:1054600040F0C780054626E7BBF1000F06F10106B4
:10547000D8BF0024AADC012FC1D10BF1FF320EAB43
:105480000EA953F82230C3F3160341F82230C2E7C5
:105490000BF1010843463AE70024002575E60D9B11
:1054A0000BF1FF34A3F118020EABCDE9035653F80C
:1054B00024300D9263B90BF18043013B0EA901EB3F
:1054C000830353F8041D013C183A0029F9D00D92CA
:1054D0000D9A6549002000F0EFF9002C06460F46B2
:1054E000C0F2BB8104F1010A0EAB03EB8A054FEA5F
:1054F000CA0272ABDFF8789103EBCA0A4FF00008DA
:10550000934655F8040DFBF743F832463B46FBF74C
:10551000A9F84B466AE90201424630463946FBF794
:10552000A1F80EAB9D4206460F46EAD1ABF1080347
:1055300072A95A4601EB030A0DF594784FF0000961
:10554000CDE9064243465246A346CA46DDF81490CA
:10555000CDF81480B9F1000FC0F28380DFF8148118
:1055600000931746002600240025029201E05645CC
:1055700010DCF8E90223F7E80201FBF773F80246B2
:105580000B4620462946FAF7B7FE0136B1450446D8
:105590000D46ECDA009B029A0BF1FF3BBBF1FF3F9B
:1055A000E3E802450AF1010AA2F10802D2D1A49B64
:1055B000DDF81480022BDDE906425DDC002B2FDCD8
:1055C00010D108EB02040020002174E90223FAF74D
:1055D00093FE4445F9D1039B002B40F02E810C9B98
:1055E000C3E90001049B03F007000DF51B7DBDE836
:1055F000F08FBBF1000F06F10106C8BF02253FF78F
:10560000E5AE42464B4618490020FAF773FE0225E4
:10561000804689464FE600216FF01703079158E551
:1056200008EB02050026002775E9022330463946BB
:10563000FAF762FE454506460F46F5D13B46DDE9E1
:105640004A013246FAF756FE039B002B00F0DA803F
:105650000C9D07F10043C5E90063002C40F0D680A3
:10566000DEE00024002597E70000F03F0000E03F67
:105670000000703EB06B0008A49B032BB2D1002C3D
:1056800000F0FB8008EBC4054FEAC40AD5E90067C7
:10569000CDE905A50095A946029459E90245304691
:1056A000394622462B46FAF727FEB246BB46064647
:1056B0000F4632463B4620462946FAF71BFE524625
:1056C0005B46FAF719FEC9E9000169E90267C145BD
:1056D000E3D1029C012CDDE905A500F0CE80D5E9DF
:1056E0000045009E08F1080B474656E9028920460E
:1056F000294642464B46CDE90045FAF7FDFD0446F2
:105700000D4622462B4640464946FAF7F3FDDDE9B1
:105710000023FAF7F1FDC6E9000166E90245B34549
:10572000E3D10AF10804B8463C4407F11005002013
:10573000002174E90223FAF7DFFDA542F9D1039BAA
:10574000D8E90278DDE94A45002B46D10C9BC3E934
:105750000401C3E90045C3E90278049B03F0070094
:105760000DF51B7DBDE8F08FCDE903560D9E40463B
:105770004946724200F0A0F84A4B00225F4680463C
:105780008946FBF7F5F9F8B1474B002240464946F8
:10579000FAF768FFFBF716FA0546FAF7F9FE414BF0
:1057A0000022FAF75FFF0B46024649464046FAF7E9
:1057B000A1FDFBF707FA7C1C0EAB183643F82B0053
:1057C0000D9643F8245083E640464946FBF7FAF924
:1057D0000EAB5C4643F82B007AE6264605F1004402
:1057E0000C9D08F10043C5E9027301F10043C5E9CE
:1057F0000403049B03F00700C5E900640DF51B7D5D
:10580000BDE8F08F0C9BC3E9006764B10125F8E99E
:1058100002230135FAF770FDAC42F8DA039B13B1AD
:1058200001F1004319460C9BC3E90201049B03F0FC
:1058300007000DF51B7DBDE8F08F01F1004319460F
:10584000CDE6022D7FF437AD02460B460020174906
:10585000FAF750FD804689462DE5A49B022B06DC15
:10586000002B0DDC7FF4BEAE00200021B3E6A49B2C
:10587000032B7FF4B7AE0DF59478002000215EE78E
:10588000039BDDE94A0133B10C9C00224FF0004339
:10589000C4E90023C4E70C9C00220023C4E90023D0
:1058A000C1E700BF000070410000703E0000F03F03
:1058B00021F00043194670472DE9F0411646C1F327
:1058C0000A52074688460B4652BB21F00043034369
:1058D00024D02D4B0022FAF7C5FE2C4B9E420746E2
:1058E000884642DBC1F30A520B46363A4CF250313D
:1058F0008E421EDC164440F2FE72964219DC002EE7
:1059000023DC16F1350F27DB6FF31E53363643EADF
:10591000065138461E4B0022FAF7A4FEBDE8F0817E
:1059200040F2FF7C6245E1D10246FAF7E5FCBDE8B2
:10593000F08111A3D3E90023454663F31E052946F0
:105940001448FAF78FFEBDE8F0816FF31E53384616
:1059500043EA0651BDE8F08108F0004343F0D271FC
:1059600041F4B7310C4841F01F0105A3D3E90023EE
:10597000FAF778FEBDE8F0819C7500883CE4377E3C
:1059800059F3F8C21F6EA50100005043B03CFFFF61
:105990000000903C9C75008859F3F8C2000000009C
:1059A000C1F30A5C2DE9F041ACF2FF35132D02463C
:1059B0000B460C46064632DC002D20DBDFF8E0808B
:1059C00048FA05F801EA080C5CEA000C0F462BD0F7
:1059D00031A3D3E90023FAF78FFC00220023FBF761
:1059E000D1F840B1002C03DA4FF480132B411F444F
:1059F00027EA0804002621463046BDE8F08126A3A8
:105A0000D3E90023FAF778FC00220023FBF7BAF869
:105A10000028F0D0002C27DB00263446EBE7332D9E
:105A200006DDB5F5806F1CD010461946BDE8F08143
:105A3000ACF2134C4FF0FF3727FA0CF70742F3D0C4
:105A400015A3D3E90023FAF757FC00220023FBF744
:105A500099F80028CFD0002C33460CDB23EA070648
:105A6000C9E7FAF749FCE1E724F0004426430DD1E9
:105A70004FF00044BFE7142D06D0C5F134050122D4
:105A8000AA401344B342E9D20134E7E7054C0026AB
:105A9000B1E700BFAFF300809C7500883CE4377E1F
:105AA000FFFF0F000000F0BF014B1868704700BFF8
:105AB00000080020830730B547D0541E002A3ED08E
:105AC000CAB2034601E0013C39D303F8012B9D071C
:105AD000F9D1032C2CD9CDB205EB05250F2C05EB04
