:020000040800F2
:1000000000040020B9020008BB020008BB0200087F
:10001000BB020008BB020008BB020008BB020008CC
:10002000BB020008BB020008BB0200081134000834
:10003000BB020008BB020008BB020008BB020008AC
:10004000BB020008BB020008BB020008BB0200089C
:10005000BB020008BB020008BB020008BB0200088C
:10006000BB020008BB020008BB020008BB0200087C
:10007000BB020008BB020008BB020008BB0200086C
:10008000BB020008BB020008BB020008BB0200085C
:10009000BB020008BB020008BB020008BB0200084C
:1000A000BB020008BB020008BB020008BB0200083C
:1000B00041300008BB020008BB020008BB02000878
:1000C000BB020008BB020008BB020008BB0200081C
:1000D000BB020008812F0008E12F0008BB020008C6
:1000E000BB020008BB020008BB020008BB020008FC
:1000F000BB020008BB020008BB020008BB020008EC
:10010000BB020008BB020008BB020008BB020008DB
:10011000BB020008BB020008BB020008BB020008CB
:10012000BB020008BB020008BB020008BB020008BB
:10013000BB020008BB020008BB020008BB020008AB
:10014000BB020008BB020008BB020008BB0200089B
:10015000BB020008BB020008BB020008BB0200088B
:10016000BB020008BB020008BB020008BB0200087B
:10017000BB020008BB020008BB020008BB0200086B
:10018000BB020008BB020008BB020008BB0200085B
:10019000BB020008BB020008BB020008BB0200084B
:1001A000BB020008BB020008BB020008BB0200083B
:1001B000BB020008BB020008BB020008BB0200082B
:1001C000BB020008BB020008BB020008BB0200081B
:1001D000BB020008BB020008BB020008BB0200080B
:1001E00072B6264880F30888254880F30988254898
:1001F00025490860022080F31488BFF36F8F02F056
:100200006FFE02F0BDFF4FF0553020491B4A91426E
:100210003CBF41F8040BFAE71D49194A91423CBF23
:1002200041F8040BFAE71B491B4A1C4B9A423EBF9C
:1002300051F8040B42F8040BF8E700201849194A5A
:1002400091423CBF41F8040BFAE702F061FE02F074
:100250004FFE154C154DAC4203DA54F8041B884789
:10026000F9E703F0E5F8124C124DAC4203DA54F80A
:10027000041B8847F9E702F043BE00000004002099
:10028000000800200000000808ED00E00000002049
:100290000004002008480008000800200008002092
:1002A0000008002080160020E0010008E00100089E
:1002B000E0010008E001000892E700F000F8FEE726
:1002C0002DE9F04FC1F80CD0C3689D46BDE8F08F12
:1002D000002383F311882846A047002003F068F824
:1002E000FEE703F045F800DFFEE7000080F0004085
:1002F00002E000BF81F0004142001FBF5FEA4103FE
:1003000092EA030F7FEA226C7FEA236C6AD04FEAFD
:100310001262D2EB1363C1BFD21841404840414042
:10032000B8BF5B42192B88BF704710F0004F40F4F4
:10033000000020F07F4018BF404211F0004F41F410
:10034000000121F07F4118BF494292EA030F3FD0DC
:10035000A2F1010241FA03FC10EB0C00C3F12003EF
:1003600001FA03F100F0004302D5494260EB40007E
:10037000B0F5000F13D3B0F1807F06D340084FEAE9
:10038000310102F10102FE2A51D2B1F1004F40EBDE
:10039000C25008BF20F0010040EA03007047490046
:1003A00040EB0000013A28BFB0F5000FEDD2B0FAE3
:1003B00080FCACF1080CB2EB0C0200FA0CF0AABF06
:1003C00000EBC25052421843BCBFD04018437047A4
:1003D00092F0000F81F4000106BF80F400000132AA
:1003E000013BB5E74FEA41037FEA226C18BF7FEA81
:1003F000236C21D092EA030F04D092F0000F08BFC3
:100400000846704790EA010F1CBF0020704712F0A9
:100410007F4F04D1400028BF40F00040704712F1E8
:1004200000723CBF00F50000704700F0004343F04D
:10043000FE4040F4000070477FEA226216BF084683
:100440007FEA23630146420206BF5FEA412390EA46
:10045000010F40F4800070474FF0000304E000BF3C
:1004600010F0004348BF40425FEA000C08BF7047ED
:1004700043F0964301464FF000001CE050EA0102B1
:1004800008BF70474FF000030AE000BF50EA0102C6
:1004900008BF704711F0004302D5404261EB4101B3
:1004A0005FEA010C02BF84460146002043F0B643D8
:1004B00008BFA3F18053A3F50003BCFA8CF2083AFD
:1004C000A3EBC25310DB01FA02FC634400FA02FC06
:1004D000C2F12002BCF1004F20FA02F243EB02000D
:1004E00008BF20F00100704702F1200201FA02FC6F
:1004F000C2F1200250EA4C0021FA02F243EB020062
:1005000008BF20EADC7070474FF0FF0C1CEAD052A5
:100510001EBF1CEAD15392EA0C0F93EA0C0F6FD066
:100520001A4480EA010C400218BF5FEA41211ED044
:100530004FF0006343EA501043EA5111A0FB013130
:100540000CF00040B1F5000F3EBF490041EAD37105
:100550005B0040EA010062F17F02FD2A1DD8B3F181
:10056000004F40EBC25008BF20F00100704790F0F0
:10057000000F0CF0004C08BF49024CEA502040EA42
:1005800051207F3AC2BFD2F1FF0340EAC250704708
:1005900040F400004FF00003013A5DDC12F1190F46
:1005A000DCBF00F000407047C2F10002410021FAB8
:1005B00002F1C2F1200200FA02FC5FEA310040F1D0
:1005C000000053EA4C0308BF20EADC70704792F049
:1005D000000F00F0004C02BF400010F4000F013A81
:1005E000F9D040EA0C0093F0000F01F0004C02BF7C
:1005F000490011F4000F013BF9D041EA0C018FE7EB
:100600000CEAD15392EA0C0F18BF93EA0C0F0AD0F0
:1006100030F0004C18BF31F0004CD8D180EA010016
:1006200000F00040704790F0000F17BF90F0004FAF
:10063000084691F0000F91F0004F14D092EA0C0F91
:1006400001D142020FD193EA0C0F03D14B0218BF24
:10065000084608D180EA010000F0004040F0FE406A
:1006600040F40000704740F0FE4040F44000704706
:100670004FF0FF0C1CEAD0521EBF1CEAD15392EA85
:100680000C0F93EA0C0F69D0A2EB030280EA010C75
:1006900049024FEA402037D04FF0805343EA11110E
:1006A00043EA10130CF000408B4238BF5B0042F16C
:1006B0007D024FF4000C8B4224BF5B1A40EA0C0011
:1006C000B3EB510F24BFA3EB510340EA5C00B3EB43
:1006D000910F24BFA3EB910340EA9C00B3EBD10F31
:1006E00024BFA3EBD10340EADC001B0118BF5FEA83
:1006F0001C1CE0D1FD2A3FF650AF8B4240EBC250AC
:1007000008BF20F0010070470CF0004C4CEA50206C
:100710007F32C2BFD2F1FF0340EAC250704740F4BB
:1007200000004FF00003013A37E792F0000F00F0AD
:10073000004C02BF400010F4000F013AF9D040EA2B
:100740000C0093F0000F01F0004C02BF490011F4BF
:10075000000F013BF9D041EA0C0195E70CEAD153B7
:1007600092EA0C0F08D142027FF47DAF93EA0C0F9E
:100770007FF470AF084676E793EA0C0F04D14B0282
:100780003FF44CAF08466EE730F0004C18BF31F034
:10079000004CCAD130F000427FF45CAF31F000432E
:1007A0007FF43CAF5FE700BF4FF0FF3C06E000BFC7
:1007B0004FF0010C02E000BF4FF0010C4DF804CDEA
:1007C0004FEA40024FEA41037FEA226C18BF7FEAFA
:1007D000236C11D001B052EA530C18BF90EA010FFC
:1007E00058BFB2EB030088BFC81738BF6FEAE1708B
:1007F00018BF40F0010070477FEA226C02D15FEA27
:10080000402C05D17FEA236CE4D15FEA412CE1D092
:100810005DF8040B704700BF844608466146FFE759
:100820000FB5FFF7C9FF002848BF10F1000F0FBD3B
:100830004DF808EDFFF7F4FF0CBF012000205DF834
:1008400008FB00BF4DF808EDFFF7EAFF34BF0120B9
:1008500000205DF808FB00BF4DF808EDFFF7E0FF52
:1008600094BF012000205DF808FB00BF4DF808EDA3
:10087000FFF7D2FF94BF012000205DF808FB00BF06
:100880004DF808EDFFF7C8FF34BF012000205DF8E8
:1008900008FB00BF032A10B517D940EA010C1CF071
:1008A000030F04460B4623D119462046D1F800E039
:1008B000D0F800C0F44504F1040403F1040317D197
:1008C000043A032A20461946EED8541EA2B100F17C
:1008D000FF3C013901E0C3180CD01CF801EF11F8FE
:1008E000012F9645A4EB0C03F5D0AEEB020010BD32
:1008F000541EECE7184610BD104610BD844641EA70
:10090000000313F003036DD1403A41D351F8043B87
:1009100040F8043B51F8043B40F8043B51F8043BD9
:1009200040F8043B51F8043B40F8043B51F8043BC9
:1009300040F8043B51F8043B40F8043B51F8043BB9
:1009400040F8043B51F8043B40F8043B51F8043BA9
:1009500040F8043B51F8043B40F8043B51F8043B99
:1009600040F8043B51F8043B40F8043B51F8043B89
:1009700040F8043B51F8043B40F8043B51F8043B79
:1009800040F8043B51F8043B40F8043B403ABDD2E8
:10099000303211D351F8043B40F8043B51F8043B8A
:1009A00040F8043B51F8043B40F8043B51F8043B49
:1009B00040F8043B103AEDD20C3205D351F8043B19
:1009C00040F8043B043AF9D2043208D0D2071CBFE5
:1009D00011F8013B00F8013B01D30B88038060460E
:1009E000704700BF082A13D38B078DD010F0030384
:1009F0008AD0C3F10403D21ADB071CBF11F8013BF4
:100A000000F8013B80D331F8023B20F8023B7BE742
:100A1000043AD9D3013A11F8013B00F8013BF9D26D
:100A20000B7803704B7843708B7883706046704707
:100A3000830730B548D0541E002A3FD0CAB20346BF
:100A400001E0013C3AD303F8012B9D07F9D1032CB7
:100A50002DD9CDB245EA05250F2C45EA054536D9F5
:100A6000A4F1100222F00F0C03F1200EE6444FEA2D
:100A7000121C03F1100242E9045542E902551032FA
:100A80007245F8D10CF1010214F00C0F03EB0212C5
:100A900004F00F0C13D0ACF1040323F00303043370
:100AA000134442F8045B9342FBD10CF003042CB1D5
:100AB000CAB21C4403F8012B9C42FBD130BD6446F2
:100AC0001346002CF4D1F9E703461446BFE71A4653
:100AD000A446E0E700000000000000000000000065
:100AE000012914BF6FF013000020704700000000C0
:100AF0002DE9F04702F00305D409AE464FF0000C93
:100B00004FF00F080127032613E003681A4042EA5A
:100B10000E02BCF1070F02603CD8036A23EA0A0305
:100B200043EA09030362490832D04FEA8E0E0CF102
:100B3000010CCB07F7D50CF007039B0004FA03F96F
:100B400008FA03FA436807FA0CF223EA0203436047
:100B500082684FEA4C0306FA03F322EA030282603A
:100B6000C268022D22EA0302C2606FEA0302CCD1FE
:100B7000BCF1070F15D8036A23EA0A0343EA090305
:100B800003620368134043EA0E0349080360CCD1B3
:100B9000BDE8F087436A23EA0A0343EA0903436294
:100BA000C1E7436A23EA0A0343EA09034362E8E729
:100BB000024AD36843F0C003D3607047001001407D
:100BC000024AD36843F0C003D3607047004400403A
:100BD00072B60349034BC1F8EC0003221A70FEE71A
:100BE000180A0020700C0020000000000000000027
:100BF000FEE700BF00000000000000000000000051
:100C0000014B5B6883607047001000E0000000004B
:100C10000E4A0F4B81685B6810B4946802691B1B15
:100C20005B1AD218416902614268C46841F100014F
:100C30009342026888BF436001349342C0E90234A2
:100C4000416110BC38BF0360704700BF700C0020CA
:100C5000001000E0000000000000000000000000A4
:100C60000A4B10B4D3E90042A2EB040C604509D84A
:100C7000101A49420840844204D8824202D310BC70
:100C800058607047002010BC704700BF680C0020FF
:100C90002DE9F04FCDB082680392C26804920269D8
:100CA00005924269069282690792C269436A089274
:100CB0000E46026A0B9009920A930FCE0CAF3C4687
:100CC0000FC70FCE0FC70FCE0FC796E80F0087E8EC
:100CD0000F003CAD2346A06B5A6A1B6854F8041FF2
:100CE0001A444FEAF04383EA704383EA90231344A3
:100CF0004FEAB14282EAF11282EAD1021344A542DC
:100D0000E363E7D14BAB0293304B0193DDE909621A
:100D1000DDE907C8DDE9054ADDE903E52C4B0BAF4A
:100D200009E0019951F8043F019146462C46E046FE
:100D30007546CC4686464FEAFC2126EA0C090CEAA9
:100D4000080081EABC1181EA7C6189EA000057F859
:100D5000049F084481444FEA7E3185EA040081EA19
:100D6000BE0100EA0E0005EA040B4A4481EABE51C6
:100D700080EA0B001344084403EB0A091844029B61
:100D80009F423246A246CCD10599089F039B049A04
:100D900029440D4606996744DDF828C021440344E0
:100DA0000C4607980999B4446646DDF82CC0724495
:100DB00048444144CCE90232CCE90454CCE906076A
:100DC000CCE908164DB0BDE8F08F00BF60460008C2
:100DD000982F8A4200000000000000000000000080
:100DE0000346144A10B443F8042B00F10C0400F13C
:100DF0005402C16400214161C0E90344C0E90822F2
:100E000010244FF0010C4360816200F1640300F193
:100E10003001826100F174028463C0E90B01C0E912
:100E2000113310BC80F808C0C3614163C36302641E
:100E300000657047E0470008000000000000000067
:100E400008B5037F93B10F2B10D0002203690277FE
:100E50001A6851688B420CD18168D2F808C08C4561
:100E60000AD8C0E900231860506008BD0348FFF7A6
:100E7000AFFE0348FFF7ACFE1346E9E7703A0008FF
:100E8000F43900080000000000000000000000002D
:100E900038B5302383F31188124BD3E90054A4EB07
:100EA000050C604510D8201A49420840821A954224
:100EB0000AD8944208D35A600B4B1A689A4209D157
:100EC000002383F3118838BD074B1A689A424FF00C
:100ED0000000F5D0D96893688A689A42F0D2034836
:100EE000FFF776FE680C0020180A0020343A00084C
:100EF0001D4B70B503F11004D96144601C69826018
:100F00000460606018614FF080401D6AC468AA42A6
:100F100038BF2A4614F0020401EB02061ED14663D4
:100F200004610224C460446A661AB24298BF2E4625
:100F300002D970BD21461446C26801369207314479
:100F40000FD54163426A111BB142F3D2B542F0D2D0
:100F5000DA6B1E6242F00102DA6370BD0348FFF7EC
:100F600037FE0348FFF734FE180A0020D43A000881
:100F7000403A0008000000000000000000000000EF
:100F8000154A4FF0804370B5146ADD68A14238BF3E
:100F90002146AD0701EB000619D55E635D6A281A8C
:100FA000814200D970BD2146D8680131800701EB2C
:100FB00005060CD55E63586A451B8D420AD28C42E9
:100FC000F0D2D36B116243F00103D36370BD0348C9
:100FD000FFF7FEFD0546E7E7180A0020403A000843
:100FE00008B5037F93B10F2B10D00022036902775D
:100FF0001A6851688B420CD18168D2F808C08C45C0
:101000000AD2C0E900231860506008BD0348FFF70A
:10101000DFFD0348FFF7DCFD1346E9E7343B00083A
:101020001C3B000800000000000000000000000061
:1010300008B50846302383F311880B7F0C2B10D89A
:10104000DFE803F0140F0F180B070F0B0F0F0F0F34
:101050000B004A6B936801339360D0E90032136050
:101060005A604FF0FF334363FFF7BAFF002383F367
:10107000118808BD4B6B00221A60F2E700000000E7
:10108000F8B50468A04220D007460D46002604E0CB
:101090000B2A1BD02468A74217D0E3682B43E360D8
:1010A00015B123691D42F5D0D4E90103816C027F9B
:1010B0000B430A2A8364EBD1426B1342EAD04663A6
:1010C000FFF78EFF2468A742E7D1F8BD426B32EAF2
:1010D0000303DFD1F3E700BF0000000000000000C1
:1010E00008B50346006883420BD002681A6053605B
:1010F000037F042B06D100234363BDE80840FFF7BC
:101100006FBF08BD0148FFF763FD00BF843A0008C8
:101110002DE9F843466F3368DF0505469CB275D468
:10112000302383F3118814F02F0F44D005F1040805
:1011300005F10C0907E0A40677681ED4336813F0A4
:101140002F0F9CB237D02007F5D014F0080F0CBF3A
:1011500000214FF48071E20748BF41F02001A3074E
:1011600048BF41F04001670748BF41F08001404659
:10117000FFF786FFA4067768E0D56B6995F87C4099
:10118000002B32D0D5E90832934236D06A69591C17
:1011900001323C4029626A611C70D5E907329A42EB
:1011A00001D3AB692B624846FFF79AFF336813F00F
:1011B0002F0F9CB2C7D1002383F31188F368180660
:1011C0009FB201D5210630D47A060BD5630609D526
:1011D000302383F31188D5E911239A4242D00023AA
:1011E00083F31188F760BDE8F88304214046FFF7D8
:1011F00047FFD5E908329342C8D16A69002AC5D0B1
:101200004FF400614046FFF73BFF97E7302383F33D
:1012100011884FF480610430FFF732FF6FF4807360
:101220003360002383F311887AE7302383F3118836
:10123000D5E911239A4220D0AA6B0132AA635A1C25
:10124000AA6493F800802B6C9A4201D3EB6BAB64D9
:1012500005F13000FFF744FFC6F80480002383F354
:101260001188B1E7AB6B002BB9D01021281D27F0F6
:101270004007FFF705FFBFB2B1E7AA6B002ADBD03A
:101280000821281D27F08007FFF7FAFEBFB2E5E727
:10129000134A5368D16810B59C68012C1CD199423F
:1012A00017D00B69934214D11A6808771068186038
:1012B00043601477DA60EFF309834869243B98426E
:1012C00004D8BDE810401046FEF7FABF0548FFF706
:1012D0007FFC0548FFF77CFC0448FFF779FC00BF62
:1012E000180A00209C390008FC3A0008E039000880
:1012F0002DE9F0433C4E4B1CD6F80C9087B027D01C
:101300000023B04605934FF080430746586A58F8CB
:10131000103F364CCDF8109043450A46039459D0FF
:10132000F5699A68451B4D1934BF2C460C46A242FC
:1013300035D89A6894426D4605D810E01B68A41A07
:101340009A6894420BD9AB42F8D12948FFF740FC88
:10135000FFF79EFFD9F8340007B0BDE8F083029490
:101360009A6859680093121B01910D60C3E90152FC
:101370004FF0FF33B3613846FFF78AFF009B002B25
:10138000E8D03269AA420ED0DDE901109A680B60FC
:101390000244C3E901124FF0FF33B361DAE7FFF70C
:1013A000EFFD3369C5E70022434533610092C3F87E
:1013B000048015D09A680298F16902444FF0804089
:1013C0009A60406A431A9A42C4D9091A1144FFF735
:1013D000D7FDBFE76D4601462846FFF789FDCAE7FE
:1013E0004FF08043DA60B5E7180A0020311000089A
:1013F0000C3B00080000000000000000000000009E
:101400002DE9F04F85B0CDE90232D0F81C904FF0B5
:10141000300B8BF31188002A78D0DFF8F880DDF8E4
:101420000CA004460F46A368D4E90460534534BFBA
:10143000A5685546361AAE4250D834D2324639469F
:10144000FFF75CFAAA1BE0680192B919FFF756FA98
:10145000E368019A13446361A3685B1BA3606DB3E7
:10146000B9F1000F01D02046C847D8F800304345F5
:101470003CD1002383F31188AAEB050A2F448BF398
:101480001188BAF1000FCED14FF0000AD8F8002031
:10149000424534D1002282F31188039BA3EB0A005A
:1014A00005B0BDE8F08F2A463946FFF727FAE36812
:1014B0006361A3685B1BA360002DD1D10299D8F8AA
:1014C0000C300029E2D062680420C3E900421360B6
:1014D0006360FFF70DFF0028A5D0D7E72A463946FD
:1014E000FFF70CFA63692B446361B5E7D8F80C2069
:1014F0009B6892689A42BCD20748FFF769FBD8F80C
:101500000C10926889689142C4D2F5E7DFF8048034
:10151000BAE700BF180A0020C83900080000000020
:101520004FF0FF333030FFF76BBF00BF000000000B
:101530003030FFF765BF00BF000000000000000072
:101540002DE9F04190F802E0C478BEF1FE0F0546A7
:1015500068D0012C00F10C0162D904F10C036FF08A
:101560000B020344121A03E05FFA8CF4012C57D0EB
:10157000D61813F8010D04F1FF3C0028F4D06B7A63
:10158000AA7A344F43EA0223EA7A87F800E043EA72
:1015900002432A79BA706A79FA70AA793A71EA79BB
:1015A0007A712A7ABA711A12FB713A721B14324696
:1015B00007F10A007B727C70FFF7A0F92A790A36DE
:1015C000D20707EB060314D4092229881970298849
:1015D000090A00205970204B1E4902440332186842
:1015E00022444FF0FF33BDE8F04192B23030FFF7B4
:1015F00007BF2A88BA552A88120A5A70D5F81A21C4
:10160000D5F81E01D5F81611C3F80210C3F80A0068
:10161000C3F8062095F822219A730D200922DAE7F3
:101620002646ACE70B4EC379F370037A3371437AE5
:1016300073718379C278B37000F10C0186F800E011
:101640007470B01DFFF75AF9EB7806330522334466
:10165000BBE700BF00090020B40C00200000000020
:1016600070B5302304460D4683F31188204E0AE0FE
:1016700062682946C3E90042042013606360FFF7F3
:1016800037FE002806DBA3685BB9F368002DEFD1B5
:101690004FF0FF303368B34222D1002383F3118827
:1016A00070BDA368A169013BA36023694A1C9A42EB
:1016B00028BFE368A2610D7828BFA361E3690BB17D
:1016C000204698473368B34204D1002383F311883E
:1016D000284670BDF2689B6892689A42F5D204E091
:1016E000F2689B6892689A42D7D20248FFF770FA74
:1016F000180A0020C839000800000000000000009F
:101700004FF0FF310C30FFF7ABBF00BF000000000F
:101710000C30FFF7A5BF00BF000000000000000074
:101720002DE9F04F85B0CDE90232D0F81C804FF0A2
:10173000300B8BF31188002A78D03D4FDDF80CA0D8
:1017400004460E46A268A1695245226934BFA568C5
:101750005546A2EB0109A94552D836D2A5EB09039B
:101760004A4630460193FFF7C9F806EB0900DDF859
:101770000490E1684A46FFF7C1F8E2684A44A26172
:10178000A268521BA2605DB3B8F1000F01D02046E1
:10179000C0473A68BA423BD1002383F31188AAEBD1
:1017A000050A2E448BF31188BAF1000FCAD14FF00D
:1017B000000A3A68BA4233D1002282F31188039BAF
:1017C000A3EB0A0005B0BDE8F08F2A463046FFF7CC
:1017D00095F8E268A261A268521BA260002DD3D1E5
:1017E000029BFA68002BE4D061680420C2E9004142
:1017F0000A6019466260FFF77BFD0028A2D0D8E797
:101800002A463046FFF77AF8A2692A44A261B7E770
:10181000F968926889689142BED20648FFF7D8F904
:10182000F968926889689142C6D2F6E7004FBEE730
:10183000180A0020C839000800000000000000005D
:101840004FF0FF330C30FFF76BBF00BF000000000C
:101850000C30FFF765BF00BF000000000000000073
:10186000F8B504460E461546302383F31188204F01
:101870000AE060682946C3E9004003600420636011
:10188000FFF736FD002806DBA3685BB9FB68002D77
:10189000EFD14FF0FF303B68BB4221D1002383F3EF
:1018A0001188F8BDA3686269013BA360531C6361A2
:1018B0001670D4E904329A4224BFE3686361E36995
:1018C0000BB1204698473B68BB4203D1002080F310
:1018D0001188F8BDFA689B6892689A42F6D204E0D3
:1018E000FA689B6892689A42D8D20248FFF770F96A
:1018F000180A0020C839000800000000000000009D
:101900004FF0FF323030FFF7ABBF00BF00000000E8
:101910003030FFF7A5BF00BF00000000000000004E
:1019200080B53B4D3B4C3C4E4FF0804847F2305722
:1019300027E06B7B022B40D0012B4FF400537383C5
:101940004FF0300353D083F311884FF47A7108209D
:10195000FFF7CEFC2368A3424ED1002383F3118806
:101960004FF400533383302383F3118842F228313C
:101970000820FFF7BDFC2368A34216D1002383F3A0
:101980001188D8F824302A699B1ABB42D1D94FF468
:1019900000533383302383F311884FF4FA61082016
:1019A000FFF7A6FC2368A342E8D0E2689B68926830
:1019B0009A42E3D21948FFF70BF94FF400537383AF
:1019C000302383F311884FF448710820FFF790FC0F
:1019D0002368A34216D1002383F311884FF40053E8
:1019E0003383302383F311884FF44871C0E783F3C6
:1019F00011884FF4FA61BBE7E2689B6892689A42EB
:101A0000ABD2D7E7E2689B6892689A42E3D2D1E70B
:101A1000A00C0020180A002000080240C83A000864
:101A20002DE9F84F81460D469346302383F3118804
:101A30007B4C206B10F8063C013300F8063C236811
:101A4000A342A0F1240040F0CC80002787F3118846
:101A50004369DFF8D0A199454FF030082DD088F3C5
:101A60001188436A534500F09F8013F8062CFF2A23
:101A7000A3F1240600F0A680013203F8062C2368A7
:101A8000A34240F0938087F3118888F31188837F05
:101A9000002B00F09480013B8377C36903F0FF13B0
:101AA0000F2B0DD02368A34240F08F8087F311885D
:101AB000B6B1304643699945D1D15B48FFF788F804
:101AC000D0E9093213605A602368A34240F0908045
:101AD00087F31188C36A002BEAD09847002EE8D11B
:101AE0004D44022305F8443CA5F1280380224F49C8
:101AF00045F8283CA5F1240345E9056245E9093389
:101B000045F8582CA5F18403494A45F8401C0121A9
:101B100045E90D6605F8436C45F8186C45F8806C8E
:101B200045F8543C45F84C9C45F884BC45F8485C65
:101B300045F8504C05F8421C45F8642C3023A5F1BB
:101B4000600683F3118855F8503C2768596B45F8B7
:101B5000381CA5F13C0203F13000A74245F83C0CCB
:101B60000A60E0685A634AD1836855F8582C00210E
:101B70009A4245F82C1C49D9FFF762F9012305F870
:101B8000443C0146E660EFF309834269243B9A42F4
:101B900024D83046FEF794FB2368A3423AD10023B1
:101BA00083F31188BDE8F88F002668E79A68E36838
:101BB0009B689342BFF467AF1E48FFF709F81E48C1
:101BC000FFF706F81D48FFF703F89A68E3689B687B
:101BD0009342BFF46BAF1A48FEF7FAFF1948FEF7BD
:101BE000F7FFE2689B6892689A42BFF42EAFE3E782
:101BF0009A68E3689B689342BFF46AAFEBE7BA6800
:101C000083689342B1D21048FEF7E2FF3046FFF7F7
:101C1000E7F9C1E7E2689B6892689A42BFD2DAE7C7
:101C2000180A0020480A0020B43A0008AC3900081D
:101C3000D1020008983A0008A43A0008243A0008A3
:101C4000C83A00089C390008EC3A0008000000007F
:101C50002DE9F04F664E96F80C9019F00209C3B0CA
:101C6000044654D13169002900F0FC810F7807F057
:101C700001079446FD22A2700CF10C0254FA82F284
:101C800004F10C0512F8010D5FFA8CF1002840F008
:101C9000E4810CF1FF3CBCF1010FF3D180466146B9
:101CA0006422E271BF22E1702272002F00F07A827A
:101CB0000122227100226271B279A271501CB071AE
:101CC000FD208DF80D108DF80C004FF0080A4FF034
:101CD0000A0EA07A8DF81020627A42EA0022E07A99
:101CE00042EA004220798DF80E0000208DF80F00A6
:101CF00064208DF81100BF208DF813208DF812009C
:101D0000101212148DF814008DF815202BE0FE220D
:101D1000C1708270642001F1FF38E071BF201FFAAA
:101D200088F8207204F10C058C464FF0040A4FF03D
:101D3000060E0027277167718DF80C20B279A27109
:101D4000501C8DF80D10B071B9F1000F00F0288211
:101D50008DF80E20627A8DF8112064228DF80F2004
:101D6000BF228DF810200DF10D0082444FF6FF794F
:101D700001E010F8011F81EA090181EA0111C9B2ED
:101D80000A0982EA192242EA0122824582EAC1094D
:101D9000EFD108F1010815FA88F8284610F8012B50
:101DA00082EA090282EA0212D2B2110981EA1921F9
:101DB00081EA022181EAC202404511B21FFA82F98A
:101DC000ECD14B4083EA0313DBB2190981EA1921F4
:101DD00081EA032181EAC30305F80C30E2782A4442
:101DE000C3F307215170238027B943B0BDE8F08FBA
:101DF000DC0D00203669002EF7D03378DF07F4D5EC
:101E0000737884F81631F2680192BDF80430E778EF
:101E1000C94ACA49F046D6F808E0C4F817E1A4F860
:101E20001B31B3680133B360F36843F10003F3601F
:101E3000C34BCDE92C23C34BCDE92E13C24B3093BA
:101E400003F17453A3F52303A3F69243319330694E
:101E5000B269F36971690DF1C80CACE80F006B460B
:101E6000BA48C3F800E0BA4BCDE92A030023306A30
:101E70002993716AF36AB26AACE80F004FF4807379
:101E800003EBC80328930DF10C094FF0200B16AE9D
:101E90000DF1980ACBF14002424528BF424632ABD1
:101EA000494603EB0B009344A8EB02089144FEF76C
:101EB00025FDBBF1400F00F0D780B8F1000FE9D14C
:101EC000289A02EBC7039A42289300F26581C2F375
:101ED000C50BD7B1A946B8460DF1980ACBF140021F
:101EE000424528BF424632AB494603EB0B009344C0
:101EF000A8EB02089144FEF701FDBBF1400F00F092
:101F0000CD80B8F1000FE9D1289B13F1100228927F
:101F100080F03E812F44C3F3C50902250DF19808D6
:101F2000C9F14002AA4228BF2A4632AB394603EB28
:101F300009009144AD1A1744FEF7E0FCB9F1400FD7
:101F400000F0C680002DEBD1289B13F138022892B7
:101F500080F01A81C3F3C50904F58B7707250DF1CD
:101F60009808C9F14002AA4228BF2A4632AB394636
:101F700003EB09009144AD1A1744FEF7BFFCB9F119
:101F8000400F00F0E780002DEBD1DDF8A08029465E
:101F900080234FEAD8058DF85830C5F1770303F058
:101FA0003F0947220DF1590009F10907FEF740FDED
:101FB00009F58473F9006B4418EB0101299A289103
:101FC0004FEA182103F8A91C4FEA184103F8AA1C8C
:101FD0004FEA122103F8AD1C4FEA124103F8A88C16
:101FE00003F8AC2C4FEA186803F8AE1C4FEA1261F4
:101FF00028BF013203F8AB8C03F8AF1C28BF29922D
:1020000005F03F05B046C5F14002BA4228BF3A4646
:1020100032AB414658191544BF1A9044FEF76EFC86
:10202000402D6FD0002FEED19DF8AB209DF8AA3047
:102030009DF8A9009DF8A81084F81D2184F81E3190
:102040009DF8AF209DF8AE3084F81F0184F8201170
:1020500084F8212184F82231C7E601F1FF381FFA04
:1020600088F81DE64F4604E628AA334692F82B105E
:10207000197092F82A10597092F82910997092F8F4
:102080002810D97004339A4502F10402EED131468A
:1020900028A8FEF7FDFD4FF0000B0EE728AA3346F7
:1020A00092F82B10197092F82A10597092F8291092
:1020B000997092F82810D97004339A4502F10402FD
:1020C000EED1314628A8FEF7E3FD4FF0000B18E7EC
:1020D00028AA334692F82B10197092F82A105970DA
:1020E00092F82910997092F82810D9700433984505
:1020F00002F10402EED1314628A8FEF7C9FD4FF0E7
:1021000000091FE728AA06AB92F82B10197092F865
:102110002A10597092F82910997092F82810D970E5
:1021200004339E4202F10402EED106A928A8FEF76C
:10213000AFFD002576E700BF72F36E3C7F520E5173
:102140003AF54FA58C68059BABD9831F67E6096AF2
:1021500085AE67BB28AA334692F82B10197092F807
:102160002A10597092F82910997092F82810D97095
:102170000433984502F10402EED1314628A8FEF757
:1021800087FD4FF00009FEE6299A01322992E1E627
:10219000299A01322992BDE629990131299196E6C1
:1021A0004F4696E54FF0080AFD224FF00A0EC0E5B3
:1021B00010B51049CCB06B460024C3E9004103229E
:1021C0001A7293E807000DF1180CACE803008CF8C4
:1021D000002009223223114603A88DF815408DF8FE
:1021E00016408DF81740FFF733FD03A8FFF7A8F955
:1021F0004CB010BD120800040000000000000000F8
:1022000010B5D2B000230493059306930293039371
:10221000194A40F2FF13ADF81C30184B5178009367
:1022200000249278164B8DF820408DF81E108DF802
:102230001F200193EE464C238DF82D30BEE80F0091
:102240000DF1300CACE80F00BEE80F00ACE80F0059
:10225000DEF800108CF8001021229823114609A8FE
:102260008DF82E408DF82F40FFF7F2FC09A8FFF7FC
:1022700067F952B010BD00BFA00C0020000004425E
:10228000002474480000000000000000000000006E
:1022900000B5124ACDB050788DF808000422012113
:1022A000019201AB8DF8091093E803000692ADF896
:1022B0001C10062200210B2059238DF815008DF8E3
:1022C00016108DF8171003A81146FFF7C1FC03A8DC
:1022D000FFF736F94DB05DF804FB00BFA00C0020FD
:1022E00030B51F4AD3B051788DF81E1092788DF812
:1022F0001F200621ADF820101A4A1B490023CDE902
:102300000412069300240093019302930393152370
:102310008DF82240ADF81C30EC46BCE80F000DF102
:10232000300EAEE80F00BCE80F00AEE80F00DCF89E
:1023300000302EF8023B23221B0C8EF80030114691
:102340009E2309A84B258DF82D508DF82E408DF831
:102350002F40FFF77DFC09A8FFF7F2F853B030BD1E
:10236000A00C002010FF3F2E204FBB0700000000F4
:102370002DE9F04FC3B0CDE90101002800F0FF8145
:102380000346904602F58B7702F21D120546596905
:10239000006903929A69DB6932AC0FC4286A696AE2
:1023A000AA6AEB6A98F803500FC4D8F80200D8F86C
:1023B0000610B8F80A20234603C31A80C04BC14A4E
:1023C000C149C248CDE92A23C14BCDE92C13C14BE9
:1023D000CDE92E03C04B309303F17453A3F52303CF
:1023E000A3F692434FF4A874319304EBC504002381
:1023F000CDE9284308F10C0B002D00F0E2812A24DE
:102400000DF1A00A16AE0DF19809C4F14002AA42DE
:1024100028BF2A4632AB594618191444AD1A9344C2
:10242000FEF76CFA402C00F0B580002DEDD1289C11
:1024300014F11003289308F58A7B80F01F81C4F300
:10244000C50402250DF19809C4F14002AA4228BF33
:102450002A4632AB594618191444AD1A9344FEF774
:102460004DFA402C00F0B280002DEDD1289C14F1E3
:102470003803289380F0FE80C4F3C50407250DF1CE
:10248000980BC4F14002AA4228BF2A4632AB394613
:1024900018191444AD1A1744FEF730FA402C00F016
:1024A000B180002DEDD1DDF8A0B029464FEADB0563
:1024B000C5F1770707F03F078023472207F109049A
:1024C0000DF159008DF85830FEF7B2FA07F5847314
:1024D000E2000DEB03071BEB0202299B28924FEA57
:1024E0001B2207F8A92C4FEA1B4207F8AA2C4FEA37
:1024F000132207F8AD2C4FEA134207F8A8BC07F8DF
:10250000AC3C07F8AE2C4FEA1B6B4FEA136228BFB6
:10251000013307F8ABBC07F8AF2C28BF299305F0AF
:102520003F053746C5F14002A24228BF224632ABE2
:10253000394658191544A41A1744FEF7DFF9402DFF
:102540007CD0002CEED19DF8AB308DF810309DF88A
:10255000AA308DF811309DF8A9308DF812309DF811
:10256000A8308DF813309DF8AF308DF814300399F2
:102570009DF8AE308DF81530062204A8FEF78AF9D2
:1025800000287FD0019A022382F83430204643B0DD
:10259000BDE8F08F5246334692F82B10197092F82E
:1025A0002A10597092F82910997092F82810D97051
:1025B0000433994502F10402EED131465046FEF74C
:1025C00067FB0024002D7FF420AF30E752463346EE
:1025D00092F82B10197092F82A10597092F829105D
:1025E000997092F82810D9700433994502F10402C9
:1025F000EED131465046FEF74BFB0024002D7FF410
:1026000023AF33E75246334692F82B10197092F8F5
:102610002A10597092F82910997092F82810D970E0
:1026200004339B4502F10402EED131465046FEF7D9
:102630002FFB0024002D7FF424AF34E7524606AB75
:1026400092F82B10197092F82A10597092F82910EC
:10265000997092F82810D97004339E4202F1040256
:10266000EED106A95046FEF713FB0025002C7FF49F
:1026700059AF68E7299B01332993FDE6299B013374
:102680002993DCE600230022CDE90623029BD8F83B
:102690001701B8F81B7198F81611069008F2171573
:1026A000ADF81C70002B00F09080B3F800C02246FB
:1026B000BCF1000F2DD098F807A0029B12E000BFDC
:1026C00085AE67BB67E6096A72F36E3C7F520E51B6
:1026D0003AF54FA58C68059BABD9831F624503F182
:1026E000090312D2DF78601C5745A64682B2044621
:1026F000F4D1187998F808708742EFD19878884219
:1027000042D0624503F10903ECD33CD1BCF10F0F79
:1027100061D8019B069C364E079FD3E90203A61998
:1027200047F1000E86427EEB03035AD3029802EB78
:10273000C2028318053200EB020E98F80720DA7007
:1027400098F808201A710CF1010C9970A0F800C0DB
:10275000D8F81731CEF80030AB880199AEF80430C4
:10276000D1E90223A242BB41019B4FF0010038BFD7
:10277000C1E9024783F8340043B0BDE8F08F01207F
:1027800043B0BDE8F08F96460EEBCE0E029A0EF1E6
:10279000050302EB030ED058BEF8041000220023FC
:1027A000CDE916231690B180DDE90647DDE9162351
:1027B000A242BB41CCD3019A062382F834300020D8
:1027C000E5E60DF1A00A16AE32E6019A029803235F
:1027D00082F83430DBE6019A042382F8343000209A
:1027E000D5E6019A052382F834300020CFE600BFF9
:1027F000808D5B0000000000000000000000000071
:102800002DE9F04FDFF8CCA2DFF8CC82B34CDFF833
:10281000D0B28BB0DAF800004FF47A710C30FEF7CA
:102820001FFF0028C0F23882E57800235FFA80F9A4
:102830002370102D00F24683DFE815F0A000A00001
:102840000601F1000E02FA01E601D201AD018E018E
:1028500064012A01B1008100810011001100627B36
:10286000A04E531EB21ADBB282F823916373002B81
:1028700000F0D0822379F27894F802E094F80CC04A
:102880000193617920890027974B8BF80320DD7035
:102890000131019D1D7159711881A3F80AE083F877
:1028A0000CC0022F4FF00003A37000F0E981032F4A
:1028B00000F0EA81002F00F0EF81DBF80810080A31
:1028C00000F00082212840F0E7811C2A28BF1C224A
:1028D0008649099303A8CDE90333CDE90533CDE952
:1028E0000733FEF70BF898F80D300798C8F8080082
:1028F0000122934288F80C208CD1FDF7B1FD7C4970
:10290000FDF7B6FE7B49FDF7A7FF002882D0FFF751
:10291000BFFC302383F311884FF4FA710820FEF7CF
:10292000E7FC754A1368934240F0C382002383F3A7
:102930001188FFF7D5FC022388F80D306AE70E2DC9
:10294000684E00F05B82338886F81591B9EB132F3F
:10295000337900F0A0820227DB07277040F1F48171
:1029600010250D23E57063732379F278617920894E
:1029700094F802E094F80CC0019385E7B9F1FD0FDB
:1029800000F02B82B9F1FE0F00F07A822379554EC8
:102990000193F27894F802E094F80CC071E7514E7C
:1029A000B268E9209421C2F31722002503460133BF
:1029B0008A424FEA5303C0F0BA8100F204828A428D
:1029C00040F0FC814D4A318886F8149103EB4303B3
:1029D00002EB83031D799A794D4085EA0513DBB23A
:1029E0001D0985EA112545EA032585EAC3052379F2
:1029F0003580EDB2A94514BF0E250D259342E57033
:102A00000193C6D2019B3E48D21A18440021FEF71A
:102A10000FF8F27894F802E094F80CC031E7314EE8
:102A200010F0FE0F86F8049000F00F8294F802E098
:102A30002379F27894F80CC001930EF1010E012570
:102A40005FFA8EFEE5701CE7264E94F80CC03088C5
:102A500094F802E086F8039089EA000383EA0313FE
:102A6000DBB21A0982EA102242EA032282EAC30395
:102A700033801CF001034FF0000114BF052503252E
:102A8000019321711CBFB1800191E5704A46F8E6BF
:102A9000144E23795A1C3344D7B283F80C903088F3
:102AA000F278019789EA000383EA0313DBB219097C
:102AB00081EA102141EA032181EAC3039742277189
:102AC00033807FF467AF0C2594F802E094F80CC0D3
:102AD000E570D6E6B40C0020A00C0020DC0D002030
:102AE000F40D0020B80C0020180F0020000E00206C
:102AF00000007A440000F041180A0020683B0008FA
:102B0000C40C0020BF4E0004B268318800F47F037B
:102B100043EA1223C2F307227272C3F307221B0C8B
:102B2000F37289EA010383EA0313DBB2B2721A0972
:102B300082EA112242EA032282EAC303F278338056
:102B4000002A00F039810B25237994F802E094F8EB
:102B50000CC0E570019394E6AA4E0002B268318879
:102B600083B243EA1223C2F307227272C3F307222D
:102B70001B0CF37289EA010383EA0313DBB2B2721E
:102B80001A0982EA112242EA032282EAC3030A25D1
:102B90003380E5706EE69B4E94F80CC0318886F861
:102BA00009900023F372B37289EA010383EA0313E5
:102BB000DBB21A0982EA112242EA032282EAC30343
:102BC0001CF0010F338000F0EF80F278002A00F053
:102BD0005081237994F802E001930B25E57050E6CB
:102BE000884E318886F8089089EA010383EA031346
:102BF000DBB21A0982EA112242EA032282EAC30303
:102C000008253380E57035E67E4E318886F80790DA
:102C100089EA010383EA0313DBB21A0982EA11226B
:102C200042EA032282EAC30307253380E57021E6E6
:102C3000744E318886F8069089EA010383EA03130B
:102C4000DBB21A0982EA112242EA032282EAC303B2
:102C500006253380E5700DE66A4E318886F80590CA
:102C600089EA010383EA0313DBB21A0982EA11221B
:102C700042EA032282EAC30305253380E570F9E5C1
:102C8000B6F81431ABF80030002340F20112B9F16C
:102C9000FD0F237062800CD098F80D30012B7FF46B
:102CA000B9AD98F80C30002B3FF4B4ADD8F808005B
:102CB00023E602214FF6FF72F370E17098F80D30B1
:102CC0003280EBE74FF08043092A5B6A4E498DF86A
:102CD0001400CDE9030028BF092203A8C8F810306A
:102CE000FDF70CFE98F800309BB1039BC8F8043048
:102CF000062B98F80D3006D0012B7FF48BAD002306
:102D000088F80D3086E5002BC8D1012388F80D30F6
:102D1000C7E79BF807109BF8082088F801100123EB
:102D200088F8022088F80030FFF76AFADDE7581EBD
:102D300085424BD22B185F1C27F0010101EB570194
:102D4000324F57F8211032E62369002B00F08F80B4
:102D50001B6B33B1B1682046090A9847002840F040
:102D600086802778022F01D0032727700123254969
:102D7000E37040F223125846FDF7C0FD012F18BF43
:102D800001257FF4F1AD2089B179617100B96081CD
:102D900001302379F27894F802E094F80CC00193A2
:102DA00080B2208101256FE52379F27894F802E062
:102DB00001930925E57064E50C25C5E60E2586F826
:102DC0001491E57056E51D468542B3D30C210F489A
:102DD00005FB01F12B464158F1E594F80CC0094E72
:102DE0000B4B0CF0FE0C022584F80CC0E570336030
:102DF000237994F802E00193002242E5337986F8C2
:102E00001591A8E5B80C0020000E0020683B0008D2
:102E1000FFFFFD00D4E904013246FFF7A9FA0028BC
:102E200045D123691B6B53B1B1682046090A984705
:102E3000E37828B1102B05D00127277096E7E378B7
:102E4000102B91D10227277090E7318889EA01037E
:102E500083EA0313DBB2042523FA05F282EA112286
:102E600042EA032282EAC303E570338002E5277851
:102E70007CE7237994F802E001930C25E57000E5E6
:102E800094F80CC0114E124B4CF0010C022584F842
:102E90000CC0E570ABE701222270DA077FF554AF72
:102EA0000F2500270D23E570277063735CE5E37839
:102EB000C0E7D2689B6892689A42BFF437AD054874
:102EC000FDF786FE014E00274EE500BFB80C00203E
:102ED000FFFFFE00C83A00080000000000000000EC
:102EE000704700BF0000000000000000000000006C
:102EF000704700BF0000000000000000000000005C
:102F0000FEE700BF0000000000000000000000001D
:102F1000F8B5154D154F16491648174A05F17004B6
:102F200081420DD9043A034652F8046F43F8046B0A
:102F30009942F9D84B1E1B1A23F00303043318449B
:102F4000874207D97A1E121A22F0030204320021A6
:102F5000FDF76EFDA54205D0D5E90420D5E9061799
:102F60001035DDE7F8BD00BF60470008801600207F
:102F7000801600208016002008480008000000008D
:102F800008B51048FEF7C4F8302383F311880E4BC0
:102F90005B6813F4006302D183F3118808BDEFF37B
:102FA0000983203B4FF08072DA6183F30988074A76
:102FB0001168D2688968926891428CBF044A054AB8
:102FC0009A6108BD0008002000ED00E0180A00200A
:102FD000E3020008E6020008000000000000000014
:102FE00008B51048FEF794F8302383F311880E4B90
:102FF0005B6813F4006302D183F3118808BDEFF31B
:103000000983203B4FF08072DA6183F30988074A15
:103010001168D2688968926891428CBF044A054A57
:103020009A6108BD8008002000ED00E0180A002029
:10303000E3020008E60200080000000000000000B3
:103040002DE9F0474FF08049D9F81030D9F80C201D
:103050001340DAB2D2439B07C9F810200BD43023B7
:1030600083F31188404B5B6813F4006352D183F300
:103070001188BDE8F087302383F311883B4E4FF071
:10308000000A06F110074FF030083469D9F824001F
:10309000F369A568C21AAA4250D3D4E900211D449D
:1030A000F5610A605160C4F800A03369BB4208BFF3
:1030B000C9F80CA08AF31188D4E903312046984757
:1030C00088F311886369002BDFD0D9F824104A1BDC
:1030D00093421CD33269BA423FD091688B4209D9DE
:1030E000A24202D136E0944234D012685B1A916851
:1030F0008B42F8D8A36091682260CB1A5168616056
:103100000C60C2E901434FF0FF33B361BBE71848DD
:10311000FDF75EFDEFF30983203B4FF08072DA612B
:1031200083F30988114A1168D268896892689142CC
:103130008CBF104A104A9A61BDE8F087BC4205D0A6
:103140002B44191AF061A160FDF71AFF002383F3E5
:10315000118884E70948FDF73BFD2B445A1A2046A5
:10316000FDF7C6FEF2E700BF00ED00E0180A002000
:10317000643A0008E3020008E60200080C3B00087D
:10318000674B68491A6942F01F022DE9F04F1A6136
:103190001869654E654DDFF89881DFF898A1DFF872
:1031A000989120F01F0018611869186B40F01F00FB
:1031B0001863186D40F01F00186500226FF48A60D4
:1031C0001C6D4A6088605D48C8604FF6DF704861DA
:1031D0004FF4EE4008624FF42A20486258480860D5
:1031E000584C5948726001F5E0514FF0FF3C4FF6E2
:1031F000FF774FF0553E4FF0800BC6F808C0C6F879
:103200000CE0776132627262C6F800B06A60C5F89D
:1032100008C0C5F80CA06F612A626A622A60626009
:10322000C4F808C0C4F80CE06761226262622260E0
:103230004260C0F808C0C0F80CE047610262426218
:1032400002604A604FF08050C1F808C0C1F80C908D
:103250004F610A624A620A604FF400421864C8F87B
:1032600000201A6842F001021A601A689407FCD51F
:1032700099682B4A21F003019960936813F00C03BD
:10328000FBD11068264900F0F90010609360536F7D
:1032900043F0010353674B6F9807FCD52B4B4B60F2
:1032A0000B68234A43F080730B6053685904FCD5C4
:1032B0001B4A13689B01FCD5254B264890600321CF
:1032C000C2F88C101A68244B9A421ED0234B40F24D
:1032D00002721A60214A136803F00F03022BFAD11D
:1032E0000F4A936843F002039360936803F00C0362
:1032F000082BFAD1536C43F480435364536E43F468
:1033000080435366536EBDE8F08F154A154B126823
:103310009A42DBD1114B4FF481721A60DAE700BF99
:103320000038024000000240000402400008024051
:1033300000700040555555015055555505511564BF
:10334000A004802A000C0240001002401054010723
:10335000002004E00010883811640020003C024086
:1033600000ED00E041C20F4100000000000000003D
:103370000D4B10B51C68D86822681A600121536093
:103380002177DC60FDF75CFDEFF309834269243BA4
:103390009A4205D801462046BDE81040FCF790BF90
:1033A0000248FDF715FC00BF180A00209C390008F0
:1033B00008B5302383F31188104BDC68A36B60637E
:1033C00004F138059D4207D1A37F73B10F20FDF7AB
:1033D0005FFF0B48FDF7FCFB1A68A2631846FDF778
:1033E000FFFDA36BAB42EFD0F6E7E36A002BEDD114
:1033F000D4E9093213605A60E8E700BF180A0020D8
:10340000483B000800000000000000000000000031
:10341000EFF30983203383F30988002383F31188B2
:10342000704700BF00000000000000000000000026
:10343000BA4BBB481A6962F01F022DE980481A6135
:103440001A6902F01F021A614FF0FF341A695A69B3
:103450005C6100215A6959615A691A6A62F08052A6
:103460001A621A6A02F080521A621A6A5A6A5C6216
:103470005A6A59625A6A1A6C42F080521A641A6E79
:1034800042F080521A661A6E026842F4807202603C
:103490001A6F02F44072B2F5007F89B003D04FF486
:1034A00080321A6719679E499E4B4A689E4E9F4F0D
:1034B00022F400724A604FF080544022C020202144
:1034C000702583F81C53C3F880411C6083F82503E2
:1034D000974CC3F88411596083F826039549C3F8C3
:1034E000842130465A60FDF77BFC934A934B944904
:1034F0002046C6E91D23FDF773FC884B914C1A6CDE
:10350000446742F001021A641A6E8F4942F00102C8
:103510001A661B6E8B684FF0804243F001038B608C
:103520004FF0FF340023012142F2CF059562D462AF
:10353000002593615363D360536051611160CDE9FD
:103540000243CDE90433C7E9013300247F4B3970CE
:10355000CDE906458367042502A8FDF751FBFDF779
:1035600057FB013DF8D17A487A497B4A029BBB6000
:10357000C2E90001794A7A4BD561091AC2E9010111
:1035800078491962996302F11401C2E90511042115
:10359000D961596374491160C2E9035503F11002FE
:1035A0001A6114229A6103F124025A6203F128027B
:1035B0009A621C221A6303F13C02DA6378689D6008
:1035C00003F140021A6403F14402C3E900335D6170
:1035D000DD625A64002840F0A781644C644B236488
:1035E0007C60A563302080F3118862B6C4E9014590
:1035F000C4E938555F4BE563E561D9685E4AC4F8B4
:10360000A8404FF6FF0C01EA0C010A43C4E931550A
:10361000DA60D3F8FC20594942F08072C3F8FC20EC
:103620000A684FF0200C42F001020A6083F81FC0C4
:1036300083F8220004F11003C4E904334FF0FF3390
:10364000A3614FF0020A4FF080438021C4F820A00C
:103650005B6AC4F8A010C4F8E81021184848019328
:10366000C4F8AC004748C4F8B000DDF80480464810
:10367000464BC4F8B80004F1D40C04F1D000A946BC
:10368000C4F8D4C0C4F8D0002460C4E90A89C4F8DE
:10369000D8C004F1980C04F14400C4F80CC003F540
:1036A000807CC4F85CC000F1380CC4F87CC0DFF842
:1036B000E0C0C4F864C003F1DC0CC4F850C0DFF80B
:1036C000D4C0C3F8DCC0012204F1680EDFF8C8C022
:1036D000C4F8C010A16604F1800B8C31C3F8FCC0A3
:1036E000A365C3F8E050C4E91C55C4E92355C4E9F7
:1036F00020BBC4F8EC502163E166A4F8B42084F840
:10370000B620E2646465C4F8942084F86220A4F8CA
:1037100060A0C4F8BCE0C4F834E03FE000380240E8
:103720000070004000E100E000080020700C002064
:1037300080080020B10B00080010014000BD010509
:10374000C10B000800440040002004E080DE80023D
:103750008016002000800120680C00207C0C0020D6
:10376000200C0020610C0008910E0008180A0020AF
:10377000543B000800ED00E00003FA05001000E0F3
:103780000004002000080020B4390008200B0020AD
:10379000BC390008F10B0008D1020008FDF720FC3D
:1037A000236887F800A0A34240F0C180002383F380
:1037B00011886A4F4FF40051894601223846FDF7BF
:1037C00097F90325A7F81890CA464FF03008A7F8D4
:1037D0001AA088F3118840F2DC510820FDF788FD1B
:1037E0002368A34240F09980002383F31188A7F84F
:1037F000189088F3118840F2DC510820FDF778FD1D
:103800002368A34240F08280002383F31188013DA6
:10381000DDD1534840F282324FF40071FDF768F970
:1038200040F282324FF48061FDF762F9302383F376
:103830001188337A5A1E012A00F28280012B5AD055
:10384000B16F484A01F5E141A2FB0132B1F1614F8C
:10385000736F4FEAD23276D240219A60196142F2F8
:103860002C1201215961DA60002122681960186860
:103870005B68FF210223A24286F87C10337265D177
:10388000002282F31188384B38491A604FF0804586
:103890005A600E60696A1961C3E902223448354AE8
:1038A0004FF4A461FEF7BCF8334A34484FF4087172
:1038B000FEF7B6F842F20F786E6A302702E0002376
:1038C00083F311886B6A9B1B434502D9FEF770FC9A
:1038D0006E6A87F311884FF4FA710820FDF708FD2E
:1038E0002368A342EBD0E2689B6892689A42E6D2D2
:1038F0002348FDF76DF9234B5A6C42F010025A64CD
:103900005A6E42F010025A665B6E99E7E2689B6855
:1039100092689A42BFF478AFEAE7E2689B689268DF
:103920009A42BFF461AFE3E71748FDF751F9E26847
:103930009B6892689A42BFF439AF1448FDF748F982
:103940001348FDF745F91348FDF742F9E16893681C
:103950008A689A4294D21048FDF73AF9000802406A
:1039600000000240C5B3A291A00C0020B40C0020BE
:10397000601100200128000821190008400F0020D4
:10398000C83A0008003802400C3A0008583A0008CB
:0C399000E43A0008D43900084C3A000862
:10399C00737461636B206F766572666C6F77000071
:1039AC006E6F6E616D6500006D61696E00000000E8
:1039BC0069646C6500000000633000006368537933
:1039CC0073556E6C6F636B0075736172745F696EA7
:1039DC0069740000636853797347657449646C6556
:1039EC00546872656164580063685F7071756575C1
:1039FC00655F696E736572745F6168656164000010
:103A0C006368496E7374616E63654F626A65637453
:103A1C00496E69740000000063685265674E6578F2
:103A2C0074546872656164006368537973556E6C85
:103A3C006F636B007374536574416C61726D00003D
:103A4C006368537973556E6C6F636B00636853795D
:103A5C0073556E6C6F636B0063685654446F546996
:103A6C00636B49005F5F7363685F72656164795F64
:103A7C0061686561640000006368546864446F4465
:103A8C006571756575654E65787449006368537921
:103A9C0073556E6C6F636B00636854686452656C2D
:103AAC006561736500000000636854686443726567
:103ABC0061746553746174696300000063685379C1
:103ACC0073556E6C6F636B007374537461727441D5
:103ADC006C61726D00000000736453746172740049
:103AEC00636853636857616B657570530000000021
:103AFC006368536368476F536C65657053000000CF
:103B0C0063685F646C6973745F696E73657274006B
:103B1C0063685F7071756575655F696E73657274E6
:103B2C005F626568696E64005F5F7363685F72658E
:103B3C006164795F626568696E64000063685468EB
:103B4C006445786974530000C439000800040020EF
:103B5C0000080020200B0020200C0020000000009A
:103B6C003209090000000000010000007C1F2B003E
:103B7C000000000002000000890C0C000000000096
:103B8C0004000000ED0E0E030C0D000005000000FB
:103B9C00D91C1C0100000000060000006803030093
:103BAC00000000000700000077202000000000004B
:103BBC000800000075242400000000000B00000029
:103BCC00590606010400000014000000D61414036A
:103BDC0002030000150000009F0202030001000018
:103BEC0016000000DC19190000000000170000008E
:103BFC00A81717030405000018000000181E340055
:103C0C0000000000190000001765650000000000AE
:103C1C001A000000AA161800000000001B0000008B
:103C2C00901A1D00000000001C0000004310100042
:103C3C00000000001D000000730E100000000000CA
:103C4C001E000000271C1C00000000001F000000CC
:103C5C00F62030000000000020000000B91C1C0001
:103C6C000000000021000000681C1C000000000087
:103C7C0022000000ED1616000000000023000000DA
:103C8C00F41616000000000024000000DE152500CC
:103C9C000000000025000000D40607030405000006
:103CAC002600000009060703040500002700000099
:103CBC00FE2526032021000028000000E604050351
:103CCC0002030000290000001C040403020300008E
:103CDC002A0000001C021200000000002B00000053
:103CEC0084020303000100002C000000DD04090322
:103CFC00020300002D000000E80203030001000095
:103D0C002E0000000B020200000000002F0000003B
:103D1C00990308030001000030000000290D150173
:103D2C000C00000031000000270C14000000000003
:103D3C00320000004E252503121300003300000052
:103D4C00C404050302030000360000000F1B1B0314
:103D5C0018190000370000000319190000000000BA
:103D6C003D000000A7484800000000003E00000095
:103D7C00B71A1A00000000003F00000077B5B5002C
:103D8C000000000040000000BFE1E1000000000066
:103D9C0041000000762A2A000000000042000000CA
:103DAC0094060603020300004300000015040400FF
:103DBC000000000045000000F30B1E010A0000008B
:103DCC00460000007C122603101100004900000080
:103DDC0026252603202100004A000000141414009C
:103DEC00000000004B0000009E2323031E1F000058
:103DFC004C000000982121031E1F00004D00000004
:103E0C008F030A0308090000500000000E0404038D
:103E1C0002030000510000006A16160000000000AA
:103E2C00520000003127330324250000530000000A
:103E3C001625250000000000540000008F353503C6
:103E4C0032330000550000008C33330000000000BA
:103E5C0056000000053535033233000057000000D2
:103E6C00963333000000000059000000E71C1C00D2
:103E7C00000000005A000000B738380000000000B5
:103E8C005B0000003F2A2A00000000005C000000DC
:103E9C0036212100000000005D0000002F51510070
:103EAC000000000064000000AF1A220000000000B7
:103EBC006500000066207500000000006600000030
:103ECC009E2075000000000067000000D01439002F
:103EDC0000000000680000003820740000000000A2
:103EEC00690000005D3E3F00000000006A00000019
:103EFC008A2C2C00000000006B0000006C4041007C
:103F0C00000000006C00000020545C000000000069
:103F1C006D000000B9090900000000006E000000EF
:103F2C0054FEFE03010200006F0000002210120379
:103F3C001011000070000000AE0C0C00000000001E
:103F4C00710000007C2427000000000072000000BB
:103F5C00ED2C2C0000000000730000000440400019
:103F6C0000000000740000004C1618000000000057
:103F7C0075000000800606030405000076000000B2
:103F8C00380E0E000000000077000000740C0C03CB
:103F9C000A0B000078000000866161000000000040
:103FAC0079000000ED020203000100007A0000001D
:103FBC00CB020203000100007B000000FA717103C8
:103FCC00000100007C0000005723390000000000B5
:103FDC007D000000CB060600000000007E00000003
:103FEC00DC4F51034F5000007F00000019232300C9
:103FFC000000000080000000E2232300000000000D
:10400C00810000002E161800000000008200000045
:10401C001D0D0D000000000083000000DFFFFF00FD
:10402C000000000084000000550E27000000000076
:10403C00850000000612120000000000860000003F
:10404C00E52B2B000000000087000000CB080800C7
:10405C00000000008800000001161600000000009F
:10406C0089000000C30E1000000000008A00000050
:10407C006D247800000000008B000000A82B2B039F
:10408C00292A00008C000000B5292900000000003E
:10409C008D0000002F202000000000008E0000008A
:1040AC0048F3F300000000008F000000830E1000A6
:1040BC0000000000900000007F5D5D00000000002B
:1040CC009200000067646400000000009300000090
:1040DC009A2436000000000094000000B23C4E0010
:1040EC000000000095000000C81E3C00000000000D
:1040FC00A2000000BD08090000000000C000000084
:10410C00242C360000000000E1000000D0414900E2
:10411C0000000000E6000000A32A2A0000000000B6
:10412C00E70000006928280000000000E8000000FB
:10413C00973F410000000000E900000023B6B600E4
:10414C0000000000EA000000962828000000000093
:10415C00EB000000B32A2A0000000000F100000070
:10416C005A20200000000000F200000068343C00DF
:10417C0000000000F300000055353D013400000044
:10418C00F40000005F06060000000000F5000000CF
:10419C008202020000000000F6000000B826260093
:1041AC0000000000F7000000511313000000000095
:1041BC00F800000008FEFE0303040000F9000000F4
:1041CC00CC24240000000000FA000000311E1E0068
:1041DC0000000000FB000000AA121200000000000A
:1041EC00FC0000002C12120000000000FD0000007A
:1041FC005333360000000000FE0000002E090900B9
:10420C000000000000010000472A2A0308090000F2
:10421C0001010000830909000000000002010000F8
:10422C00BB20E80300010000030100005CEBED0083
:10423C00000000000401000092050E0000000000C8
:10424C0005010000B31B3D0000000000060100004A
:10425C000C121700000000000701000085FFFF0092
:10426C000000000008010000311C200000000000CC
:10427C00090100001A101400000000000A010000DF
:10428C00C1FFFF03020300000B01000023FFFF032B
:10429C00020300000C0100000E04040302030000E2
:1042AC000D0100006DD5D700000000000E010000CC
:1042BC003B131400000000000F0100001634350001
:1042CC0000000000130100007E1F20000000000011
:1042DC001401000012313200000000001501000032
:1042EC003E1E1E00000000001801000046212100A7
:1042FC000000000019010000300D0D00000000004E
:10430C001A0100007B232303202100001B01000065
:10431C004A909500000000001C010000632020035F
:10432C001E1F00001D0100008928310326270000F4
:10433C001E010000D2353903323300001F0100008A
:10434C0001171703141500002001000014171703A0
:10435C001415000022010000FB2E2E0000000000AE
:10436C00230100000A393900000000002701000079
:10437C00EA0C0C0000000000280100009E29290313
:10438C00242500002B0100001360620000000000D7
:10439C002C010000D9161600000000002D010000B1
:1043AC00F33A3A0000000000360100001C11110025
:1043BC0000000000370100005F7474000000000072
:1043CC0040010000F314140302030000410100003B
:1043DC00580202030001000042010000F395950011
:1043EC0000000000430100004E9393030001000005
:1043FC004401000084929200000000004A01000079
:10440C00179EA700000000004B0100005BE6E900CE
:10441C00000000004C010000ECEFEF000000000079
:10442C004D010000E76D6D00000000004E01000022
:10443C00480A3500000000004F010000E118180088
:10444C000000000050010000F55454000000000072
:10445C0053010000C70505000000000054010000D6
:10446C00634646000000000059010000D1151503F9
:10447C00020300005E010000E814FC0000000000D4
:10448C00680100000B191900000000006901000010
:10449C005D21210000000000720100004B576D00EF
:1044AC0000000000730100000A1A1A00000000004E
:1044BC00740100001A8C8C000000000075010000D3
:1044CC00752A2A000000000077010000FB8C8C008C
:1044DC000000000078010000C70808000000000080
:1044EC007C010000E81414000000000081010000B1
:1044FC0093858503020300008201000084101003E1
:10450C000405000083010000044848030405000072
:10451C0084010000082525032021000086010000ED
:10452C009CEEF000000000008B01000000D4D400D1
:10453C00000000008C01000032A0A0000000000070
:10454C008D010000B66C6C000000000090010000B2
:10455C006EFEFE030405000091010000B706060381
:10456C00040500009A010000A03535000000000091
:10457C009B0100006A030300000000009C01000086
:10458C0021060603040500009D0100004D070703EA
:10459C0004050000B3010000862E2E000000000070
:1045AC00B4010000C109090000000000B5010000C1
:1045BC001E01010000000000B8010000422323008E
:1045CC000000000028230000718989000000000011
:1045DC002D23000075222200000000006432000030
:1045EC00722C2C030001000065320000FE3B3B03E3
:1045FC001E1F0000663200008C35350304050000D8
:10460C0067320000F92E2E03000100006832000012
:10461C004D3636031C1D000069320000312B2B0374
:10462C0000010000733200005EF9F9030001000084
:10463C00763200008B33330000000000773200002C
:10464C000712120310110000783200001405050047
:10465C0000000000982F8A4291443771CFFBC0B5FF
:10466C00A5DBB5E95BC25639F111F159A4823F9231
:10467C00D55E1CAB98AA07D8015B8312BE8531248A
:10468C00C37D0C55745DBE72FEB1DE80A706DC9B4B
:10469C0074F19BC1C1699BE48647BEEFC69DC10FF7
:1046AC00CCA10C246F2CE92DAA84744ADCA9B05C33
:1046BC00DA88F97652513E986DC631A8C82703B0F6
:1046CC00C77F59BFF30BE0C64791A7D55163CA0604
:1046DC0067292914850AB72738211B2EFC6D2C4D10
:1046EC00130D385354730A65BB0A6A762EC9C281FE
:1046FC00852C7292A1E8BFA24B661AA8708B4BC294
:10470C00A3516CC719E892D1240699D685350EF4BD
:10471C0070A06A1016C1A419086C371E4C77482774
:10472C00B5BCB034B30C1C394AAAD84E4FCA9C5BEA
:10473C00F36F2E68EE828F746F63A5781478C8843B
:10474C000802C78CFAFFBE90EB6C50A4F7A3F9BE1D
:10475C00F27871C6084800088016002080160020E8
:10476C00801600200848000800000000000000002F
:10477C0000000000084800080000000000000000D5
:10478C0000000000084800080000000000000000C5
:10479C0000000000084800080000000000000000B5
:1047AC0000000000084800080000000000000000A5
:1047BC000000000008480008000000000000000095
:1047CC000000000008480008000000000000000085
:1047DC00000000000000000021150008411800082E
:1047EC000119000801170008111900081117000819
:0C47FC003115000851180008E10A0008FF
:04000005080002B934
:00000001FF
